{
  "contractName": "AssetToken",
  "abi": [
    {
      "constant": true,
      "inputs": [],
      "name": "UsersContractAddress",
      "outputs": [
        {
          "name": "",
          "type": "address"
        }
      ],
      "payable": false,
      "stateMutability": "view",
      "type": "function"
    },
    {
      "constant": true,
      "inputs": [],
      "name": "DigitallContractAddress",
      "outputs": [
        {
          "name": "",
          "type": "address"
        }
      ],
      "payable": false,
      "stateMutability": "view",
      "type": "function"
    },
    {
      "constant": true,
      "inputs": [],
      "name": "name",
      "outputs": [
        {
          "name": "",
          "type": "string"
        }
      ],
      "payable": false,
      "stateMutability": "view",
      "type": "function"
    },
    {
      "constant": false,
      "inputs": [
        {
          "name": "spender",
          "type": "address"
        },
        {
          "name": "amount",
          "type": "uint256"
        }
      ],
      "name": "approve",
      "outputs": [
        {
          "name": "",
          "type": "bool"
        }
      ],
      "payable": false,
      "stateMutability": "nonpayable",
      "type": "function"
    },
    {
      "constant": true,
      "inputs": [],
      "name": "totalSupply",
      "outputs": [
        {
          "name": "",
          "type": "uint256"
        }
      ],
      "payable": false,
      "stateMutability": "view",
      "type": "function"
    },
    {
      "constant": true,
      "inputs": [],
      "name": "ExchangeContractAddress",
      "outputs": [
        {
          "name": "",
          "type": "address"
        }
      ],
      "payable": false,
      "stateMutability": "view",
      "type": "function"
    },
    {
      "constant": true,
      "inputs": [],
      "name": "decimals",
      "outputs": [
        {
          "name": "",
          "type": "uint8"
        }
      ],
      "payable": false,
      "stateMutability": "view",
      "type": "function"
    },
    {
      "constant": false,
      "inputs": [
        {
          "name": "spender",
          "type": "address"
        },
        {
          "name": "addedValue",
          "type": "uint256"
        }
      ],
      "name": "increaseAllowance",
      "outputs": [
        {
          "name": "",
          "type": "bool"
        }
      ],
      "payable": false,
      "stateMutability": "nonpayable",
      "type": "function"
    },
    {
      "constant": false,
      "inputs": [
        {
          "name": "account",
          "type": "address"
        },
        {
          "name": "amount",
          "type": "uint256"
        }
      ],
      "name": "mint",
      "outputs": [
        {
          "name": "",
          "type": "bool"
        }
      ],
      "payable": false,
      "stateMutability": "nonpayable",
      "type": "function"
    },
    {
      "constant": false,
      "inputs": [
        {
          "name": "amount",
          "type": "uint256"
        }
      ],
      "name": "burn",
      "outputs": [],
      "payable": false,
      "stateMutability": "nonpayable",
      "type": "function"
    },
    {
      "constant": true,
      "inputs": [],
      "name": "RefundContractAddress",
      "outputs": [
        {
          "name": "",
          "type": "address"
        }
      ],
      "payable": false,
      "stateMutability": "view",
      "type": "function"
    },
    {
      "constant": true,
      "inputs": [
        {
          "name": "account",
          "type": "address"
        }
      ],
      "name": "balanceOf",
      "outputs": [
        {
          "name": "",
          "type": "uint256"
        }
      ],
      "payable": false,
      "stateMutability": "view",
      "type": "function"
    },
    {
      "constant": false,
      "inputs": [],
      "name": "renounceOwnership",
      "outputs": [],
      "payable": false,
      "stateMutability": "nonpayable",
      "type": "function"
    },
    {
      "constant": false,
      "inputs": [
        {
          "name": "account",
          "type": "address"
        },
        {
          "name": "amount",
          "type": "uint256"
        }
      ],
      "name": "burnFrom",
      "outputs": [],
      "payable": false,
      "stateMutability": "nonpayable",
      "type": "function"
    },
    {
      "constant": true,
      "inputs": [],
      "name": "owner",
      "outputs": [
        {
          "name": "",
          "type": "address"
        }
      ],
      "payable": false,
      "stateMutability": "view",
      "type": "function"
    },
    {
      "constant": true,
      "inputs": [],
      "name": "isOwner",
      "outputs": [
        {
          "name": "",
          "type": "bool"
        }
      ],
      "payable": false,
      "stateMutability": "view",
      "type": "function"
    },
    {
      "constant": true,
      "inputs": [],
      "name": "symbol",
      "outputs": [
        {
          "name": "",
          "type": "string"
        }
      ],
      "payable": false,
      "stateMutability": "view",
      "type": "function"
    },
    {
      "constant": false,
      "inputs": [
        {
          "name": "account",
          "type": "address"
        }
      ],
      "name": "addMinter",
      "outputs": [],
      "payable": false,
      "stateMutability": "nonpayable",
      "type": "function"
    },
    {
      "constant": false,
      "inputs": [],
      "name": "renounceMinter",
      "outputs": [],
      "payable": false,
      "stateMutability": "nonpayable",
      "type": "function"
    },
    {
      "constant": false,
      "inputs": [
        {
          "name": "spender",
          "type": "address"
        },
        {
          "name": "subtractedValue",
          "type": "uint256"
        }
      ],
      "name": "decreaseAllowance",
      "outputs": [
        {
          "name": "",
          "type": "bool"
        }
      ],
      "payable": false,
      "stateMutability": "nonpayable",
      "type": "function"
    },
    {
      "constant": true,
      "inputs": [
        {
          "name": "account",
          "type": "address"
        }
      ],
      "name": "isMinter",
      "outputs": [
        {
          "name": "",
          "type": "bool"
        }
      ],
      "payable": false,
      "stateMutability": "view",
      "type": "function"
    },
    {
      "constant": true,
      "inputs": [
        {
          "name": "owner",
          "type": "address"
        },
        {
          "name": "spender",
          "type": "address"
        }
      ],
      "name": "allowance",
      "outputs": [
        {
          "name": "",
          "type": "uint256"
        }
      ],
      "payable": false,
      "stateMutability": "view",
      "type": "function"
    },
    {
      "constant": false,
      "inputs": [
        {
          "name": "newOwner",
          "type": "address"
        }
      ],
      "name": "transferOwnership",
      "outputs": [],
      "payable": false,
      "stateMutability": "nonpayable",
      "type": "function"
    },
    {
      "inputs": [
        {
          "name": "name",
          "type": "string"
        },
        {
          "name": "symbol",
          "type": "string"
        },
        {
          "name": "exchangeAddress",
          "type": "address"
        },
        {
          "name": "usersAddress",
          "type": "address"
        },
        {
          "name": "digitallAddress",
          "type": "address"
        },
        {
          "name": "refundAddress",
          "type": "address"
        }
      ],
      "payable": false,
      "stateMutability": "nonpayable",
      "type": "constructor"
    },
    {
      "anonymous": false,
      "inputs": [
        {
          "indexed": false,
          "name": "userAddress",
          "type": "address"
        }
      ],
      "name": "NewUser",
      "type": "event"
    },
    {
      "anonymous": false,
      "inputs": [
        {
          "indexed": false,
          "name": "value",
          "type": "uint256"
        },
        {
          "indexed": false,
          "name": "symbol",
          "type": "string"
        }
      ],
      "name": "Deposit",
      "type": "event"
    },
    {
      "anonymous": false,
      "inputs": [
        {
          "indexed": false,
          "name": "userAddress",
          "type": "address"
        },
        {
          "indexed": false,
          "name": "referredAddress",
          "type": "address"
        },
        {
          "indexed": false,
          "name": "amount",
          "type": "uint256"
        },
        {
          "indexed": false,
          "name": "symbol",
          "type": "string"
        }
      ],
      "name": "MoneyEarned",
      "type": "event"
    },
    {
      "anonymous": false,
      "inputs": [
        {
          "indexed": false,
          "name": "transactionId",
          "type": "uint256"
        },
        {
          "indexed": false,
          "name": "symbol",
          "type": "string"
        },
        {
          "indexed": false,
          "name": "addressFrom",
          "type": "address"
        },
        {
          "indexed": false,
          "name": "addressTo",
          "type": "address"
        },
        {
          "indexed": false,
          "name": "value",
          "type": "uint256"
        },
        {
          "indexed": false,
          "name": "fee",
          "type": "uint256"
        },
        {
          "indexed": false,
          "name": "txType",
          "type": "string"
        }
      ],
      "name": "CustomTransfer",
      "type": "event"
    },
    {
      "anonymous": false,
      "inputs": [
        {
          "indexed": false,
          "name": "fromAddress",
          "type": "address"
        },
        {
          "indexed": false,
          "name": "toAddress",
          "type": "address"
        },
        {
          "indexed": false,
          "name": "fromAmount",
          "type": "uint256"
        },
        {
          "indexed": false,
          "name": "toAmount",
          "type": "uint256"
        },
        {
          "indexed": false,
          "name": "fee",
          "type": "uint256"
        }
      ],
      "name": "Exchange",
      "type": "event"
    },
    {
      "anonymous": false,
      "inputs": [
        {
          "indexed": false,
          "name": "fromAddress",
          "type": "address"
        },
        {
          "indexed": false,
          "name": "toAddress",
          "type": "address"
        },
        {
          "indexed": false,
          "name": "fromAmount",
          "type": "uint256"
        },
        {
          "indexed": false,
          "name": "toAmount",
          "type": "uint256"
        },
        {
          "indexed": false,
          "name": "fee",
          "type": "uint256"
        },
        {
          "indexed": false,
          "name": "recipient",
          "type": "address"
        }
      ],
      "name": "ExchangeAndTransfer",
      "type": "event"
    },
    {
      "anonymous": false,
      "inputs": [
        {
          "indexed": false,
          "name": "recipient",
          "type": "address"
        },
        {
          "indexed": false,
          "name": "symbol",
          "type": "string"
        },
        {
          "indexed": false,
          "name": "value",
          "type": "uint256"
        },
        {
          "indexed": false,
          "name": "fee",
          "type": "uint256"
        }
      ],
      "name": "CreditCardPurchase",
      "type": "event"
    },
    {
      "anonymous": false,
      "inputs": [
        {
          "indexed": true,
          "name": "previousOwner",
          "type": "address"
        },
        {
          "indexed": true,
          "name": "newOwner",
          "type": "address"
        }
      ],
      "name": "OwnershipTransferred",
      "type": "event"
    },
    {
      "anonymous": false,
      "inputs": [
        {
          "indexed": true,
          "name": "account",
          "type": "address"
        }
      ],
      "name": "MinterAdded",
      "type": "event"
    },
    {
      "anonymous": false,
      "inputs": [
        {
          "indexed": true,
          "name": "account",
          "type": "address"
        }
      ],
      "name": "MinterRemoved",
      "type": "event"
    },
    {
      "anonymous": false,
      "inputs": [
        {
          "indexed": true,
          "name": "from",
          "type": "address"
        },
        {
          "indexed": true,
          "name": "to",
          "type": "address"
        },
        {
          "indexed": false,
          "name": "value",
          "type": "uint256"
        }
      ],
      "name": "Transfer",
      "type": "event"
    },
    {
      "anonymous": false,
      "inputs": [
        {
          "indexed": true,
          "name": "owner",
          "type": "address"
        },
        {
          "indexed": true,
          "name": "spender",
          "type": "address"
        },
        {
          "indexed": false,
          "name": "value",
          "type": "uint256"
        }
      ],
      "name": "Approval",
      "type": "event"
    },
    {
      "constant": false,
      "inputs": [
        {
          "name": "newContracts",
          "type": "address[]"
        }
      ],
      "name": "addDigitallContracts",
      "outputs": [],
      "payable": false,
      "stateMutability": "nonpayable",
      "type": "function"
    },
    {
      "constant": false,
      "inputs": [
        {
          "name": "oldAddress",
          "type": "address"
        },
        {
          "name": "newAddress",
          "type": "address"
        }
      ],
      "name": "changeDigitallContractAddress",
      "outputs": [
        {
          "name": "",
          "type": "bool"
        }
      ],
      "payable": false,
      "stateMutability": "nonpayable",
      "type": "function"
    },
    {
      "constant": false,
      "inputs": [
        {
          "name": "oldAddress",
          "type": "address"
        },
        {
          "name": "newAddress",
          "type": "address"
        }
      ],
      "name": "changeExchangeContractAddress",
      "outputs": [
        {
          "name": "",
          "type": "bool"
        }
      ],
      "payable": false,
      "stateMutability": "nonpayable",
      "type": "function"
    },
    {
      "constant": false,
      "inputs": [
        {
          "name": "oldAddress",
          "type": "address"
        },
        {
          "name": "newAddress",
          "type": "address"
        }
      ],
      "name": "changeUsersContractAddress",
      "outputs": [
        {
          "name": "",
          "type": "bool"
        }
      ],
      "payable": false,
      "stateMutability": "nonpayable",
      "type": "function"
    },
    {
      "constant": false,
      "inputs": [
        {
          "name": "oldAddress",
          "type": "address"
        },
        {
          "name": "newAddress",
          "type": "address"
        }
      ],
      "name": "changeRefundContractAddress",
      "outputs": [
        {
          "name": "",
          "type": "bool"
        }
      ],
      "payable": false,
      "stateMutability": "nonpayable",
      "type": "function"
    },
    {
      "constant": false,
      "inputs": [
        {
          "name": "sender",
          "type": "address"
        },
        {
          "name": "recipient",
          "type": "address"
        },
        {
          "name": "amount",
          "type": "uint256"
        }
      ],
      "name": "transferFrom",
      "outputs": [
        {
          "name": "",
          "type": "bool"
        }
      ],
      "payable": false,
      "stateMutability": "nonpayable",
      "type": "function"
    },
    {
      "constant": false,
      "inputs": [
        {
          "name": "recipient",
          "type": "address"
        },
        {
          "name": "amount",
          "type": "uint256"
        },
        {
          "name": "source",
          "type": "uint8"
        }
      ],
      "name": "purchaseTokens",
      "outputs": [
        {
          "name": "",
          "type": "bool"
        }
      ],
      "payable": false,
      "stateMutability": "nonpayable",
      "type": "function"
    },
    {
      "constant": false,
      "inputs": [
        {
          "name": "amount",
          "type": "uint256"
        }
      ],
      "name": "cashOut",
      "outputs": [
        {
          "name": "",
          "type": "bool"
        }
      ],
      "payable": false,
      "stateMutability": "nonpayable",
      "type": "function"
    },
    {
      "constant": false,
      "inputs": [
        {
          "name": "to",
          "type": "address"
        },
        {
          "name": "value",
          "type": "uint256"
        },
        {
          "name": "salt",
          "type": "uint256"
        }
      ],
      "name": "digitallTransfer",
      "outputs": [
        {
          "name": "",
          "type": "uint256"
        }
      ],
      "payable": false,
      "stateMutability": "nonpayable",
      "type": "function"
    },
    {
      "constant": false,
      "inputs": [
        {
          "name": "recipient",
          "type": "address"
        },
        {
          "name": "amount",
          "type": "uint256"
        }
      ],
      "name": "transfer",
      "outputs": [
        {
          "name": "",
          "type": "bool"
        }
      ],
      "payable": false,
      "stateMutability": "nonpayable",
      "type": "function"
    },
    {
      "constant": false,
      "inputs": [
        {
          "name": "from",
          "type": "address"
        },
        {
          "name": "to",
          "type": "address"
        },
        {
          "name": "value",
          "type": "uint256"
        },
        {
          "name": "salt",
          "type": "uint256"
        }
      ],
      "name": "digitallWithdrawTo",
      "outputs": [
        {
          "name": "",
          "type": "bool"
        }
      ],
      "payable": false,
      "stateMutability": "nonpayable",
      "type": "function"
    },
    {
      "constant": false,
      "inputs": [
        {
          "name": "recipient",
          "type": "address"
        },
        {
          "name": "amount",
          "type": "uint256"
        }
      ],
      "name": "withdrawTo",
      "outputs": [
        {
          "name": "",
          "type": "bool"
        }
      ],
      "payable": false,
      "stateMutability": "nonpayable",
      "type": "function"
    }
  ],
  "bytecode": "0x60806040523480156200001157600080fd5b50604051620065a0380380620065a0833981018060405260c08110156200003757600080fd5b8101908080516401000000008111156200005057600080fd5b828101905060208101848111156200006757600080fd5b81518560018202830111640100000000821117156200008557600080fd5b50509291906020018051640100000000811115620000a257600080fd5b82810190506020810184811115620000b957600080fd5b8151856001820283011164010000000082111715620000d757600080fd5b50509291906020018051906020019092919080519060200190929190805190602001909291908051906020019092919050505085856006826003908051906020019062000126929190620005df565b5081600490805190602001906200013f929190620005df565b5080600560006101000a81548160ff021916908360ff160217905550505050620001906200017b6200035a640100000000026401000000009004565b62000362640100000000026401000000009004565b6000620001ab6200035a640100000000026401000000009004565b905080600760006101000a81548173ffffffffffffffffffffffffffffffffffffffff021916908373ffffffffffffffffffffffffffffffffffffffff1602179055508073ffffffffffffffffffffffffffffffffffffffff16600073ffffffffffffffffffffffffffffffffffffffff167f8be0079c531659141344cd1fd0a4f28419497f9722a3daafe3b4186f6b6457e060405160405180910390a35083600960006101000a81548173ffffffffffffffffffffffffffffffffffffffff021916908373ffffffffffffffffffffffffffffffffffffffff16021790555082600860006101000a81548173ffffffffffffffffffffffffffffffffffffffff021916908373ffffffffffffffffffffffffffffffffffffffff16021790555081600a60006101000a81548173ffffffffffffffffffffffffffffffffffffffff021916908373ffffffffffffffffffffffffffffffffffffffff16021790555080600b60006101000a81548173ffffffffffffffffffffffffffffffffffffffff021916908373ffffffffffffffffffffffffffffffffffffffff1602179055505050505050506200068e565b600033905090565b62000386816006620003cc6401000000000262003c15179091906401000000009004565b8073ffffffffffffffffffffffffffffffffffffffff167f6ae172837ea30b801fbfcdd4108aa1d5bf8ff775444fd70256b44e6bf3dfc3f660405160405180910390a250565b620003e78282620004bb640100000000026401000000009004565b1515156200045d576040517f08c379a000000000000000000000000000000000000000000000000000000000815260040180806020018281038252601f8152602001807f526f6c65733a206163636f756e7420616c72656164792068617320726f6c650081525060200191505060405180910390fd5b60018260000160008373ffffffffffffffffffffffffffffffffffffffff1673ffffffffffffffffffffffffffffffffffffffff16815260200190815260200160002060006101000a81548160ff0219169083151502179055505050565b60008073ffffffffffffffffffffffffffffffffffffffff168273ffffffffffffffffffffffffffffffffffffffff161415151562000588576040517f08c379a00000000000000000000000000000000000000000000000000000000081526004018080602001828103825260228152602001807f526f6c65733a206163636f756e7420697320746865207a65726f20616464726581526020017f737300000000000000000000000000000000000000000000000000000000000081525060400191505060405180910390fd5b8260000160008373ffffffffffffffffffffffffffffffffffffffff1673ffffffffffffffffffffffffffffffffffffffff16815260200190815260200160002060009054906101000a900460ff16905092915050565b828054600181600116156101000203166002900490600052602060002090601f016020900481019282601f106200062257805160ff191683800117855562000653565b8280016001018555821562000653579182015b828111156200065257825182559160200191906001019062000635565b5b50905062000662919062000666565b5090565b6200068b91905b80821115620006875760008160009055506001016200066d565b5090565b90565b615f02806200069e6000396000f3fe6080604052600436106101b7576000357c0100000000000000000000000000000000000000000000000000000000900463ffffffff168063012e3d8d146101bc578063048699fd1461021357806306fdde031461026a578063095ea7b3146102fa57806318160ddd1461036d578063205c28781461039857806323b872dd1461040b578063298493e91461049e578063313ce567146104f5578063395093511461052657806340c10f191461059957806342966c681461060c5780635150d44d146106475780635a2ced17146106d05780635c7b79f51461072757806370a082311461077a578063715018a6146107df57806379cc6790146107f65780638da5cb5b146108515780638f32d59b146108a857806390073f72146108d7578063918210e41461099c57806395d89b4114610a25578063983b2d5614610ab55780639865027514610b065780639b4b993d14610b1d578063a0b8472114610bba578063a457c2d714610c43578063a9059cbb14610cb6578063aa271e1a14610d29578063b290ad5514610d92578063b459065014610e12578063be6bd83214610e9b578063dd62ed3e14610f14578063f2fde38b14610f99575b600080fd5b3480156101c857600080fd5b506101d1610fea565b604051808273ffffffffffffffffffffffffffffffffffffffff1673ffffffffffffffffffffffffffffffffffffffff16815260200191505060405180910390f35b34801561021f57600080fd5b50610228611010565b604051808273ffffffffffffffffffffffffffffffffffffffff1673ffffffffffffffffffffffffffffffffffffffff16815260200191505060405180910390f35b34801561027657600080fd5b5061027f611036565b6040518080602001828103825283818151815260200191508051906020019080838360005b838110156102bf5780820151818401526020810190506102a4565b50505050905090810190601f1680156102ec5780820380516001836020036101000a031916815260200191505b509250505060405180910390f35b34801561030657600080fd5b506103536004803603604081101561031d57600080fd5b81019080803573ffffffffffffffffffffffffffffffffffffffff169060200190929190803590602001909291905050506110d8565b604051808215151515815260200191505060405180910390f35b34801561037957600080fd5b506103826110f6565b6040518082815260200191505060405180910390f35b3480156103a457600080fd5b506103f1600480360360408110156103bb57600080fd5b81019080803573ffffffffffffffffffffffffffffffffffffffff16906020019092919080359060200190929190505050611100565b604051808215151515815260200191505060405180910390f35b34801561041757600080fd5b506104846004803603606081101561042e57600080fd5b81019080803573ffffffffffffffffffffffffffffffffffffffff169060200190929190803573ffffffffffffffffffffffffffffffffffffffff1690602001909291908035906020019092919050505061119f565b604051808215151515815260200191505060405180910390f35b3480156104aa57600080fd5b506104b36112c9565b604051808273ffffffffffffffffffffffffffffffffffffffff1673ffffffffffffffffffffffffffffffffffffffff16815260200191505060405180910390f35b34801561050157600080fd5b5061050a6112ef565b604051808260ff1660ff16815260200191505060405180910390f35b34801561053257600080fd5b5061057f6004803603604081101561054957600080fd5b81019080803573ffffffffffffffffffffffffffffffffffffffff16906020019092919080359060200190929190505050611306565b604051808215151515815260200191505060405180910390f35b3480156105a557600080fd5b506105f2600480360360408110156105bc57600080fd5b81019080803573ffffffffffffffffffffffffffffffffffffffff169060200190929190803590602001909291905050506113b9565b604051808215151515815260200191505060405180910390f35b34801561061857600080fd5b506106456004803603602081101561062f57600080fd5b8101908080359060200190929190505050611479565b005b34801561065357600080fd5b506106b66004803603604081101561066a57600080fd5b81019080803573ffffffffffffffffffffffffffffffffffffffff169060200190929190803573ffffffffffffffffffffffffffffffffffffffff16906020019092919050505061148d565b604051808215151515815260200191505060405180910390f35b3480156106dc57600080fd5b506106e561157e565b604051808273ffffffffffffffffffffffffffffffffffffffff1673ffffffffffffffffffffffffffffffffffffffff16815260200191505060405180910390f35b34801561073357600080fd5b506107606004803603602081101561074a57600080fd5b81019080803590602001909291905050506115a4565b604051808215151515815260200191505060405180910390f35b34801561078657600080fd5b506107c96004803603602081101561079d57600080fd5b81019080803573ffffffffffffffffffffffffffffffffffffffff169060200190929190505050611a31565b6040518082815260200191505060405180910390f35b3480156107eb57600080fd5b506107f4611a79565b005b34801561080257600080fd5b5061084f6004803603604081101561081957600080fd5b81019080803573ffffffffffffffffffffffffffffffffffffffff16906020019092919080359060200190929190505050611bb6565b005b34801561085d57600080fd5b50610866611bc4565b604051808273ffffffffffffffffffffffffffffffffffffffff1673ffffffffffffffffffffffffffffffffffffffff16815260200191505060405180910390f35b3480156108b457600080fd5b506108bd611bee565b604051808215151515815260200191505060405180910390f35b3480156108e357600080fd5b5061099a600480360360208110156108fa57600080fd5b810190808035906020019064010000000081111561091757600080fd5b82018360208201111561092957600080fd5b8035906020019184602083028401116401000000008311171561094b57600080fd5b919080806020026020016040519081016040528093929190818152602001838360200280828437600081840152601f19601f820116905080830192505050505050509192919290505050611c4d565b005b3480156109a857600080fd5b50610a0b600480360360408110156109bf57600080fd5b81019080803573ffffffffffffffffffffffffffffffffffffffff169060200190929190803573ffffffffffffffffffffffffffffffffffffffff169060200190929190505050611d14565b604051808215151515815260200191505060405180910390f35b348015610a3157600080fd5b50610a3a611e05565b6040518080602001828103825283818151815260200191508051906020019080838360005b83811015610a7a578082015181840152602081019050610a5f565b50505050905090810190601f168015610aa75780820380516001836020036101000a031916815260200191505b509250505060405180910390f35b348015610ac157600080fd5b50610b0460048036036020811015610ad857600080fd5b81019080803573ffffffffffffffffffffffffffffffffffffffff169060200190929190505050611ea7565b005b348015610b1257600080fd5b50610b1b611f5d565b005b348015610b2957600080fd5b50610ba060048036036080811015610b4057600080fd5b81019080803573ffffffffffffffffffffffffffffffffffffffff169060200190929190803573ffffffffffffffffffffffffffffffffffffffff1690602001909291908035906020019092919080359060200190929190505050611f6f565b604051808215151515815260200191505060405180910390f35b348015610bc657600080fd5b50610c2960048036036040811015610bdd57600080fd5b81019080803573ffffffffffffffffffffffffffffffffffffffff169060200190929190803573ffffffffffffffffffffffffffffffffffffffff169060200190929190505050612013565b604051808215151515815260200191505060405180910390f35b348015610c4f57600080fd5b50610c9c60048036036040811015610c6657600080fd5b81019080803573ffffffffffffffffffffffffffffffffffffffff16906020019092919080359060200190929190505050612104565b604051808215151515815260200191505060405180910390f35b348015610cc257600080fd5b50610d0f60048036036040811015610cd957600080fd5b81019080803573ffffffffffffffffffffffffffffffffffffffff16906020019092919080359060200190929190505050612215565b604051808215151515815260200191505060405180910390f35b348015610d3557600080fd5b50610d7860048036036020811015610d4c57600080fd5b81019080803573ffffffffffffffffffffffffffffffffffffffff1690602001909291905050506122a8565b604051808215151515815260200191505060405180910390f35b348015610d9e57600080fd5b50610df860048036036060811015610db557600080fd5b81019080803573ffffffffffffffffffffffffffffffffffffffff16906020019092919080359060200190929190803560ff1690602001909291905050506122c5565b604051808215151515815260200191505060405180910390f35b348015610e1e57600080fd5b50610e8160048036036040811015610e3557600080fd5b81019080803573ffffffffffffffffffffffffffffffffffffffff169060200190929190803573ffffffffffffffffffffffffffffffffffffffff169060200190929190505050612b12565b604051808215151515815260200191505060405180910390f35b348015610ea757600080fd5b50610efe60048036036060811015610ebe57600080fd5b81019080803573ffffffffffffffffffffffffffffffffffffffff1690602001909291908035906020019092919080359060200190929190505050612c03565b6040518082815260200191505060405180910390f35b348015610f2057600080fd5b50610f8360048036036040811015610f3757600080fd5b81019080803573ffffffffffffffffffffffffffffffffffffffff169060200190929190803573ffffffffffffffffffffffffffffffffffffffff169060200190929190505050612d8a565b6040518082815260200191505060405180910390f35b348015610fa557600080fd5b50610fe860048036036020811015610fbc57600080fd5b81019080803573ffffffffffffffffffffffffffffffffffffffff169060200190929190505050612e11565b005b600860009054906101000a900473ffffffffffffffffffffffffffffffffffffffff1681565b600a60009054906101000a900473ffffffffffffffffffffffffffffffffffffffff1681565b606060038054600181600116156101000203166002900480601f0160208091040260200160405190810160405280929190818152602001828054600181600116156101000203166002900480156110ce5780601f106110a3576101008083540402835291602001916110ce565b820191906000526020600020905b8154815290600101906020018083116110b157829003601f168201915b5050505050905090565b60006110ec6110e5612e99565b8484612ea1565b6001905092915050565b6000600254905090565b600061111633600c61312290919063ffffffff16565b151561118a576040517f08c379a000000000000000000000000000000000000000000000000000000000815260040180806020018281038252601e8152602001807f43616c6c65722069732061204469676974616c6c20636f6e74726163742e000081525060200191505060405180910390fd5b611195308484613245565b6001905092915050565b60006111b533600c61312290919063ffffffff16565b1515611229576040517f08c379a000000000000000000000000000000000000000000000000000000000815260040180806020018281038252601e8152602001807f43616c6c65722069732061204469676974616c6c20636f6e74726163742e000081525060200191505060405180910390fd5b611234848484613245565b60006112408533612d8a565b90506112bd85336112b886606060405190810160405280602881526020017f45524332303a207472616e7366657220616d6f756e742065786365656473206181526020017f6c6c6f77616e6365000000000000000000000000000000000000000000000000815250866135c99092919063ffffffff16565b612ea1565b60019150509392505050565b600960009054906101000a900473ffffffffffffffffffffffffffffffffffffffff1681565b6000600560009054906101000a900460ff16905090565b60006113af611313612e99565b846113aa8560016000611324612e99565b73ffffffffffffffffffffffffffffffffffffffff1673ffffffffffffffffffffffffffffffffffffffff16815260200190815260200160002060008973ffffffffffffffffffffffffffffffffffffffff1673ffffffffffffffffffffffffffffffffffffffff1681526020019081526020016000205461368b90919063ffffffff16565b612ea1565b6001905092915050565b60006113cb6113c6612e99565b6122a8565b1515611465576040517f08c379a00000000000000000000000000000000000000000000000000000000081526004018080602001828103825260308152602001807f4d696e746572526f6c653a2063616c6c657220646f6573206e6f74206861766581526020017f20746865204d696e74657220726f6c650000000000000000000000000000000081525060400191505060405180910390fd5b61146f8383613715565b6001905092915050565b61148a611484612e99565b826138d2565b50565b6000611497611bee565b151561150b576040517f08c379a00000000000000000000000000000000000000000000000000000000081526004018080602001828103825260208152602001807f4f776e61626c653a2063616c6c6572206973206e6f7420746865206f776e657281525060200191505060405180910390fd5b61151f83600c613b1390919063ffffffff16565b61153382600c613c1590919063ffffffff16565b81600860006101000a81548173ffffffffffffffffffffffffffffffffffffffff021916908373ffffffffffffffffffffffffffffffffffffffff1602179055506001905092915050565b600b60009054906101000a900473ffffffffffffffffffffffffffffffffffffffff1681565b600080600860009054906101000a900473ffffffffffffffffffffffffffffffffffffffff1690508073ffffffffffffffffffffffffffffffffffffffff16639f8a13d7336040518263ffffffff167c0100000000000000000000000000000000000000000000000000000000028152600401808273ffffffffffffffffffffffffffffffffffffffff1673ffffffffffffffffffffffffffffffffffffffff16815260200191505060206040518083038186803b15801561166557600080fd5b505afa158015611679573d6000803e3d6000fd5b505050506040513d602081101561168f57600080fd5b81019080805190602001909291905050501515611714576040517f08c379a00000000000000000000000000000000000000000000000000000000081526004018080602001828103825260138152602001807f55736572206973206e6f74206163746976652e0000000000000000000000000081525060200191505060405180910390fd5b6000600860009054906101000a900473ffffffffffffffffffffffffffffffffffffffff1690506000600b60009054906101000a900473ffffffffffffffffffffffffffffffffffffffff169050611809338373ffffffffffffffffffffffffffffffffffffffff16632533c95f6040518163ffffffff167c010000000000000000000000000000000000000000000000000000000002815260040160206040518083038186803b1580156117c857600080fd5b505afa1580156117dc573d6000803e3d6000fd5b505050506040513d60208110156117f257600080fd5b810190808051906020019092919050505087613245565b8073ffffffffffffffffffffffffffffffffffffffff16632fc761e9338473ffffffffffffffffffffffffffffffffffffffff16632533c95f6040518163ffffffff167c010000000000000000000000000000000000000000000000000000000002815260040160206040518083038186803b15801561188857600080fd5b505afa15801561189c573d6000803e3d6000fd5b505050506040513d60208110156118b257600080fd5b810190808051906020019092919050505030896040518563ffffffff167c010000000000000000000000000000000000000000000000000000000002815260040180806020018673ffffffffffffffffffffffffffffffffffffffff1673ffffffffffffffffffffffffffffffffffffffff1681526020018573ffffffffffffffffffffffffffffffffffffffff1673ffffffffffffffffffffffffffffffffffffffff1681526020018473ffffffffffffffffffffffffffffffffffffffff1673ffffffffffffffffffffffffffffffffffffffff1681526020018381526020018281038252600a8152602001807f7769746864726177616c0000000000000000000000000000000000000000000081525060200195505050505050602060405180830381600087803b1580156119e957600080fd5b505af11580156119fd573d6000803e3d6000fd5b505050506040513d6020811015611a1357600080fd5b81019080805190602001909291905050505060019350505050919050565b60008060008373ffffffffffffffffffffffffffffffffffffffff1673ffffffffffffffffffffffffffffffffffffffff168152602001908152602001600020549050919050565b611a81611bee565b1515611af5576040517f08c379a00000000000000000000000000000000000000000000000000000000081526004018080602001828103825260208152602001807f4f776e61626c653a2063616c6c6572206973206e6f7420746865206f776e657281525060200191505060405180910390fd5b600073ffffffffffffffffffffffffffffffffffffffff16600760009054906101000a900473ffffffffffffffffffffffffffffffffffffffff1673ffffffffffffffffffffffffffffffffffffffff167f8be0079c531659141344cd1fd0a4f28419497f9722a3daafe3b4186f6b6457e060405160405180910390a36000600760006101000a81548173ffffffffffffffffffffffffffffffffffffffff021916908373ffffffffffffffffffffffffffffffffffffffff160217905550565b611bc08282613cf2565b5050565b6000600760009054906101000a900473ffffffffffffffffffffffffffffffffffffffff16905090565b6000600760009054906101000a900473ffffffffffffffffffffffffffffffffffffffff1673ffffffffffffffffffffffffffffffffffffffff16611c31612e99565b73ffffffffffffffffffffffffffffffffffffffff1614905090565b611c55611bee565b1515611cc9576040517f08c379a00000000000000000000000000000000000000000000000000000000081526004018080602001828103825260208152602001807f4f776e61626c653a2063616c6c6572206973206e6f7420746865206f776e657281525060200191505060405180910390fd5b60008090505b8151811015611d1057611d038282815181101515611ce957fe5b90602001906020020151600c613c1590919063ffffffff16565b8080600101915050611ccf565b5050565b6000611d1e611bee565b1515611d92576040517f08c379a00000000000000000000000000000000000000000000000000000000081526004018080602001828103825260208152602001807f4f776e61626c653a2063616c6c6572206973206e6f7420746865206f776e657281525060200191505060405180910390fd5b611da683600c613b1390919063ffffffff16565b611dba82600c613c1590919063ffffffff16565b81600b60006101000a81548173ffffffffffffffffffffffffffffffffffffffff021916908373ffffffffffffffffffffffffffffffffffffffff1602179055506001905092915050565b606060048054600181600116156101000203166002900480601f016020809104026020016040519081016040528092919081815260200182805460018160011615610100020316600290048015611e9d5780601f10611e7257610100808354040283529160200191611e9d565b820191906000526020600020905b815481529060010190602001808311611e8057829003601f168201915b5050505050905090565b611eb7611eb2612e99565b6122a8565b1515611f51576040517f08c379a00000000000000000000000000000000000000000000000000000000081526004018080602001828103825260308152602001807f4d696e746572526f6c653a2063616c6c657220646f6573206e6f74206861766581526020017f20746865204d696e74657220726f6c650000000000000000000000000000000081525060400191505060405180910390fd5b611f5a81613e05565b50565b611f6d611f68612e99565b613e5f565b565b6000611f8533600c61312290919063ffffffff16565b1515611ff9576040517f08c379a000000000000000000000000000000000000000000000000000000000815260040180806020018281038252601e8152602001807f43616c6c65722069732061204469676974616c6c20636f6e74726163742e000081525060200191505060405180910390fd5b6120068530868686613eb9565b5060019050949350505050565b600061201d611bee565b1515612091576040517f08c379a00000000000000000000000000000000000000000000000000000000081526004018080602001828103825260208152602001807f4f776e61626c653a2063616c6c6572206973206e6f7420746865206f776e657281525060200191505060405180910390fd5b6120a583600c613b1390919063ffffffff16565b6120b982600c613c1590919063ffffffff16565b81600a60006101000a81548173ffffffffffffffffffffffffffffffffffffffff021916908373ffffffffffffffffffffffffffffffffffffffff1602179055506001905092915050565b600061220b612111612e99565b8461220685606060405190810160405280602581526020017f45524332303a2064656372656173656420616c6c6f77616e63652062656c6f7781526020017f207a65726f0000000000000000000000000000000000000000000000000000008152506001600061217f612e99565b73ffffffffffffffffffffffffffffffffffffffff1673ffffffffffffffffffffffffffffffffffffffff16815260200190815260200160002060008a73ffffffffffffffffffffffffffffffffffffffff1673ffffffffffffffffffffffffffffffffffffffff168152602001908152602001600020546135c99092919063ffffffff16565b612ea1565b6001905092915050565b600061221f611bee565b1515612293576040517f08c379a00000000000000000000000000000000000000000000000000000000081526004018080602001828103825260208152602001807f4f776e61626c653a2063616c6c6572206973206e6f7420746865206f776e657281525060200191505060405180910390fd5b61229e338484613245565b6001905092915050565b60006122be82600661312290919063ffffffff16565b9050919050565b60006122d76122d2612e99565b6122a8565b1515612371576040517f08c379a00000000000000000000000000000000000000000000000000000000081526004018080602001828103825260308152602001807f4d696e746572526f6c653a2063616c6c657220646f6573206e6f74206861766581526020017f20746865204d696e74657220726f6c650000000000000000000000000000000081525060400191505060405180910390fd5b60028260ff1611151515612413576040517f08c379a000000000000000000000000000000000000000000000000000000000815260040180806020018281038252603f8152602001807f536f75726365206d75737420626520616e20696e74206c657373207468616e2081526020017f333b2030203d2055532c2031203d204555522c2032203d2043727970746f2e0081525060400191505060405180910390fd5b6000600860009054906101000a900473ffffffffffffffffffffffffffffffffffffffff1690506000600a60009054906101000a900473ffffffffffffffffffffffffffffffffffffffff169050612469615e6e565b8173ffffffffffffffffffffffffffffffffffffffff1663f4fc0a386040518163ffffffff167c0100000000000000000000000000000000000000000000000000000000028152600401604080518083038186803b1580156124ca57600080fd5b505afa1580156124de573d6000803e3d6000fd5b505050506040513d601f19601f82011682018060405250604081101561250357600080fd5b81019080919050509050612515615e90565b60008660ff1614156125c7578273ffffffffffffffffffffffffffffffffffffffff16632d886d1b6040518163ffffffff167c010000000000000000000000000000000000000000000000000000000002815260040160606040518083038186803b15801561258357600080fd5b505afa158015612597573d6000803e3d6000fd5b505050506040513d601f19601f8201168201806040525060608110156125bc57600080fd5b810190809190505090505b60018660ff161415612679578273ffffffffffffffffffffffffffffffffffffffff166330f23f046040518163ffffffff167c010000000000000000000000000000000000000000000000000000000002815260040160606040518083038186803b15801561263557600080fd5b505afa158015612649573d6000803e3d6000fd5b505050506040513d601f19601f82011682018060405250606081101561266e57600080fd5b810190809190505090505b60028660ff16141561272b578273ffffffffffffffffffffffffffffffffffffffff1663252bf2086040518163ffffffff167c010000000000000000000000000000000000000000000000000000000002815260040160606040518083038186803b1580156126e757600080fd5b505afa1580156126fb573d6000803e3d6000fd5b505050506040513d601f19601f82011682018060405250606081101561272057600080fd5b810190809190505090505b60006127d3898673ffffffffffffffffffffffffffffffffffffffff16632533c95f6040518163ffffffff167c010000000000000000000000000000000000000000000000000000000002815260040160206040518083038186803b15801561279357600080fd5b505afa1580156127a7573d6000803e3d6000fd5b505050506040513d60208110156127bd57600080fd5b8101908080519060200190929190505050612d8a565b905060006128478360026003811015156127e957fe5b602002015161283985600160038110151561280057fe5b602002015161282b87600060038110151561281757fe5b60200201518e61484d90919063ffffffff16565b61491a90919063ffffffff16565b61368b90919063ffffffff16565b9050600061285e828b61496490919063ffffffff16565b905060006128ad86600160028110151561287457fe5b602002015161289f88600060028110151561288b57fe5b60200201518561484d90919063ffffffff16565b61491a90919063ffffffff16565b90506128b98c83613715565b61295f8873ffffffffffffffffffffffffffffffffffffffff16632533c95f6040518163ffffffff167c010000000000000000000000000000000000000000000000000000000002815260040160206040518083038186803b15801561291e57600080fd5b505afa158015612932573d6000803e3d6000fd5b505050506040513d602081101561294857600080fd5b810190808051906020019092919050505084613715565b612a188c8973ffffffffffffffffffffffffffffffffffffffff16632533c95f6040518163ffffffff167c010000000000000000000000000000000000000000000000000000000002815260040160206040518083038186803b1580156129c557600080fd5b505afa1580156129d9573d6000803e3d6000fd5b505050506040513d60208110156129ef57600080fd5b8101908080519060200190929190505050612a13848861368b90919063ffffffff16565b612ea1565b7f16023e0750b5d466571d603c92df480af6ce2076e7c154b659e76a78f06940dd8c612a42611e05565b8d86604051808573ffffffffffffffffffffffffffffffffffffffff1673ffffffffffffffffffffffffffffffffffffffff16815260200180602001848152602001838152602001828103825285818151815260200191508051906020019080838360005b83811015612ac2578082015181840152602081019050612aa7565b50505050905090810190601f168015612aef5780820380516001836020036101000a031916815260200191505b509550505050505060405180910390a16001985050505050505050509392505050565b6000612b1c611bee565b1515612b90576040517f08c379a00000000000000000000000000000000000000000000000000000000081526004018080602001828103825260208152602001807f4f776e61626c653a2063616c6c6572206973206e6f7420746865206f776e657281525060200191505060405180910390fd5b612ba483600c613b1390919063ffffffff16565b612bb882600c613c1590919063ffffffff16565b81600960006101000a81548173ffffffffffffffffffffffffffffffffffffffff021916908373ffffffffffffffffffffffffffffffffffffffff1602179055506001905092915050565b600080600860009054906101000a900473ffffffffffffffffffffffffffffffffffffffff1690508073ffffffffffffffffffffffffffffffffffffffff16639f8a13d7336040518263ffffffff167c0100000000000000000000000000000000000000000000000000000000028152600401808273ffffffffffffffffffffffffffffffffffffffff1673ffffffffffffffffffffffffffffffffffffffff16815260200191505060206040518083038186803b158015612cc457600080fd5b505afa158015612cd8573d6000803e3d6000fd5b505050506040513d6020811015612cee57600080fd5b81019080805190602001909291905050501515612d73576040517f08c379a00000000000000000000000000000000000000000000000000000000081526004018080602001828103825260138152602001807f55736572206973206e6f74206163746976652e0000000000000000000000000081525060200191505060405180910390fd5b612d803333878787613eb9565b9150509392505050565b6000600160008473ffffffffffffffffffffffffffffffffffffffff1673ffffffffffffffffffffffffffffffffffffffff16815260200190815260200160002060008373ffffffffffffffffffffffffffffffffffffffff1673ffffffffffffffffffffffffffffffffffffffff16815260200190815260200160002054905092915050565b612e19611bee565b1515612e8d576040517f08c379a00000000000000000000000000000000000000000000000000000000081526004018080602001828103825260208152602001807f4f776e61626c653a2063616c6c6572206973206e6f7420746865206f776e657281525060200191505060405180910390fd5b612e96816149ae565b50565b600033905090565b600073ffffffffffffffffffffffffffffffffffffffff168373ffffffffffffffffffffffffffffffffffffffff1614151515612f6c576040517f08c379a00000000000000000000000000000000000000000000000000000000081526004018080602001828103825260248152602001807f45524332303a20617070726f76652066726f6d20746865207a65726f2061646481526020017f726573730000000000000000000000000000000000000000000000000000000081525060400191505060405180910390fd5b600073ffffffffffffffffffffffffffffffffffffffff168273ffffffffffffffffffffffffffffffffffffffff1614151515613037576040517f08c379a00000000000000000000000000000000000000000000000000000000081526004018080602001828103825260228152602001807f45524332303a20617070726f766520746f20746865207a65726f20616464726581526020017f737300000000000000000000000000000000000000000000000000000000000081525060400191505060405180910390fd5b80600160008573ffffffffffffffffffffffffffffffffffffffff1673ffffffffffffffffffffffffffffffffffffffff16815260200190815260200160002060008473ffffffffffffffffffffffffffffffffffffffff1673ffffffffffffffffffffffffffffffffffffffff168152602001908152602001600020819055508173ffffffffffffffffffffffffffffffffffffffff168373ffffffffffffffffffffffffffffffffffffffff167f8c5be1e5ebec7d5bd14f71427d1e84f3dd0314c0f7b2291e5b200ac8c7c3b925836040518082815260200191505060405180910390a3505050565b60008073ffffffffffffffffffffffffffffffffffffffff168273ffffffffffffffffffffffffffffffffffffffff16141515156131ee576040517f08c379a00000000000000000000000000000000000000000000000000000000081526004018080602001828103825260228152602001807f526f6c65733a206163636f756e7420697320746865207a65726f20616464726581526020017f737300000000000000000000000000000000000000000000000000000000000081525060400191505060405180910390fd5b8260000160008373ffffffffffffffffffffffffffffffffffffffff1673ffffffffffffffffffffffffffffffffffffffff16815260200190815260200160002060009054906101000a900460ff16905092915050565b600073ffffffffffffffffffffffffffffffffffffffff168373ffffffffffffffffffffffffffffffffffffffff1614151515613310576040517f08c379a00000000000000000000000000000000000000000000000000000000081526004018080602001828103825260258152602001807f45524332303a207472616e736665722066726f6d20746865207a65726f20616481526020017f647265737300000000000000000000000000000000000000000000000000000081525060400191505060405180910390fd5b600073ffffffffffffffffffffffffffffffffffffffff168273ffffffffffffffffffffffffffffffffffffffff16141515156133db576040517f08c379a00000000000000000000000000000000000000000000000000000000081526004018080602001828103825260238152602001807f45524332303a207472616e7366657220746f20746865207a65726f206164647281526020017f657373000000000000000000000000000000000000000000000000000000000081525060400191505060405180910390fd5b61348a81606060405190810160405280602681526020017f45524332303a207472616e7366657220616d6f756e742065786365656473206281526020017f616c616e636500000000000000000000000000000000000000000000000000008152506000808773ffffffffffffffffffffffffffffffffffffffff1673ffffffffffffffffffffffffffffffffffffffff168152602001908152602001600020546135c99092919063ffffffff16565b6000808573ffffffffffffffffffffffffffffffffffffffff1673ffffffffffffffffffffffffffffffffffffffff1681526020019081526020016000208190555061351d816000808573ffffffffffffffffffffffffffffffffffffffff1673ffffffffffffffffffffffffffffffffffffffff1681526020019081526020016000205461368b90919063ffffffff16565b6000808473ffffffffffffffffffffffffffffffffffffffff1673ffffffffffffffffffffffffffffffffffffffff168152602001908152602001600020819055508173ffffffffffffffffffffffffffffffffffffffff168373ffffffffffffffffffffffffffffffffffffffff167fddf252ad1be2c89b69c2b068fc378daa952ba7f163c4a11628f55a4df523b3ef836040518082815260200191505060405180910390a3505050565b60008383111582901515613678576040517f08c379a00000000000000000000000000000000000000000000000000000000081526004018080602001828103825283818151815260200191508051906020019080838360005b8381101561363d578082015181840152602081019050613622565b50505050905090810190601f16801561366a5780820380516001836020036101000a031916815260200191505b509250505060405180910390fd5b5060008385039050809150509392505050565b600080828401905083811015151561370b576040517f08c379a000000000000000000000000000000000000000000000000000000000815260040180806020018281038252601b8152602001807f536166654d6174683a206164646974696f6e206f766572666c6f77000000000081525060200191505060405180910390fd5b8091505092915050565b600073ffffffffffffffffffffffffffffffffffffffff168273ffffffffffffffffffffffffffffffffffffffff16141515156137ba576040517f08c379a000000000000000000000000000000000000000000000000000000000815260040180806020018281038252601f8152602001807f45524332303a206d696e7420746f20746865207a65726f20616464726573730081525060200191505060405180910390fd5b6137cf8160025461368b90919063ffffffff16565b600281905550613826816000808573ffffffffffffffffffffffffffffffffffffffff1673ffffffffffffffffffffffffffffffffffffffff1681526020019081526020016000205461368b90919063ffffffff16565b6000808473ffffffffffffffffffffffffffffffffffffffff1673ffffffffffffffffffffffffffffffffffffffff168152602001908152602001600020819055508173ffffffffffffffffffffffffffffffffffffffff16600073ffffffffffffffffffffffffffffffffffffffff167fddf252ad1be2c89b69c2b068fc378daa952ba7f163c4a11628f55a4df523b3ef836040518082815260200191505060405180910390a35050565b600073ffffffffffffffffffffffffffffffffffffffff168273ffffffffffffffffffffffffffffffffffffffff161415151561399d576040517f08c379a00000000000000000000000000000000000000000000000000000000081526004018080602001828103825260218152602001807f45524332303a206275726e2066726f6d20746865207a65726f2061646472657381526020017f730000000000000000000000000000000000000000000000000000000000000081525060400191505060405180910390fd5b613a4c81606060405190810160405280602281526020017f45524332303a206275726e20616d6f756e7420657863656564732062616c616e81526020017f63650000000000000000000000000000000000000000000000000000000000008152506000808673ffffffffffffffffffffffffffffffffffffffff1673ffffffffffffffffffffffffffffffffffffffff168152602001908152602001600020546135c99092919063ffffffff16565b6000808473ffffffffffffffffffffffffffffffffffffffff1673ffffffffffffffffffffffffffffffffffffffff16815260200190815260200160002081905550613aa38160025461496490919063ffffffff16565b600281905550600073ffffffffffffffffffffffffffffffffffffffff168273ffffffffffffffffffffffffffffffffffffffff167fddf252ad1be2c89b69c2b068fc378daa952ba7f163c4a11628f55a4df523b3ef836040518082815260200191505060405180910390a35050565b613b1d8282613122565b1515613bb7576040517f08c379a00000000000000000000000000000000000000000000000000000000081526004018080602001828103825260218152602001807f526f6c65733a206163636f756e7420646f6573206e6f74206861766520726f6c81526020017f650000000000000000000000000000000000000000000000000000000000000081525060400191505060405180910390fd5b60008260000160008373ffffffffffffffffffffffffffffffffffffffff1673ffffffffffffffffffffffffffffffffffffffff16815260200190815260200160002060006101000a81548160ff0219169083151502179055505050565b613c1f8282613122565b151515613c94576040517f08c379a000000000000000000000000000000000000000000000000000000000815260040180806020018281038252601f8152602001807f526f6c65733a206163636f756e7420616c72656164792068617320726f6c650081525060200191505060405180910390fd5b60018260000160008373ffffffffffffffffffffffffffffffffffffffff1673ffffffffffffffffffffffffffffffffffffffff16815260200190815260200160002060006101000a81548160ff0219169083151502179055505050565b613cfc82826138d2565b613e0182613d08612e99565b613dfc84606060405190810160405280602481526020017f45524332303a206275726e20616d6f756e74206578636565647320616c6c6f7781526020017f616e636500000000000000000000000000000000000000000000000000000000815250600160008973ffffffffffffffffffffffffffffffffffffffff1673ffffffffffffffffffffffffffffffffffffffff1681526020019081526020016000206000613db2612e99565b73ffffffffffffffffffffffffffffffffffffffff1673ffffffffffffffffffffffffffffffffffffffff168152602001908152602001600020546135c99092919063ffffffff16565b612ea1565b5050565b613e19816006613c1590919063ffffffff16565b8073ffffffffffffffffffffffffffffffffffffffff167f6ae172837ea30b801fbfcdd4108aa1d5bf8ff775444fd70256b44e6bf3dfc3f660405160405180910390a250565b613e73816006613b1390919063ffffffff16565b8073ffffffffffffffffffffffffffffffffffffffff167fe94479a9f7e1952cc78f2d6baab678adc1b772d936c6583def489e524cb6669260405160405180910390a250565b600080600860009054906101000a900473ffffffffffffffffffffffffffffffffffffffff1690506000600a60009054906101000a900473ffffffffffffffffffffffffffffffffffffffff1690506000613fb0878473ffffffffffffffffffffffffffffffffffffffff16632533c95f6040518163ffffffff167c010000000000000000000000000000000000000000000000000000000002815260040160206040518083038186803b158015613f7057600080fd5b505afa158015613f84573d6000803e3d6000fd5b505050506040513d6020811015613f9a57600080fd5b8101908080519060200190929190505050612d8a565b9050613fba615e6e565b8273ffffffffffffffffffffffffffffffffffffffff1663f4fc0a386040518163ffffffff167c0100000000000000000000000000000000000000000000000000000000028152600401604080518083038186803b15801561401b57600080fd5b505afa15801561402f573d6000803e3d6000fd5b505050506040513d601f19601f82011682018060405250604081101561405457600080fd5b810190809190505090506000808473ffffffffffffffffffffffffffffffffffffffff166376884cca8b6040518263ffffffff167c0100000000000000000000000000000000000000000000000000000000028152600401808273ffffffffffffffffffffffffffffffffffffffff1673ffffffffffffffffffffffffffffffffffffffff16815260200191505060206040518083038186803b1580156140fa57600080fd5b505afa15801561410e573d6000803e3d6000fd5b505050506040513d602081101561412457600080fd5b810190808051906020019092919050505015614561576000600b60009054906101000a900473ffffffffffffffffffffffffffffffffffffffff16905061416c8c8c8c613245565b8073ffffffffffffffffffffffffffffffffffffffff16632fc761e98d8d308e6040518563ffffffff167c010000000000000000000000000000000000000000000000000000000002815260040180806020018673ffffffffffffffffffffffffffffffffffffffff1673ffffffffffffffffffffffffffffffffffffffff1681526020018573ffffffffffffffffffffffffffffffffffffffff1673ffffffffffffffffffffffffffffffffffffffff1681526020018473ffffffffffffffffffffffffffffffffffffffff1673ffffffffffffffffffffffffffffffffffffffff168152602001838152602001828103825260088152602001807f7472616e7366657200000000000000000000000000000000000000000000000081525060200195505050505050602060405180830381600087803b1580156142b057600080fd5b505af11580156142c4573d6000803e3d6000fd5b505050506040513d60208110156142da57600080fd5b810190808051906020019092919050505091506143388460016002811015156142ff57fe5b602002015161432a86600060028110151561431657fe5b60200201518d61484d90919063ffffffff16565b61491a90919063ffffffff16565b92506143448c84614b39565b506143fe8b8873ffffffffffffffffffffffffffffffffffffffff16632533c95f6040518163ffffffff167c010000000000000000000000000000000000000000000000000000000002815260040160206040518083038186803b1580156143ab57600080fd5b505afa1580156143bf573d6000803e3d6000fd5b505050506040513d60208110156143d557600080fd5b81019080805190602001909291905050506143f9868961368b90919063ffffffff16565b612ea1565b7f09953225f2bf7af7e47242f2d0915e6001f02ffc99519eac74d532fdcc4bdf6582614428611e05565b8e8e8e600060405180878152602001806020018673ffffffffffffffffffffffffffffffffffffffff1673ffffffffffffffffffffffffffffffffffffffff1681526020018573ffffffffffffffffffffffffffffffffffffffff1673ffffffffffffffffffffffffffffffffffffffff16815260200184815260200183815260200180602001838103835288818151815260200191508051906020019080838360005b838110156144e75780820151818401526020810190506144cc565b50505050905090810190601f1680156145145780820380516001836020036101000a031916815260200191505b508381038252600b8152602001807f4332435472616e736665720000000000000000000000000000000000000000008152506020019850505050505050505060405180910390a150614764565b614569615e6e565b6146266060604051908101604052808f73ffffffffffffffffffffffffffffffffffffffff1673ffffffffffffffffffffffffffffffffffffffff1681526020018e73ffffffffffffffffffffffffffffffffffffffff1673ffffffffffffffffffffffffffffffffffffffff1681526020018d73ffffffffffffffffffffffffffffffffffffffff1673ffffffffffffffffffffffffffffffffffffffff1681525060408051908101604052808d81526020018c815250614d86565b905080600160028110151561463757fe5b6020020151915061469c84600160028110151561465057fe5b602002015161468e86600060028110151561466757fe5b602002015184600060028110151561467b57fe5b602002015161484d90919063ffffffff16565b61491a90919063ffffffff16565b92506146a88c84614b39565b506147628b8873ffffffffffffffffffffffffffffffffffffffff16632533c95f6040518163ffffffff167c010000000000000000000000000000000000000000000000000000000002815260040160206040518083038186803b15801561470f57600080fd5b505afa158015614723573d6000803e3d6000fd5b505050506040513d602081101561473957600080fd5b810190808051906020019092919050505061475d868961368b90919063ffffffff16565b612ea1565b505b8573ffffffffffffffffffffffffffffffffffffffff1663d5af1cf28b6040518263ffffffff167c0100000000000000000000000000000000000000000000000000000000028152600401808273ffffffffffffffffffffffffffffffffffffffff1673ffffffffffffffffffffffffffffffffffffffff168152602001915050602060405180830381600087803b1580156147ff57600080fd5b505af1158015614813573d6000803e3d6000fd5b505050506040513d602081101561482957600080fd5b81019080805190602001909291905050505080965050505050505095945050505050565b6000808314156148605760009050614914565b6000828402905082848281151561487357fe5b0414151561490f576040517f08c379a00000000000000000000000000000000000000000000000000000000081526004018080602001828103825260218152602001807f536166654d6174683a206d756c7469706c69636174696f6e206f766572666c6f81526020017f770000000000000000000000000000000000000000000000000000000000000081525060400191505060405180910390fd5b809150505b92915050565b600061495c83836040805190810160405280601a81526020017f536166654d6174683a206469766973696f6e206279207a65726f000000000000815250615da4565b905092915050565b60006149a683836040805190810160405280601e81526020017f536166654d6174683a207375627472616374696f6e206f766572666c6f7700008152506135c9565b905092915050565b600073ffffffffffffffffffffffffffffffffffffffff168173ffffffffffffffffffffffffffffffffffffffff1614151515614a79576040517f08c379a00000000000000000000000000000000000000000000000000000000081526004018080602001828103825260268152602001807f4f776e61626c653a206e6577206f776e657220697320746865207a65726f206181526020017f646472657373000000000000000000000000000000000000000000000000000081525060400191505060405180910390fd5b8073ffffffffffffffffffffffffffffffffffffffff16600760009054906101000a900473ffffffffffffffffffffffffffffffffffffffff1673ffffffffffffffffffffffffffffffffffffffff167f8be0079c531659141344cd1fd0a4f28419497f9722a3daafe3b4186f6b6457e060405160405180910390a380600760006101000a81548173ffffffffffffffffffffffffffffffffffffffff021916908373ffffffffffffffffffffffffffffffffffffffff16021790555050565b600080600860009054906101000a900473ffffffffffffffffffffffffffffffffffffffff1690506000614c09858373ffffffffffffffffffffffffffffffffffffffff16632533c95f6040518163ffffffff167c010000000000000000000000000000000000000000000000000000000002815260040160206040518083038186803b158015614bc957600080fd5b505afa158015614bdd573d6000803e3d6000fd5b505050506040513d6020811015614bf357600080fd5b8101908080519060200190929190505050612d8a565b905083811115614cd157614ccc858373ffffffffffffffffffffffffffffffffffffffff16632533c95f6040518163ffffffff167c010000000000000000000000000000000000000000000000000000000002815260040160206040518083038186803b158015614c7957600080fd5b505afa158015614c8d573d6000803e3d6000fd5b505050506040513d6020811015614ca357600080fd5b8101908080519060200190929190505050614cc7878561496490919063ffffffff16565b612ea1565b614d7a565b614d79858373ffffffffffffffffffffffffffffffffffffffff16632533c95f6040518163ffffffff167c010000000000000000000000000000000000000000000000000000000002815260040160206040518083038186803b158015614d3757600080fd5b505afa158015614d4b573d6000803e3d6000fd5b505050506040513d6020811015614d6157600080fd5b81019080805190602001909291905050506000612ea1565b5b60019250505092915050565b614d8e615e6e565b6000600860009054906101000a900473ffffffffffffffffffffffffffffffffffffffff1690506000600b60009054906101000a900473ffffffffffffffffffffffffffffffffffffffff1690506000600a60009054906101000a900473ffffffffffffffffffffffffffffffffffffffff16905060008173ffffffffffffffffffffffffffffffffffffffff166304bd0d60886002600381101515614e3057fe5b6020020151886000600281101515614e4457fe5b60200201516040518363ffffffff167c0100000000000000000000000000000000000000000000000000000000028152600401808373ffffffffffffffffffffffffffffffffffffffff1673ffffffffffffffffffffffffffffffffffffffff1681526020018281526020019250505060206040518083038186803b158015614ecc57600080fd5b505afa158015614ee0573d6000803e3d6000fd5b505050506040513d6020811015614ef657600080fd5b81019080805190602001909291905050509050600081876000600281101515614f1b57fe5b602002015103905060008573ffffffffffffffffffffffffffffffffffffffff1663b8d04f4e8a6000600381101515614f5057fe5b60200201516040518263ffffffff167c0100000000000000000000000000000000000000000000000000000000028152600401808273ffffffffffffffffffffffffffffffffffffffff1673ffffffffffffffffffffffffffffffffffffffff16815260200191505060206040518083038186803b158015614fd157600080fd5b505afa158015614fe5573d6000803e3d6000fd5b505050506040513d6020811015614ffb57600080fd5b8101908080519060200190929190505050905060008673ffffffffffffffffffffffffffffffffffffffff1663b8d04f4e8b600260038110151561503b57fe5b60200201516040518263ffffffff167c0100000000000000000000000000000000000000000000000000000000028152600401808273ffffffffffffffffffffffffffffffffffffffff1673ffffffffffffffffffffffffffffffffffffffff16815260200191505060206040518083038186803b1580156150bc57600080fd5b505afa1580156150d0573d6000803e3d6000fd5b505050506040513d60208110156150e657600080fd5b81019080805190602001909291905050509050615101615eb3565b8573ffffffffffffffffffffffffffffffffffffffff1663731d784e8685856040518463ffffffff167c0100000000000000000000000000000000000000000000000000000000028152600401808481526020018373ffffffffffffffffffffffffffffffffffffffff1673ffffffffffffffffffffffffffffffffffffffff1681526020018273ffffffffffffffffffffffffffffffffffffffff1673ffffffffffffffffffffffffffffffffffffffff168152602001935050505060a06040518083038186803b1580156151d657600080fd5b505afa1580156151ea573d6000803e3d6000fd5b505050506040513d601f19601f8201168201806040525060a081101561520f57600080fd5b81019080919050509050600081600060058110151561522a57fe5b60200201511415156153a1576152678b600160038110151561524857fe5b60200201518483600060058110151561525d57fe5b6020020151613245565b7fa06cf4011bf6b6838c7e4e7d3a4f151b4d061f1d75dd53bd9046cb4199a1eb84838c600060038110151561529857fe5b60200201518360006005811015156152ac57fe5b60200201516152b9611e05565b604051808573ffffffffffffffffffffffffffffffffffffffff1673ffffffffffffffffffffffffffffffffffffffff1681526020018473ffffffffffffffffffffffffffffffffffffffff1673ffffffffffffffffffffffffffffffffffffffff16815260200183815260200180602001828103825283818151815260200191508051906020019080838360005b83811015615363578082015181840152602081019050615348565b50505050905090810190601f1680156153905780820380516001836020036101000a031916815260200191505b509550505050505060405180910390a15b60008160016005811015156153b257fe5b6020020151141515615529576153ef8b60016003811015156153d057fe5b6020020151838360016005811015156153e557fe5b6020020151613245565b7fa06cf4011bf6b6838c7e4e7d3a4f151b4d061f1d75dd53bd9046cb4199a1eb84828c600260038110151561542057fe5b602002015183600160058110151561543457fe5b6020020151615441611e05565b604051808573ffffffffffffffffffffffffffffffffffffffff1673ffffffffffffffffffffffffffffffffffffffff1681526020018473ffffffffffffffffffffffffffffffffffffffff1673ffffffffffffffffffffffffffffffffffffffff16815260200183815260200180602001828103825283818151815260200191508051906020019080838360005b838110156154eb5780820151818401526020810190506154d0565b50505050905090810190601f1680156155185780820380516001836020036101000a031916815260200191505b509550505050505060405180910390a15b6155f68b600160038110151561553b57fe5b60200201518973ffffffffffffffffffffffffffffffffffffffff16635115b66f6040518163ffffffff167c010000000000000000000000000000000000000000000000000000000002815260040160206040518083038186803b1580156155a257600080fd5b505afa1580156155b6573d6000803e3d6000fd5b505050506040513d60208110156155cc57600080fd5b81019080805190602001909291905050508360026005811015156155ec57fe5b6020020151613245565b6156e18b600160038110151561560857fe5b60200201518773ffffffffffffffffffffffffffffffffffffffff1663efe433388d600160028110151561563857fe5b60200201516040518263ffffffff167c01000000000000000000000000000000000000000000000000000000000281526004018082815260200191505060206040518083038186803b15801561568d57600080fd5b505afa1580156156a1573d6000803e3d6000fd5b505050506040513d60208110156156b757600080fd5b81019080805190602001909291905050508360036005811015156156d757fe5b6020020151613245565b6157ae8b60016003811015156156f357fe5b60200201518973ffffffffffffffffffffffffffffffffffffffff16632533c95f6040518163ffffffff167c010000000000000000000000000000000000000000000000000000000002815260040160206040518083038186803b15801561575a57600080fd5b505afa15801561576e573d6000803e3d6000fd5b505050506040513d602081101561578457600080fd5b81019080805190602001909291905050508360046005811015156157a457fe5b6020020151613245565b6157df8b60016003811015156157c057fe5b60200201518c60026003811015156157d457fe5b602002015186613245565b60008773ffffffffffffffffffffffffffffffffffffffff16632fc761e98d600060038110151561580c57fe5b60200201518e600260038110151561582057fe5b602002015130896040518563ffffffff167c010000000000000000000000000000000000000000000000000000000002815260040180806020018673ffffffffffffffffffffffffffffffffffffffff1673ffffffffffffffffffffffffffffffffffffffff1681526020018573ffffffffffffffffffffffffffffffffffffffff1673ffffffffffffffffffffffffffffffffffffffff1681526020018473ffffffffffffffffffffffffffffffffffffffff1673ffffffffffffffffffffffffffffffffffffffff168152602001838152602001828103825260088152602001807f7472616e7366657200000000000000000000000000000000000000000000000081525060200195505050505050602060405180830381600087803b15801561594b57600080fd5b505af115801561595f573d6000803e3d6000fd5b505050506040513d602081101561597557600080fd5b810190808051906020019092919050505090508873ffffffffffffffffffffffffffffffffffffffff16631a2f71678d60026003811015156159b357fe5b60200201516040518263ffffffff167c0100000000000000000000000000000000000000000000000000000000028152600401808273ffffffffffffffffffffffffffffffffffffffff1673ffffffffffffffffffffffffffffffffffffffff16815260200191505060206040518083038186803b158015615a3457600080fd5b505afa158015615a48573d6000803e3d6000fd5b505050506040513d6020811015615a5e57600080fd5b810190808051906020019092919050505015615bfb577f09953225f2bf7af7e47242f2d0915e6001f02ffc99519eac74d532fdcc4bdf6581615a9e611e05565b8e6000600381101515615aad57fe5b60200201518f6002600381101515615ac157fe5b6020020151898b60405180878152602001806020018673ffffffffffffffffffffffffffffffffffffffff1673ffffffffffffffffffffffffffffffffffffffff1681526020018573ffffffffffffffffffffffffffffffffffffffff1673ffffffffffffffffffffffffffffffffffffffff16815260200184815260200183815260200180602001838103835288818151815260200191508051906020019080838360005b83811015615b82578082015181840152602081019050615b67565b50505050905090810190601f168015615baf5780820380516001836020036101000a031916815260200191505b508381038252600b8152602001807f43324d5472616e736665720000000000000000000000000000000000000000008152506020019850505050505050505060405180910390a1615d7e565b7f09953225f2bf7af7e47242f2d0915e6001f02ffc99519eac74d532fdcc4bdf6581615c25611e05565b8e6000600381101515615c3457fe5b60200201518f6002600381101515615c4857fe5b6020020151898b60405180878152602001806020018673ffffffffffffffffffffffffffffffffffffffff1673ffffffffffffffffffffffffffffffffffffffff1681526020018573ffffffffffffffffffffffffffffffffffffffff1673ffffffffffffffffffffffffffffffffffffffff16815260200184815260200183815260200180602001838103835288818151815260200191508051906020019080838360005b83811015615d09578082015181840152602081019050615cee565b50505050905090810190601f168015615d365780820380516001836020036101000a031916815260200191505b508381038252600b8152602001807f4332435472616e736665720000000000000000000000000000000000000000008152506020019850505050505050505060405180910390a15b604080519081016040528086815260200182815250995050505050505050505092915050565b600080831182901515615e52576040517f08c379a00000000000000000000000000000000000000000000000000000000081526004018080602001828103825283818151815260200191508051906020019080838360005b83811015615e17578082015181840152602081019050615dfc565b50505050905090810190601f168015615e445780820380516001836020036101000a031916815260200191505b509250505060405180910390fd5b5060008385811515615e6057fe5b049050809150509392505050565b6040805190810160405280600290602082028038833980820191505090505090565b606060405190810160405280600390602082028038833980820191505090505090565b60a06040519081016040528060059060208202803883398082019150509050509056fea165627a7a723058200391dbc534f46140c88397ecf19c963315e49d866b31e48819210652fa90a4420029",
  "source": "pragma solidity ^0.5.0;\n\nimport \"@openzeppelin/contracts/token/ERC20/ERC20.sol\";\nimport \"@openzeppelin/contracts/token/ERC20/ERC20Detailed.sol\";\nimport \"@openzeppelin/contracts/token/ERC20/ERC20Mintable.sol\";\nimport \"@openzeppelin/contracts/token/ERC20/ERC20Burnable.sol\";\nimport \"@openzeppelin/contracts/access/Roles.sol\";\nimport \"@openzeppelin/contracts/ownership/Ownable.sol\";\nimport \"./Events.sol\";\n\ncontract UsersInstance {\n    address public InOnePlaceWallet;\n    address public PrizeDrawWallet;\n    function isActive(address userAddress) public view returns (bool);\n    function getReferrerAddress(address userAddress) public view returns (address);\n    function isMerchant(address userAddress) public view returns (bool);\n    function decrementFreeTransactions(address userAddress) public returns (bool);\n}\n\ncontract DigitallInstance {\n    function getPurchaseWithCreditCardFeeValues() public view returns (uint256[3] memory);\n    function getPurchaseWithCryptoFeeValues() public view returns (uint256[3] memory);\n    function getPurchaseWithEurCreditCardFeeValues() public view returns (uint256[3] memory);\n    function getStorageFeeValues() public view returns (uint256[2] memory);\n    function determineFeeSplit(\n        uint256 fee,\n        address fromReferrerAddress,\n        address toReferrerAddress\n    ) public pure returns (uint256[5] memory);\n    function calculateTransactionFee( address userAddress, uint256 value) public view returns (uint256);\n    function determineTransactionFree(address userAddress) public view returns (bool);\n    function determineWinner(uint256 salt) public view returns (address);\n}\n\ncontract RefundInstance {\n    function addTransaction(\n        string memory transactionType,\n        address sender,\n        address recipient,\n        address tokenAddress,\n        uint256 amount\n    ) public returns (uint256);\n}\n\ncontract AssetToken is\n    ERC20,\n    ERC20Detailed,\n    ERC20Mintable,\n    ERC20Burnable,\n    Ownable,\n    Events\n{\n    uint8 constant DECIMALS = 6;\n    address public UsersContractAddress;\n    address public ExchangeContractAddress;\n    address public DigitallContractAddress;\n    address public RefundContractAddress;\n\n    using Roles for Roles.Role;\n    Roles.Role digitallContracts;\n\n    constructor(\n        string memory name,\n        string memory symbol,\n        address exchangeAddress,\n        address usersAddress,\n        address digitallAddress,\n        address refundAddress\n    )\n        ERC20Burnable()\n        ERC20Mintable()\n        ERC20Detailed(name, symbol, DECIMALS)\n        ERC20()\n        public\n    {\n        ExchangeContractAddress = exchangeAddress;\n        UsersContractAddress = usersAddress;\n        DigitallContractAddress = digitallAddress;\n        RefundContractAddress = refundAddress;\n    }\n\n    modifier onlyDigitallContracts() {\n        require(digitallContracts.has(msg.sender), \"Caller is a Digitall contract.\");\n        _;\n    }\n\n    modifier active() {\n        UsersInstance u = UsersInstance(UsersContractAddress);\n        require(u.isActive(msg.sender), \"User is not active.\");\n        _;\n    }\n\n    function addDigitallContracts(address[] memory newContracts) public onlyOwner {\n        for(uint i = 0; i < newContracts.length; i++) {\n            digitallContracts.add(newContracts[i]);\n        }\n    }\n\n    function changeDigitallContractAddress(address oldAddress, address newAddress)\n        public\n        onlyOwner\n        returns (bool)\n    {\n        digitallContracts.remove(oldAddress);\n        digitallContracts.add(newAddress);\n        DigitallContractAddress = newAddress;\n        return true;\n    }\n\n    function changeExchangeContractAddress(address oldAddress, address newAddress)\n        public\n        onlyOwner\n        returns (bool)\n    {\n        digitallContracts.remove(oldAddress);\n        digitallContracts.add(newAddress);\n        ExchangeContractAddress = newAddress;\n        return true;\n    }\n\n    function changeUsersContractAddress(address oldAddress, address newAddress)\n        public\n        onlyOwner\n        returns (bool)\n    {\n        digitallContracts.remove(oldAddress);\n        digitallContracts.add(newAddress);\n        UsersContractAddress = newAddress;\n        return true;\n    }\n\n    function changeRefundContractAddress(address oldAddress, address newAddress)\n        public\n        onlyOwner\n        returns (bool)\n    {\n        digitallContracts.remove(oldAddress);\n        digitallContracts.add(newAddress);\n        RefundContractAddress = newAddress;\n        return true;\n    }\n\n    function transferFrom(address sender, address recipient, uint256 amount)\n        public\n        onlyDigitallContracts\n        returns (bool)\n    {\n        _transfer(sender, recipient, amount);\n        uint256 allowance = allowance(sender, msg.sender);\n        _approve(sender, msg.sender, allowance.sub(amount, \"ERC20: transfer amount exceeds allowance\"));\n        return true;\n    }\n\n    function _safeDecreaseAllowance(address owner, uint256 value)\n        internal\n        returns (bool)\n    {\n        UsersInstance u = UsersInstance(UsersContractAddress);\n        uint256 allowance = allowance(owner, u.InOnePlaceWallet());\n\n        if (allowance > value) {\n            _approve(owner, u.InOnePlaceWallet(), allowance.sub(value));\n        } else {\n            _approve(owner, u.InOnePlaceWallet(), 0);\n        }\n        return true;\n    }\n\n    function purchaseTokens(address recipient, uint256 amount, uint8 source)\n        public\n        onlyMinter\n        returns (bool)\n    {\n        require(source <= 2, \"Source must be an int less than 3; 0 = US, 1 = EUR, 2 = Crypto.\");\n\n        UsersInstance u = UsersInstance(UsersContractAddress);\n        DigitallInstance d = DigitallInstance(DigitallContractAddress);\n        uint256[2] memory storageFeeValues = d.getStorageFeeValues();\n        uint256[3] memory feeValues;\n\n        if (source == 0) {feeValues = d.getPurchaseWithCreditCardFeeValues();}\n        if (source == 1) {feeValues = d.getPurchaseWithEurCreditCardFeeValues();}\n        if (source == 2) {feeValues = d.getPurchaseWithCryptoFeeValues();}\n\n        uint256 allowance = allowance(recipient, u.InOnePlaceWallet());\n        uint256 fee = amount.mul(feeValues[0]).div(feeValues[1]).add(feeValues[2]);\n        uint256 total = amount.sub(fee);\n        uint256 storageFee = total.mul(storageFeeValues[0]).div(storageFeeValues[1]);\n\n        _mint(recipient, total);\n        _mint(u.InOnePlaceWallet(), fee);\n        _approve(recipient, u.InOnePlaceWallet(), allowance.add(storageFee));\n\n        emit CreditCardPurchase(recipient, symbol(), amount, fee);\n        return true;\n    }\n\n    function _transfersWithFee(\n        address[3] memory addresses,\n        // [0] Initial Sender\n        // [1] Sender address\n        // [2] Receiver address\n        uint256[2] memory inputs\n        // [0] amount\n        // [1] salt\n    )\n        internal\n        returns (uint256[2] memory)\n    {\n        UsersInstance u = UsersInstance(UsersContractAddress);\n        RefundInstance r = RefundInstance(RefundContractAddress);\n        DigitallInstance d = DigitallInstance(DigitallContractAddress);\n\n        uint256 fee = d.calculateTransactionFee(addresses[2], inputs[0]);\n        uint256 total = inputs[0] - fee;\n        address fromReferrer = u.getReferrerAddress(addresses[0]);\n        address toReferrer = u.getReferrerAddress(addresses[2]);\n        uint256[5] memory values = d.determineFeeSplit(fee, fromReferrer, toReferrer);\n        // amounts to be transfered for:\n        // [0] fromReferrer\n        // [1] toReferrer\n        // [2] PrizeDrawWallet\n        // [3] 'Random' winner\n        // [4] InOnePlaceWallet\n\n        if (values[0] != 0) {\n            _transfer(addresses[1], fromReferrer, values[0]);\n            emit MoneyEarned(fromReferrer, addresses[0], values[0], symbol());\n        }\n        if (values[1] != 0) {\n            _transfer(addresses[1], toReferrer, values[1]);\n            emit MoneyEarned(toReferrer, addresses[2], values[1], symbol());\n        }\n        _transfer(addresses[1], u.PrizeDrawWallet(), values[2]);\n        _transfer(addresses[1], d.determineWinner(inputs[1]), values[3]);\n        _transfer(addresses[1], u.InOnePlaceWallet(), values[4]);\n        _transfer(addresses[1], addresses[2], total);\n\n        uint256 transactionId = r.addTransaction('transfer', addresses[0], addresses[2], address(this), total);\n\n        if (u.isMerchant(addresses[2])) {\n            emit CustomTransfer(transactionId, symbol(), addresses[0], addresses[2], total, fee, \"C2MTransfer\");\n        } else {\n            emit CustomTransfer(transactionId, symbol(), addresses[0], addresses[2], total, fee, \"C2CTransfer\");\n        }\n\n        return [total, transactionId];\n    }\n\n    function cashOut(uint256 amount)\n        public\n        active\n        returns (bool)\n    {\n        UsersInstance u = UsersInstance(UsersContractAddress);\n        RefundInstance r = RefundInstance(RefundContractAddress);\n\n        _transfer(msg.sender, u.InOnePlaceWallet(), amount);\n        r.addTransaction('withdrawal', msg.sender, u.InOnePlaceWallet(), address(this), amount);\n        return true;\n    }\n\n    function _doTransfers(\n        address initialSender,\n        address sender,\n        address recipient,\n        uint256 amount,\n        uint256 salt\n    )\n        internal\n        returns (uint256)\n    {\n        UsersInstance u = UsersInstance(UsersContractAddress);\n        DigitallInstance d = DigitallInstance(DigitallContractAddress);\n\n        uint256 recipientAllowance = allowance(recipient, u.InOnePlaceWallet());\n        uint256[2] memory storageFeeValues = d.getStorageFeeValues();\n        uint256 storageFee;\n        uint256 transactionId;\n\n        if (d.determineTransactionFree(recipient)) {\n            RefundInstance r = RefundInstance(RefundContractAddress);\n            _transfer(sender, recipient, amount);\n            transactionId = r.addTransaction('transfer', sender, recipient, address(this), amount);\n            storageFee = amount.mul(storageFeeValues[0]).div(storageFeeValues[1]);\n            _safeDecreaseAllowance(sender, storageFee);\n            _approve(recipient, u.InOnePlaceWallet(), recipientAllowance.add(storageFee));\n            emit CustomTransfer(transactionId, symbol(), sender, recipient, amount, 0, \"C2CTransfer\");\n        } else {\n            uint256[2] memory ret = _transfersWithFee([initialSender, sender, recipient], [amount, salt]);\n            transactionId = ret[1];\n            storageFee = ret[0].mul(storageFeeValues[0]).div(storageFeeValues[1]);\n            _safeDecreaseAllowance(sender, storageFee);\n            _approve(recipient, u.InOnePlaceWallet(), recipientAllowance.add(storageFee));\n        }\n\n        u.decrementFreeTransactions(recipient);\n        return transactionId;\n    }\n\n    function digitallTransfer(address to, uint256 value, uint256 salt)\n        public\n        active\n        returns (uint256)\n    {\n        return _doTransfers(msg.sender, msg.sender, to, value, salt);\n    }\n\n    function transfer(address recipient, uint256 amount)\n        public\n        onlyOwner\n        returns (bool)\n    {\n        _transfer(msg.sender, recipient, amount);\n        return true;\n    }\n\n    function digitallWithdrawTo(address from, address to, uint256 value, uint256 salt)\n        public\n        onlyDigitallContracts\n        returns (bool)\n    {\n        _doTransfers(from, address(this), to, value, salt);\n        return true;\n    }\n\n    function withdrawTo(address recipient, uint256 amount)\n        public\n        onlyDigitallContracts\n        returns (bool)\n    {\n        _transfer(address(this), recipient, amount);\n        return true;\n    }\n}\n",
  "sourcePath": "/Users/andy/coding/digitall-contracts/contracts/AssetToken.sol",
  "compiler": {
    "name": "solc",
    "version": "0.5.0+commit.1d4f565a.Emscripten.clang"
  },
  "schemaVersion": "3.0.19",
  "updatedAt": "2020-06-18T21:27:49.457Z",
  "networkType": "ethereum",
  "devdoc": {
    "methods": {
      "allowance(address,address)": {
        "details": "See {IERC20-allowance}."
      },
      "approve(address,uint256)": {
        "details": "See {IERC20-approve}.     * Requirements:     * - `spender` cannot be the zero address."
      },
      "balanceOf(address)": {
        "details": "See {IERC20-balanceOf}."
      },
      "burn(uint256)": {
        "details": "Destroys `amount` tokens from the caller.     * See {ERC20-_burn}."
      },
      "burnFrom(address,uint256)": {
        "details": "See {ERC20-_burnFrom}."
      },
      "decimals()": {
        "details": "Returns the number of decimals used to get its user representation. For example, if `decimals` equals `2`, a balance of `505` tokens should be displayed to a user as `5,05` (`505 / 10 ** 2`).     * Tokens usually opt for a value of 18, imitating the relationship between Ether and Wei.     * NOTE: This information is only used for _display_ purposes: it in no way affects any of the arithmetic of the contract, including {IERC20-balanceOf} and {IERC20-transfer}."
      },
      "decreaseAllowance(address,uint256)": {
        "details": "Atomically decreases the allowance granted to `spender` by the caller.     * This is an alternative to {approve} that can be used as a mitigation for problems described in {IERC20-approve}.     * Emits an {Approval} event indicating the updated allowance.     * Requirements:     * - `spender` cannot be the zero address. - `spender` must have allowance for the caller of at least `subtractedValue`."
      },
      "increaseAllowance(address,uint256)": {
        "details": "Atomically increases the allowance granted to `spender` by the caller.     * This is an alternative to {approve} that can be used as a mitigation for problems described in {IERC20-approve}.     * Emits an {Approval} event indicating the updated allowance.     * Requirements:     * - `spender` cannot be the zero address."
      },
      "isOwner()": {
        "details": "Returns true if the caller is the current owner."
      },
      "mint(address,uint256)": {
        "details": "See {ERC20-_mint}.     * Requirements:     * - the caller must have the {MinterRole}."
      },
      "name()": {
        "details": "Returns the name of the token."
      },
      "owner()": {
        "details": "Returns the address of the current owner."
      },
      "renounceOwnership()": {
        "details": "Leaves the contract without owner. It will not be possible to call `onlyOwner` functions anymore. Can only be called by the current owner.     * NOTE: Renouncing ownership will leave the contract without an owner, thereby removing any functionality that is only available to the owner."
      },
      "symbol()": {
        "details": "Returns the symbol of the token, usually a shorter version of the name."
      },
      "totalSupply()": {
        "details": "See {IERC20-totalSupply}."
      },
      "transferOwnership(address)": {
        "details": "Transfers ownership of the contract to a new account (`newOwner`). Can only be called by the current owner."
      }
    }
  },
  "userdoc": {
    "methods": {}
  }
}