{
  "contractName": "Digitall",
  "abi": [
    {
      "constant": false,
      "inputs": [],
      "name": "renounceOwnership",
      "outputs": [],
      "payable": false,
      "stateMutability": "nonpayable",
      "type": "function"
    },
    {
      "constant": true,
      "inputs": [],
      "name": "owner",
      "outputs": [
        {
          "name": "",
          "type": "address"
        }
      ],
      "payable": false,
      "stateMutability": "view",
      "type": "function"
    },
    {
      "constant": true,
      "inputs": [],
      "name": "isOwner",
      "outputs": [
        {
          "name": "",
          "type": "bool"
        }
      ],
      "payable": false,
      "stateMutability": "view",
      "type": "function"
    },
    {
      "constant": false,
      "inputs": [
        {
          "name": "newOwner",
          "type": "address"
        }
      ],
      "name": "transferOwnership",
      "outputs": [],
      "payable": false,
      "stateMutability": "nonpayable",
      "type": "function"
    },
    {
      "inputs": [
        {
          "name": "usersAddress",
          "type": "address"
        }
      ],
      "payable": false,
      "stateMutability": "nonpayable",
      "type": "constructor"
    },
    {
      "anonymous": false,
      "inputs": [
        {
          "indexed": false,
          "name": "userAddress",
          "type": "address"
        }
      ],
      "name": "NewUser",
      "type": "event"
    },
    {
      "anonymous": false,
      "inputs": [
        {
          "indexed": false,
          "name": "value",
          "type": "uint256"
        },
        {
          "indexed": false,
          "name": "symbol",
          "type": "string"
        }
      ],
      "name": "Deposit",
      "type": "event"
    },
    {
      "anonymous": false,
      "inputs": [
        {
          "indexed": false,
          "name": "userAddress",
          "type": "address"
        },
        {
          "indexed": false,
          "name": "referredAddress",
          "type": "address"
        },
        {
          "indexed": false,
          "name": "amount",
          "type": "uint256"
        },
        {
          "indexed": false,
          "name": "symbol",
          "type": "string"
        }
      ],
      "name": "MoneyEarned",
      "type": "event"
    },
    {
      "anonymous": false,
      "inputs": [
        {
          "indexed": false,
          "name": "transactionId",
          "type": "uint256"
        },
        {
          "indexed": false,
          "name": "symbol",
          "type": "string"
        },
        {
          "indexed": false,
          "name": "addressFrom",
          "type": "address"
        },
        {
          "indexed": false,
          "name": "addressTo",
          "type": "address"
        },
        {
          "indexed": false,
          "name": "value",
          "type": "uint256"
        },
        {
          "indexed": false,
          "name": "fee",
          "type": "uint256"
        },
        {
          "indexed": false,
          "name": "txType",
          "type": "string"
        }
      ],
      "name": "CustomTransfer",
      "type": "event"
    },
    {
      "anonymous": false,
      "inputs": [
        {
          "indexed": false,
          "name": "fromAddress",
          "type": "address"
        },
        {
          "indexed": false,
          "name": "toAddress",
          "type": "address"
        },
        {
          "indexed": false,
          "name": "fromAmount",
          "type": "uint256"
        },
        {
          "indexed": false,
          "name": "toAmount",
          "type": "uint256"
        },
        {
          "indexed": false,
          "name": "fee",
          "type": "uint256"
        }
      ],
      "name": "Exchange",
      "type": "event"
    },
    {
      "anonymous": false,
      "inputs": [
        {
          "indexed": false,
          "name": "fromAddress",
          "type": "address"
        },
        {
          "indexed": false,
          "name": "toAddress",
          "type": "address"
        },
        {
          "indexed": false,
          "name": "fromAmount",
          "type": "uint256"
        },
        {
          "indexed": false,
          "name": "toAmount",
          "type": "uint256"
        },
        {
          "indexed": false,
          "name": "fee",
          "type": "uint256"
        },
        {
          "indexed": false,
          "name": "recipient",
          "type": "address"
        }
      ],
      "name": "ExchangeAndTransfer",
      "type": "event"
    },
    {
      "anonymous": false,
      "inputs": [
        {
          "indexed": false,
          "name": "recipient",
          "type": "address"
        },
        {
          "indexed": false,
          "name": "symbol",
          "type": "string"
        },
        {
          "indexed": false,
          "name": "value",
          "type": "uint256"
        },
        {
          "indexed": false,
          "name": "fee",
          "type": "uint256"
        }
      ],
      "name": "CreditCardPurchase",
      "type": "event"
    },
    {
      "anonymous": false,
      "inputs": [
        {
          "indexed": true,
          "name": "previousOwner",
          "type": "address"
        },
        {
          "indexed": true,
          "name": "newOwner",
          "type": "address"
        }
      ],
      "name": "OwnershipTransferred",
      "type": "event"
    },
    {
      "constant": false,
      "inputs": [
        {
          "name": "newValues",
          "type": "uint256[2]"
        }
      ],
      "name": "setFlatFeeValues",
      "outputs": [
        {
          "name": "",
          "type": "bool"
        }
      ],
      "payable": false,
      "stateMutability": "nonpayable",
      "type": "function"
    },
    {
      "constant": false,
      "inputs": [
        {
          "name": "newValues",
          "type": "uint256[3]"
        }
      ],
      "name": "setPurchaseWithCreditCardFeeValues",
      "outputs": [
        {
          "name": "",
          "type": "bool"
        }
      ],
      "payable": false,
      "stateMutability": "nonpayable",
      "type": "function"
    },
    {
      "constant": false,
      "inputs": [
        {
          "name": "newValues",
          "type": "uint256[3]"
        }
      ],
      "name": "setPurchaseWithEurCreditCardFeeValues",
      "outputs": [
        {
          "name": "",
          "type": "bool"
        }
      ],
      "payable": false,
      "stateMutability": "nonpayable",
      "type": "function"
    },
    {
      "constant": false,
      "inputs": [
        {
          "name": "newValues",
          "type": "uint256[3]"
        }
      ],
      "name": "setPurchaseWithCryptoFeeValues",
      "outputs": [
        {
          "name": "",
          "type": "bool"
        }
      ],
      "payable": false,
      "stateMutability": "nonpayable",
      "type": "function"
    },
    {
      "constant": false,
      "inputs": [
        {
          "name": "newValues",
          "type": "uint256[2]"
        }
      ],
      "name": "setStorageFeeValues",
      "outputs": [
        {
          "name": "",
          "type": "bool"
        }
      ],
      "payable": false,
      "stateMutability": "nonpayable",
      "type": "function"
    },
    {
      "constant": true,
      "inputs": [],
      "name": "getFlatFeeValues",
      "outputs": [
        {
          "name": "",
          "type": "uint256[2]"
        }
      ],
      "payable": false,
      "stateMutability": "view",
      "type": "function"
    },
    {
      "constant": true,
      "inputs": [],
      "name": "getPurchaseWithCreditCardFeeValues",
      "outputs": [
        {
          "name": "",
          "type": "uint256[3]"
        }
      ],
      "payable": false,
      "stateMutability": "view",
      "type": "function"
    },
    {
      "constant": true,
      "inputs": [],
      "name": "getPurchaseWithCryptoFeeValues",
      "outputs": [
        {
          "name": "",
          "type": "uint256[3]"
        }
      ],
      "payable": false,
      "stateMutability": "view",
      "type": "function"
    },
    {
      "constant": true,
      "inputs": [],
      "name": "getPurchaseWithEurCreditCardFeeValues",
      "outputs": [
        {
          "name": "",
          "type": "uint256[3]"
        }
      ],
      "payable": false,
      "stateMutability": "view",
      "type": "function"
    },
    {
      "constant": true,
      "inputs": [],
      "name": "getStorageFeeValues",
      "outputs": [
        {
          "name": "",
          "type": "uint256[2]"
        }
      ],
      "payable": false,
      "stateMutability": "view",
      "type": "function"
    },
    {
      "constant": true,
      "inputs": [
        {
          "name": "fee",
          "type": "uint256"
        },
        {
          "name": "fromReferrerAddress",
          "type": "address"
        },
        {
          "name": "toReferrerAddress",
          "type": "address"
        }
      ],
      "name": "determineFeeSplit",
      "outputs": [
        {
          "name": "",
          "type": "uint256[5]"
        }
      ],
      "payable": false,
      "stateMutability": "pure",
      "type": "function"
    },
    {
      "constant": true,
      "inputs": [
        {
          "name": "userAddress",
          "type": "address"
        },
        {
          "name": "amount",
          "type": "uint256"
        }
      ],
      "name": "calculateTransactionFee",
      "outputs": [
        {
          "name": "",
          "type": "uint256"
        }
      ],
      "payable": false,
      "stateMutability": "view",
      "type": "function"
    },
    {
      "constant": true,
      "inputs": [
        {
          "name": "userAddress",
          "type": "address"
        }
      ],
      "name": "determineTransactionFree",
      "outputs": [
        {
          "name": "",
          "type": "bool"
        }
      ],
      "payable": false,
      "stateMutability": "view",
      "type": "function"
    },
    {
      "constant": true,
      "inputs": [
        {
          "name": "salt",
          "type": "uint256"
        }
      ],
      "name": "determineWinner",
      "outputs": [
        {
          "name": "",
          "type": "address"
        }
      ],
      "payable": false,
      "stateMutability": "view",
      "type": "function"
    }
  ],
  "bytecode": "0x6080604052606060405190810160405280601d62ffffff1681526020016103e862ffffff168152602001620493e062ffffff168152506001906003620000479291906200027f565b50606060405190810160405280600060ff168152602001600160ff168152602001600060ff16815250600490600362000082929190620002cb565b50606060405190810160405280600762ffffff1681526020016101f462ffffff16815260200162030d4062ffffff168152506007906003620000c69291906200027f565b506040805190810160405280600160ff168152602001600a60ff16815250600a906002620000f692919062000315565b5060408051908101604052806402540be40064ffffffffff1681526020016302faf08064ffffffffff16815250600c906002620001359291906200035f565b503480156200014357600080fd5b506040516020806200226c833981018060405260208110156200016557600080fd5b810190808051906020019092919050505060006200019162000277640100000000026401000000009004565b9050806000806101000a81548173ffffffffffffffffffffffffffffffffffffffff021916908373ffffffffffffffffffffffffffffffffffffffff1602179055508073ffffffffffffffffffffffffffffffffffffffff16600073ffffffffffffffffffffffffffffffffffffffff167f8be0079c531659141344cd1fd0a4f28419497f9722a3daafe3b4186f6b6457e060405160405180910390a35080600e60006101000a81548173ffffffffffffffffffffffffffffffffffffffff021916908373ffffffffffffffffffffffffffffffffffffffff16021790555050620003d5565b600033905090565b8260038101928215620002b8579160200282015b82811115620002b7578251829062ffffff1690559160200191906001019062000293565b5b509050620002c79190620003ad565b5090565b826003810192821562000302579160200282015b8281111562000301578251829060ff16905591602001919060010190620002df565b5b509050620003119190620003ad565b5090565b82600281019282156200034c579160200282015b828111156200034b578251829060ff1690559160200191906001019062000329565b5b5090506200035b9190620003ad565b5090565b82600281019282156200039a579160200282015b8281111562000399578251829064ffffffffff1690559160200191906001019062000373565b5b509050620003a99190620003ad565b5090565b620003d291905b80821115620003ce576000816000905550600101620003b4565b5090565b90565b611e8780620003e56000396000f3fe6080604052600436106100fc576000357c0100000000000000000000000000000000000000000000000000000000900463ffffffff16806304bd0d6014610101578063252bf208146101705780632d886d1b146101c357806330f23f04146102165780634a5f44b41461026957806357cd359d146102f3578063715018a614610346578063731d784e1461035d57806376884cca146104145780638da5cb5b1461047d5780638f32d59b146104d45780638fb54cb714610503578063be2389511461058d578063cd59723814610617578063e1419122146106a1578063efe433381461072b578063f2fde38b146107a6578063f4fc0a38146107f7575b600080fd5b34801561010d57600080fd5b5061015a6004803603604081101561012457600080fd5b81019080803573ffffffffffffffffffffffffffffffffffffffff1690602001909291908035906020019092919050505061084a565b6040518082815260200191505060405180910390f35b34801561017c57600080fd5b50610185610c73565b6040518082600360200280838360005b838110156101b0578082015181840152602081019050610195565b5050505090500191505060405180910390f35b3480156101cf57600080fd5b506101d8610cbe565b6040518082600360200280838360005b838110156102035780820151818401526020810190506101e8565b5050505090500191505060405180910390f35b34801561022257600080fd5b5061022b610d09565b6040518082600360200280838360005b8381101561025657808201518184015260208101905061023b565b5050505090500191505060405180910390f35b34801561027557600080fd5b506102d96004803603606081101561028c57600080fd5b8101908080606001906003806020026040519081016040528092919082600360200280828437600081840152601f19601f8201169050808301925050505050509192919290505050610d54565b604051808215151515815260200191505060405180910390f35b3480156102ff57600080fd5b50610308610ded565b6040518082600260200280838360005b83811015610333578082015181840152602081019050610318565b5050505090500191505060405180910390f35b34801561035257600080fd5b5061035b610e38565b005b34801561036957600080fd5b506103d66004803603606081101561038057600080fd5b8101908080359060200190929190803573ffffffffffffffffffffffffffffffffffffffff169060200190929190803573ffffffffffffffffffffffffffffffffffffffff169060200190929190505050610f73565b6040518082600560200280838360005b838110156104015780820151818401526020810190506103e6565b5050505090500191505060405180910390f35b34801561042057600080fd5b506104636004803603602081101561043757600080fd5b81019080803573ffffffffffffffffffffffffffffffffffffffff16906020019092919050505061118d565b604051808215151515815260200191505060405180910390f35b34801561048957600080fd5b506104926112b1565b604051808273ffffffffffffffffffffffffffffffffffffffff1673ffffffffffffffffffffffffffffffffffffffff16815260200191505060405180910390f35b3480156104e057600080fd5b506104e96112da565b604051808215151515815260200191505060405180910390f35b34801561050f57600080fd5b506105736004803603606081101561052657600080fd5b8101908080606001906003806020026040519081016040528092919082600360200280828437600081840152601f19601f8201169050808301925050505050509192919290505050611338565b604051808215151515815260200191505060405180910390f35b34801561059957600080fd5b506105fd600480360360608110156105b057600080fd5b8101908080606001906003806020026040519081016040528092919082600360200280828437600081840152601f19601f82011690508083019250505050505091929192905050506113d1565b604051808215151515815260200191505060405180910390f35b34801561062357600080fd5b506106876004803603604081101561063a57600080fd5b8101908080604001906002806020026040519081016040528092919082600260200280828437600081840152601f19601f820116905080830192505050505050919291929050505061146a565b604051808215151515815260200191505060405180910390f35b3480156106ad57600080fd5b50610711600480360360408110156106c457600080fd5b8101908080604001906002806020026040519081016040528092919082600260200280828437600081840152601f19601f8201169050808301925050505050509192919290505050611503565b604051808215151515815260200191505060405180910390f35b34801561073757600080fd5b506107646004803603602081101561074e57600080fd5b810190808035906020019092919050505061159c565b604051808273ffffffffffffffffffffffffffffffffffffffff1673ffffffffffffffffffffffffffffffffffffffff16815260200191505060405180910390f35b3480156107b257600080fd5b506107f5600480360360208110156107c957600080fd5b81019080803573ffffffffffffffffffffffffffffffffffffffff16906020019092919050505061174e565b005b34801561080357600080fd5b5061080c6117d6565b6040518082600260200280838360005b8381101561083757808201518184015260208101905061081c565b5050505090500191505060405180910390f35b600080600e60009054906101000a900473ffffffffffffffffffffffffffffffffffffffff1690508073ffffffffffffffffffffffffffffffffffffffff16639f8a13d7856040518263ffffffff167c0100000000000000000000000000000000000000000000000000000000028152600401808273ffffffffffffffffffffffffffffffffffffffff1673ffffffffffffffffffffffffffffffffffffffff16815260200191505060206040518083038186803b15801561090b57600080fd5b505afa15801561091f573d6000803e3d6000fd5b505050506040513d602081101561093557600080fd5b810190808051906020019092919050505015156109ba576040517f08c379a00000000000000000000000000000000000000000000000000000000081526004018080602001828103825260138152602001807f4e6f7420616e2061637469766520757365722e0000000000000000000000000081525060200191505060405180910390fd5b6109c2611d2c565b8173ffffffffffffffffffffffffffffffffffffffff1663562fe8d9866040518263ffffffff167c0100000000000000000000000000000000000000000000000000000000028152600401808273ffffffffffffffffffffffffffffffffffffffff1673ffffffffffffffffffffffffffffffffffffffff168152602001915050604080518083038186803b158015610a5a57600080fd5b505afa158015610a6e573d6000803e3d6000fd5b505050506040513d601f19601f820116820180604052506040811015610a9357600080fd5b810190809190505090508173ffffffffffffffffffffffffffffffffffffffff1663cd784d1b866040518263ffffffff167c0100000000000000000000000000000000000000000000000000000000028152600401808273ffffffffffffffffffffffffffffffffffffffff1673ffffffffffffffffffffffffffffffffffffffff16815260200191505060206040518083038186803b158015610b3657600080fd5b505afa158015610b4a573d6000803e3d6000fd5b505050506040513d6020811015610b6057600080fd5b810190808051906020019092919050505015610b8157600092505050610c6d565b600c6000600281101515610b9157fe5b0154841015610bf457610beb816001600281101515610bac57fe5b602002015160ff16610bdd836000600281101515610bc657fe5b602002015160ff168761182190919063ffffffff16565b6118ee90919063ffffffff16565b92505050610c6d565b610c68600c6001600281101515610c0757fe5b0154610c5a836001600281101515610c1b57fe5b602002015160ff16610c4c856000600281101515610c3557fe5b602002015160ff168961182190919063ffffffff16565b6118ee90919063ffffffff16565b61193890919063ffffffff16565b925050505b92915050565b610c7b611d4e565b6004600380602002604051908101604052809291908260038015610cb4576020028201915b815481526020019060010190808311610ca0575b5050505050905090565b610cc6611d4e565b6001600380602002604051908101604052809291908260038015610cff576020028201915b815481526020019060010190808311610ceb575b5050505050905090565b610d11611d4e565b6007600380602002604051908101604052809291908260038015610d4a576020028201915b815481526020019060010190808311610d36575b5050505050905090565b6000610d5e6112da565b1515610dd2576040517f08c379a00000000000000000000000000000000000000000000000000000000081526004018080602001828103825260208152602001807f4f776e61626c653a2063616c6c6572206973206e6f7420746865206f776e657281525060200191505060405180910390fd5b816007906003610de3929190611d71565b5060019050919050565b610df5611db1565b600c600280602002604051908101604052809291908260028015610e2e576020028201915b815481526020019060010190808311610e1a575b5050505050905090565b610e406112da565b1515610eb4576040517f08c379a00000000000000000000000000000000000000000000000000000000081526004018080602001828103825260208152602001807f4f776e61626c653a2063616c6c6572206973206e6f7420746865206f776e657281525060200191505060405180910390fd5b600073ffffffffffffffffffffffffffffffffffffffff166000809054906101000a900473ffffffffffffffffffffffffffffffffffffffff1673ffffffffffffffffffffffffffffffffffffffff167f8be0079c531659141344cd1fd0a4f28419497f9722a3daafe3b4186f6b6457e060405160405180910390a360008060006101000a81548173ffffffffffffffffffffffffffffffffffffffff021916908373ffffffffffffffffffffffffffffffffffffffff160217905550565b610f7b611dd3565b600073ffffffffffffffffffffffffffffffffffffffff168373ffffffffffffffffffffffffffffffffffffffff1614158015610fe55750600073ffffffffffffffffffffffffffffffffffffffff168273ffffffffffffffffffffffffffffffffffffffff1614155b15611036576000601485811515610ff857fe5b0490506000600482028603905060a0604051908101604052808381526020018381526020018381526020018381526020018281525092505050611186565b600073ffffffffffffffffffffffffffffffffffffffff168373ffffffffffffffffffffffffffffffffffffffff161415156110b957600060148581151561107a57fe5b0490506000600382028603905060a060405190810160405280838152602001600081526020018381526020018381526020018281525092505050611186565b600073ffffffffffffffffffffffffffffffffffffffff168273ffffffffffffffffffffffffffffffffffffffff1614151561113c5760006014858115156110fd57fe5b0490506000600382028603905060a060405190810160405280600081526020018381526020018381526020018381526020018281525092505050611186565b600060148581151561114a57fe5b0490506000600282028603905060a060405190810160405280600081526020016000815260200183815260200183815260200182815250925050505b9392505050565b600080600e60009054906101000a900473ffffffffffffffffffffffffffffffffffffffff16905060008173ffffffffffffffffffffffffffffffffffffffff166377437dad856040518263ffffffff167c0100000000000000000000000000000000000000000000000000000000028152600401808273ffffffffffffffffffffffffffffffffffffffff1673ffffffffffffffffffffffffffffffffffffffff16815260200191505060206040518083038186803b15801561125057600080fd5b505afa158015611264573d6000803e3d6000fd5b505050506040513d602081101561127a57600080fd5b8101908080519060200190929190505050905060008161ffff1611156112a5576001925050506112ac565b6000925050505b919050565b60008060009054906101000a900473ffffffffffffffffffffffffffffffffffffffff16905090565b60008060009054906101000a900473ffffffffffffffffffffffffffffffffffffffff1673ffffffffffffffffffffffffffffffffffffffff1661131c6119c2565b73ffffffffffffffffffffffffffffffffffffffff1614905090565b60006113426112da565b15156113b6576040517f08c379a00000000000000000000000000000000000000000000000000000000081526004018080602001828103825260208152602001807f4f776e61626c653a2063616c6c6572206973206e6f7420746865206f776e657281525060200191505060405180910390fd5b8160049060036113c7929190611d71565b5060019050919050565b60006113db6112da565b151561144f576040517f08c379a00000000000000000000000000000000000000000000000000000000081526004018080602001828103825260208152602001807f4f776e61626c653a2063616c6c6572206973206e6f7420746865206f776e657281525060200191505060405180910390fd5b816001906003611460929190611d71565b5060019050919050565b60006114746112da565b15156114e8576040517f08c379a00000000000000000000000000000000000000000000000000000000081526004018080602001828103825260208152602001807f4f776e61626c653a2063616c6c6572206973206e6f7420746865206f776e657281525060200191505060405180910390fd5b81600c9060026114f9929190611df6565b5060019050919050565b600061150d6112da565b1515611581576040517f08c379a00000000000000000000000000000000000000000000000000000000081526004018080602001828103825260208152602001807f4f776e61626c653a2063616c6c6572206973206e6f7420746865206f776e657281525060200191505060405180910390fd5b81600a906002611592929190611df6565b5060019050919050565b600080600e60009054906101000a900473ffffffffffffffffffffffffffffffffffffffff16905060008173ffffffffffffffffffffffffffffffffffffffff16636ba13a826040518163ffffffff167c010000000000000000000000000000000000000000000000000000000002815260040160206040518083038186803b15801561162857600080fd5b505afa15801561163c573d6000803e3d6000fd5b505050506040513d602081101561165257600080fd5b8101908080519060200190929190505050905060006001430340905060006116998361168b88856001900461193890919063ffffffff16565b6119ca90919063ffffffff16565b90508373ffffffffffffffffffffffffffffffffffffffff166390d976e2826040518263ffffffff167c01000000000000000000000000000000000000000000000000000000000281526004018082815260200191505060206040518083038186803b15801561170857600080fd5b505afa15801561171c573d6000803e3d6000fd5b505050506040513d602081101561173257600080fd5b8101908080519060200190929190505050945050505050919050565b6117566112da565b15156117ca576040517f08c379a00000000000000000000000000000000000000000000000000000000081526004018080602001828103825260208152602001807f4f776e61626c653a2063616c6c6572206973206e6f7420746865206f776e657281525060200191505060405180910390fd5b6117d381611a14565b50565b6117de611db1565b600a600280602002604051908101604052809291908260028015611817576020028201915b815481526020019060010190808311611803575b5050505050905090565b60008083141561183457600090506118e8565b6000828402905082848281151561184757fe5b041415156118e3576040517f08c379a00000000000000000000000000000000000000000000000000000000081526004018080602001828103825260218152602001807f536166654d6174683a206d756c7469706c69636174696f6e206f766572666c6f81526020017f770000000000000000000000000000000000000000000000000000000000000081525060400191505060405180910390fd5b809150505b92915050565b600061193083836040805190810160405280601a81526020017f536166654d6174683a206469766973696f6e206279207a65726f000000000000815250611b9d565b905092915050565b60008082840190508381101515156119b8576040517f08c379a000000000000000000000000000000000000000000000000000000000815260040180806020018281038252601b8152602001807f536166654d6174683a206164646974696f6e206f766572666c6f77000000000081525060200191505060405180910390fd5b8091505092915050565b600033905090565b6000611a0c83836040805190810160405280601881526020017f536166654d6174683a206d6f64756c6f206279207a65726f0000000000000000815250611c67565b905092915050565b600073ffffffffffffffffffffffffffffffffffffffff168173ffffffffffffffffffffffffffffffffffffffff1614151515611adf576040517f08c379a00000000000000000000000000000000000000000000000000000000081526004018080602001828103825260268152602001807f4f776e61626c653a206e6577206f776e657220697320746865207a65726f206181526020017f646472657373000000000000000000000000000000000000000000000000000081525060400191505060405180910390fd5b8073ffffffffffffffffffffffffffffffffffffffff166000809054906101000a900473ffffffffffffffffffffffffffffffffffffffff1673ffffffffffffffffffffffffffffffffffffffff167f8be0079c531659141344cd1fd0a4f28419497f9722a3daafe3b4186f6b6457e060405160405180910390a3806000806101000a81548173ffffffffffffffffffffffffffffffffffffffff021916908373ffffffffffffffffffffffffffffffffffffffff16021790555050565b600080831182901515611c4b576040517f08c379a00000000000000000000000000000000000000000000000000000000081526004018080602001828103825283818151815260200191508051906020019080838360005b83811015611c10578082015181840152602081019050611bf5565b50505050905090810190601f168015611c3d5780820380516001836020036101000a031916815260200191505b509250505060405180910390fd5b5060008385811515611c5957fe5b049050809150509392505050565b60008083141582901515611d16576040517f08c379a00000000000000000000000000000000000000000000000000000000081526004018080602001828103825283818151815260200191508051906020019080838360005b83811015611cdb578082015181840152602081019050611cc0565b50505050905090810190601f168015611d085780820380516001836020036101000a031916815260200191505b509250505060405180910390fd5b508284811515611d2257fe5b0690509392505050565b6040805190810160405280600290602082028038833980820191505090505090565b606060405190810160405280600390602082028038833980820191505090505090565b8260038101928215611da0579160200282015b82811115611d9f578251825591602001919060010190611d84565b5b509050611dad9190611e36565b5090565b6040805190810160405280600290602082028038833980820191505090505090565b60a060405190810160405280600590602082028038833980820191505090505090565b8260028101928215611e25579160200282015b82811115611e24578251825591602001919060010190611e09565b5b509050611e329190611e36565b5090565b611e5891905b80821115611e54576000816000905550600101611e3c565b5090565b9056fea165627a7a72305820d12e68e93917687a9ece1ded3ec2f3add2376ea21abf932965bd6ad5fae780740029",
  "source": "pragma solidity ^0.5.0;\n\nimport \"@openzeppelin/contracts/math/SafeMath.sol\";\nimport \"@openzeppelin/contracts/ownership/Ownable.sol\";\nimport \"./Events.sol\";\n\ncontract UsersInstance {\n    uint256 public usersCount;\n    function getRemainingFreeTransactions(address userAddress) public view returns (uint16);\n    function getUserAddress(uint256 index) public view returns (address);\n    function getTransactionFeeValues(address userAddress) public view returns (uint8[2] memory);\n    function isActive(address userAddress) public view returns (bool);\n    function isSuperUser(address userAddress) public view returns (bool);\n}\n\ncontract Digitall is Ownable, Events {\n    using SafeMath for uint256;\n\n    uint256[3] purchaseWithCreditCardFeeValues = [29, 1000, 300000]; // => 2.9% fee; (amount * 29 / 1000) + 30 cents.\n    uint256[3] purchaseWithCryptoFeeValues = [0, 1, 0]; // => 0% for now.\n    uint256[3] purchaseWithEurCreditCardFeeValues = [7, 500, 200000]; // => 1.4% fee; (amount * 29 / 1000) + 20 cents.\n    uint256[2] storageFeeValues = [1, 10];  // 10%\n    uint256[2] flatFeeValues = [10000000000, 50000000]; // if transaction is for more than 10k add $50 fee on top.\n    address UsersContractAddress;\n\n    constructor(address usersAddress)\n        public\n    {\n        UsersContractAddress = usersAddress;\n    }\n\n    function setFlatFeeValues(uint256[2] memory newValues)\n        public\n        onlyOwner\n        returns (bool)\n    {\n        flatFeeValues = newValues;\n        return true;\n    }\n\n    function setPurchaseWithCreditCardFeeValues(uint256[3] memory newValues)\n        public\n        onlyOwner\n        returns (bool)\n    {\n        purchaseWithCreditCardFeeValues = newValues;\n        return true;\n    }\n\n    function setPurchaseWithEurCreditCardFeeValues(uint256[3] memory newValues)\n        public\n        onlyOwner\n        returns (bool)\n    {\n        purchaseWithEurCreditCardFeeValues = newValues;\n        return true;\n    }\n\n    function setPurchaseWithCryptoFeeValues(uint256[3] memory newValues)\n        public\n        onlyOwner\n        returns (bool)\n    {\n        purchaseWithCryptoFeeValues = newValues;\n        return true;\n    }\n\n    function setStorageFeeValues(uint256[2] memory newValues)\n        public\n        onlyOwner\n        returns (bool)\n    {\n        storageFeeValues = newValues;\n        return true;\n    }\n\n    function getFlatFeeValues() public view returns (uint256[2] memory) {\n        return flatFeeValues;\n    }\n\n    function getPurchaseWithCreditCardFeeValues() public view returns (uint256[3] memory) {\n        return purchaseWithCreditCardFeeValues;\n    }\n\n    function getPurchaseWithCryptoFeeValues() public view returns (uint256[3] memory) {\n        return purchaseWithCryptoFeeValues;\n    }\n\n    function getPurchaseWithEurCreditCardFeeValues() public view returns (uint256[3] memory) {\n        return purchaseWithEurCreditCardFeeValues;\n    }\n\n    function getStorageFeeValues() public view returns (uint256[2] memory) {\n        return storageFeeValues;\n    }\n\n    function determineFeeSplit(uint256 fee, address fromReferrerAddress, address toReferrerAddress)\n        public\n        pure\n        returns (uint256[5] memory)\n    {\n        if (fromReferrerAddress != address(0) && toReferrerAddress != address(0)) {\n            uint256 fivePercent = fee / 20;\n            uint256 eightyPercent = fee - (fivePercent * 4);\n            return [fivePercent, fivePercent, fivePercent, fivePercent, eightyPercent];\n        } else if (fromReferrerAddress != address(0)) {\n            uint256 fivePercent = fee / 20;\n            uint256 eightyFivePercent = fee - (fivePercent * 3);\n            return [fivePercent, 0, fivePercent, fivePercent, eightyFivePercent];\n        } else if (toReferrerAddress != address(0)) {\n            uint256 fivePercent = fee / 20;\n            uint256 eightyFivePercent = fee - (fivePercent * 3);\n            return [0, fivePercent, fivePercent, fivePercent, eightyFivePercent];\n        } else {\n            uint256 fivePercent = fee / 20;\n            uint256 ninetyPercent = fee - (fivePercent * 2);\n            return [0, 0, fivePercent, fivePercent, ninetyPercent];\n        }\n    }\n\n    function calculateTransactionFee(\n        address userAddress,\n        uint256 amount\n    )\n        public\n        view\n        returns (uint256)\n    {\n        UsersInstance u = UsersInstance(UsersContractAddress);\n        require(u.isActive(userAddress), \"Not an active user.\");\n        uint8[2] memory transactionFeeValues = u.getTransactionFeeValues(userAddress);\n\n        if (u.isSuperUser(userAddress)) {\n            return 0;\n        } else {\n            if (amount < flatFeeValues[0]) {\n                return amount.mul(transactionFeeValues[0]).div(transactionFeeValues[1]);\n            } else {\n                return amount.mul(transactionFeeValues[0]).div(transactionFeeValues[1]).add(flatFeeValues[1]);\n            }\n        }\n    }\n\n    function determineTransactionFree(address userAddress)\n        public\n        view\n        returns (bool)\n    {\n        UsersInstance c = UsersInstance(UsersContractAddress);\n        uint16 remainingFreeTransactions = c.getRemainingFreeTransactions(userAddress);\n\n        if (remainingFreeTransactions > 0) {\n            return true;\n        } else {\n            return false;\n        }\n    }\n\n    function determineWinner(uint256 salt)\n        public\n        view\n        returns (address)\n    {\n        UsersInstance c = UsersInstance(UsersContractAddress);\n        uint256 usersCount = c.usersCount();\n        bytes32 lastHash = blockhash(block.number - 1);\n        uint256 winnerIndex = uint256(lastHash).add(salt).mod(usersCount);\n\n        return c.getUserAddress(winnerIndex);\n    }\n}",
  "sourcePath": "/Users/andy/coding/digitall-contracts/contracts/Digitall.sol",
  "compiler": {
    "name": "solc",
    "version": "0.5.0+commit.1d4f565a.Emscripten.clang"
  },
  "schemaVersion": "3.0.19",
  "updatedAt": "2020-06-18T21:27:49.512Z",
  "networkType": "ethereum",
  "devdoc": {
    "methods": {
      "isOwner()": {
        "details": "Returns true if the caller is the current owner."
      },
      "owner()": {
        "details": "Returns the address of the current owner."
      },
      "renounceOwnership()": {
        "details": "Leaves the contract without owner. It will not be possible to call `onlyOwner` functions anymore. Can only be called by the current owner.     * NOTE: Renouncing ownership will leave the contract without an owner, thereby removing any functionality that is only available to the owner."
      },
      "transferOwnership(address)": {
        "details": "Transfers ownership of the contract to a new account (`newOwner`). Can only be called by the current owner."
      }
    }
  },
  "userdoc": {
    "methods": {}
  }
}