{
  "contractName": "Exchange",
  "abi": [
    {
      "constant": true,
      "inputs": [],
      "name": "UsersContractAddress",
      "outputs": [
        {
          "name": "",
          "type": "address"
        }
      ],
      "payable": false,
      "stateMutability": "view",
      "type": "function"
    },
    {
      "constant": true,
      "inputs": [
        {
          "name": "",
          "type": "uint256"
        }
      ],
      "name": "cryptoExchangeFeeValues",
      "outputs": [
        {
          "name": "",
          "type": "uint8"
        }
      ],
      "payable": false,
      "stateMutability": "view",
      "type": "function"
    },
    {
      "constant": false,
      "inputs": [],
      "name": "renounceOwnership",
      "outputs": [],
      "payable": false,
      "stateMutability": "nonpayable",
      "type": "function"
    },
    {
      "constant": true,
      "inputs": [
        {
          "name": "",
          "type": "address"
        },
        {
          "name": "",
          "type": "uint256"
        }
      ],
      "name": "priceModifiers",
      "outputs": [
        {
          "name": "",
          "type": "uint8"
        }
      ],
      "payable": false,
      "stateMutability": "view",
      "type": "function"
    },
    {
      "constant": true,
      "inputs": [],
      "name": "owner",
      "outputs": [
        {
          "name": "",
          "type": "address"
        }
      ],
      "payable": false,
      "stateMutability": "view",
      "type": "function"
    },
    {
      "constant": true,
      "inputs": [],
      "name": "isOwner",
      "outputs": [
        {
          "name": "",
          "type": "bool"
        }
      ],
      "payable": false,
      "stateMutability": "view",
      "type": "function"
    },
    {
      "constant": true,
      "inputs": [],
      "name": "getNonce",
      "outputs": [
        {
          "name": "",
          "type": "uint256"
        }
      ],
      "payable": false,
      "stateMutability": "view",
      "type": "function"
    },
    {
      "constant": false,
      "inputs": [
        {
          "name": "newOwner",
          "type": "address"
        }
      ],
      "name": "transferOwnership",
      "outputs": [],
      "payable": false,
      "stateMutability": "nonpayable",
      "type": "function"
    },
    {
      "inputs": [
        {
          "name": "usersAddress",
          "type": "address"
        }
      ],
      "payable": false,
      "stateMutability": "nonpayable",
      "type": "constructor"
    },
    {
      "anonymous": false,
      "inputs": [
        {
          "indexed": false,
          "name": "userAddress",
          "type": "address"
        }
      ],
      "name": "NewUser",
      "type": "event"
    },
    {
      "anonymous": false,
      "inputs": [
        {
          "indexed": false,
          "name": "value",
          "type": "uint256"
        },
        {
          "indexed": false,
          "name": "symbol",
          "type": "string"
        }
      ],
      "name": "Deposit",
      "type": "event"
    },
    {
      "anonymous": false,
      "inputs": [
        {
          "indexed": false,
          "name": "userAddress",
          "type": "address"
        },
        {
          "indexed": false,
          "name": "referredAddress",
          "type": "address"
        },
        {
          "indexed": false,
          "name": "amount",
          "type": "uint256"
        },
        {
          "indexed": false,
          "name": "symbol",
          "type": "string"
        }
      ],
      "name": "MoneyEarned",
      "type": "event"
    },
    {
      "anonymous": false,
      "inputs": [
        {
          "indexed": false,
          "name": "transactionId",
          "type": "uint256"
        },
        {
          "indexed": false,
          "name": "symbol",
          "type": "string"
        },
        {
          "indexed": false,
          "name": "addressFrom",
          "type": "address"
        },
        {
          "indexed": false,
          "name": "addressTo",
          "type": "address"
        },
        {
          "indexed": false,
          "name": "value",
          "type": "uint256"
        },
        {
          "indexed": false,
          "name": "fee",
          "type": "uint256"
        },
        {
          "indexed": false,
          "name": "txType",
          "type": "string"
        }
      ],
      "name": "CustomTransfer",
      "type": "event"
    },
    {
      "anonymous": false,
      "inputs": [
        {
          "indexed": false,
          "name": "fromAddress",
          "type": "address"
        },
        {
          "indexed": false,
          "name": "toAddress",
          "type": "address"
        },
        {
          "indexed": false,
          "name": "fromAmount",
          "type": "uint256"
        },
        {
          "indexed": false,
          "name": "toAmount",
          "type": "uint256"
        },
        {
          "indexed": false,
          "name": "fee",
          "type": "uint256"
        }
      ],
      "name": "Exchange",
      "type": "event"
    },
    {
      "anonymous": false,
      "inputs": [
        {
          "indexed": false,
          "name": "fromAddress",
          "type": "address"
        },
        {
          "indexed": false,
          "name": "toAddress",
          "type": "address"
        },
        {
          "indexed": false,
          "name": "fromAmount",
          "type": "uint256"
        },
        {
          "indexed": false,
          "name": "toAmount",
          "type": "uint256"
        },
        {
          "indexed": false,
          "name": "fee",
          "type": "uint256"
        },
        {
          "indexed": false,
          "name": "recipient",
          "type": "address"
        }
      ],
      "name": "ExchangeAndTransfer",
      "type": "event"
    },
    {
      "anonymous": false,
      "inputs": [
        {
          "indexed": false,
          "name": "recipient",
          "type": "address"
        },
        {
          "indexed": false,
          "name": "symbol",
          "type": "string"
        },
        {
          "indexed": false,
          "name": "value",
          "type": "uint256"
        },
        {
          "indexed": false,
          "name": "fee",
          "type": "uint256"
        }
      ],
      "name": "CreditCardPurchase",
      "type": "event"
    },
    {
      "anonymous": false,
      "inputs": [
        {
          "indexed": true,
          "name": "previousOwner",
          "type": "address"
        },
        {
          "indexed": true,
          "name": "newOwner",
          "type": "address"
        }
      ],
      "name": "OwnershipTransferred",
      "type": "event"
    },
    {
      "constant": false,
      "inputs": [
        {
          "name": "newAdmins",
          "type": "address[]"
        }
      ],
      "name": "addAdmins",
      "outputs": [],
      "payable": false,
      "stateMutability": "nonpayable",
      "type": "function"
    },
    {
      "constant": false,
      "inputs": [
        {
          "name": "newContracts",
          "type": "address[]"
        }
      ],
      "name": "addCryptoContracts",
      "outputs": [],
      "payable": false,
      "stateMutability": "nonpayable",
      "type": "function"
    },
    {
      "constant": false,
      "inputs": [
        {
          "name": "newContracts",
          "type": "address[]"
        },
        {
          "name": "values",
          "type": "uint8[2][]"
        }
      ],
      "name": "addPriceModifiers",
      "outputs": [],
      "payable": false,
      "stateMutability": "nonpayable",
      "type": "function"
    },
    {
      "constant": false,
      "inputs": [
        {
          "name": "_newCryptoFeeValues",
          "type": "uint8[2]"
        }
      ],
      "name": "setCryptoFeeValues",
      "outputs": [],
      "payable": false,
      "stateMutability": "nonpayable",
      "type": "function"
    },
    {
      "constant": false,
      "inputs": [
        {
          "name": "newAddress",
          "type": "address"
        }
      ],
      "name": "setExchangeFeeWallet",
      "outputs": [],
      "payable": false,
      "stateMutability": "nonpayable",
      "type": "function"
    },
    {
      "constant": false,
      "inputs": [
        {
          "name": "newAddress",
          "type": "address"
        }
      ],
      "name": "setSignerAddress",
      "outputs": [],
      "payable": false,
      "stateMutability": "nonpayable",
      "type": "function"
    },
    {
      "constant": false,
      "inputs": [
        {
          "name": "newAddress",
          "type": "address"
        }
      ],
      "name": "setUsersContractAddress",
      "outputs": [],
      "payable": false,
      "stateMutability": "nonpayable",
      "type": "function"
    },
    {
      "constant": true,
      "inputs": [
        {
          "name": "userAddress",
          "type": "address"
        },
        {
          "name": "addresses",
          "type": "address[2]"
        }
      ],
      "name": "feeScalar",
      "outputs": [
        {
          "name": "",
          "type": "uint256[2]"
        }
      ],
      "payable": false,
      "stateMutability": "view",
      "type": "function"
    },
    {
      "constant": false,
      "inputs": [
        {
          "name": "exchangeValues",
          "type": "uint256[3]"
        },
        {
          "name": "addresses",
          "type": "address[2]"
        },
        {
          "name": "sig",
          "type": "bytes"
        }
      ],
      "name": "exchange",
      "outputs": [
        {
          "name": "",
          "type": "bool"
        }
      ],
      "payable": false,
      "stateMutability": "nonpayable",
      "type": "function"
    },
    {
      "constant": false,
      "inputs": [
        {
          "name": "exchangeValues",
          "type": "uint256[3]"
        },
        {
          "name": "addresses",
          "type": "address[2]"
        },
        {
          "name": "recipient",
          "type": "address"
        },
        {
          "name": "sig",
          "type": "bytes"
        },
        {
          "name": "salt",
          "type": "uint256"
        }
      ],
      "name": "exchangeAndTransfer",
      "outputs": [
        {
          "name": "",
          "type": "bool"
        }
      ],
      "payable": false,
      "stateMutability": "nonpayable",
      "type": "function"
    }
  ],
  "bytecode": "0x608060405273e6e5c6aace31efa67f95624a1705ed7b8171c5bb600560006101000a81548173ffffffffffffffffffffffffffffffffffffffff021916908373ffffffffffffffffffffffffffffffffffffffff160217905550739c51b65c5608c251f3715124666bb02ab14bc3d3600660006101000a81548173ffffffffffffffffffffffffffffffffffffffff021916908373ffffffffffffffffffffffffffffffffffffffff1602179055506040805190810160405280600160ff168152602001601960ff168152506008906002620000dd92919062000228565b50348015620000eb57600080fd5b5060405160208062003f79833981018060405260208110156200010d57600080fd5b810190808051906020019092919050505060006200013962000220640100000000026401000000009004565b905080600160006101000a81548173ffffffffffffffffffffffffffffffffffffffff021916908373ffffffffffffffffffffffffffffffffffffffff1602179055508073ffffffffffffffffffffffffffffffffffffffff16600073ffffffffffffffffffffffffffffffffffffffff167f8be0079c531659141344cd1fd0a4f28419497f9722a3daafe3b4186f6b6457e060405160405180910390a35080600460006101000a81548173ffffffffffffffffffffffffffffffffffffffff021916908373ffffffffffffffffffffffffffffffffffffffff16021790555050620002fc565b600033905090565b826002601f01602090048101928215620002b65791602002820160005b838211156200028557835183826101000a81548160ff021916908360ff160217905550926020019260010160208160000104928301926001030262000245565b8015620002b45782816101000a81549060ff021916905560010160208160000104928301926001030262000285565b505b509050620002c59190620002c9565b5090565b620002f991905b80821115620002f557600081816101000a81549060ff021916905550600101620002d0565b5090565b90565b613c6d806200030c6000396000f3fe6080604052600436106100fc576000357c0100000000000000000000000000000000000000000000000000000000900463ffffffff168063012e3d8d14610101578063046dc1661461015857806304ba52c2146101a957806323412e731461021b5780633e3c36591461027057806349b4c9f514610405578063715018a6146104d35780638be3a7f3146104ea5780638da5cb5b1461055f5780638f32d59b146105b6578063903ffd7b146105e5578063987169d1146106365780639c54df6414610798578063abc2e0121461085d578063d087d28814610922578063dbfadfe21461094d578063ed64c7751461099e578063f2fde38b14610b2b575b600080fd5b34801561010d57600080fd5b50610116610b7c565b604051808273ffffffffffffffffffffffffffffffffffffffff1673ffffffffffffffffffffffffffffffffffffffff16815260200191505060405180910390f35b34801561016457600080fd5b506101a76004803603602081101561017b57600080fd5b81019080803573ffffffffffffffffffffffffffffffffffffffff169060200190929190505050610ba2565b005b3480156101b557600080fd5b50610219600480360360408110156101cc57600080fd5b8101908080604001906002806020026040519081016040528092919082600260200280828437600081840152601f19601f8201169050808301925050505050509192919290505050610c6e565b005b34801561022757600080fd5b506102546004803603602081101561023e57600080fd5b8101908080359060200190929190505050610d0b565b604051808260ff1660ff16815260200191505060405180910390f35b34801561027c57600080fd5b506104036004803603604081101561029357600080fd5b81019080803590602001906401000000008111156102b057600080fd5b8201836020820111156102c257600080fd5b803590602001918460208302840111640100000000831117156102e457600080fd5b919080806020026020016040519081016040528093929190818152602001838360200280828437600081840152601f19601f8201169050808301925050505050505091929192908035906020019064010000000081111561034457600080fd5b82018360208201111561035657600080fd5b8035906020019184604083028401116401000000008311171561037857600080fd5b9190808060200260200160405190810160405280939291908181526020016000905b828210156103f1578484839050604002016002806020026040519081016040528092919082600260200280828437600081840152601f19601f8201169050808301925050505050508152602001906001019061039a565b50505050509192919290505050610d34565b005b34801561041157600080fd5b506104956004803603606081101561042857600080fd5b81019080803573ffffffffffffffffffffffffffffffffffffffff16906020019092919080604001906002806020026040519081016040528092919082600260200280828437600081840152601f19601f8201169050808301925050505050509192919290505050610e4e565b6040518082600260200280838360005b838110156104c05780820151818401526020810190506104a5565b5050505090500191505060405180910390f35b3480156104df57600080fd5b506104e8611338565b005b3480156104f657600080fd5b506105436004803603604081101561050d57600080fd5b81019080803573ffffffffffffffffffffffffffffffffffffffff16906020019092919080359060200190929190505050611475565b604051808260ff1660ff16815260200191505060405180910390f35b34801561056b57600080fd5b506105746114ad565b604051808273ffffffffffffffffffffffffffffffffffffffff1673ffffffffffffffffffffffffffffffffffffffff16815260200191505060405180910390f35b3480156105c257600080fd5b506105cb6114d7565b604051808215151515815260200191505060405180910390f35b3480156105f157600080fd5b506106346004803603602081101561060857600080fd5b81019080803573ffffffffffffffffffffffffffffffffffffffff169060200190929190505050611536565b005b34801561064257600080fd5b5061077e600480360360c081101561065957600080fd5b8101908080606001906003806020026040519081016040528092919082600360200280828437600081840152601f19601f820116905080830192505050505050919291929080604001906002806020026040519081016040528092919082600260200280828437600081840152601f19601f8201169050808301925050505050509192919290803590602001906401000000008111156106f857600080fd5b82018360208201111561070a57600080fd5b8035906020019184600183028401116401000000008311171561072c57600080fd5b91908080601f016020809104026020016040519081016040528093929190818152602001838380828437600081840152601f19601f820116905080830192505050505050509192919290505050611602565b604051808215151515815260200191505060405180910390f35b3480156107a457600080fd5b5061085b600480360360208110156107bb57600080fd5b81019080803590602001906401000000008111156107d857600080fd5b8201836020820111156107ea57600080fd5b8035906020019184602083028401116401000000008311171561080c57600080fd5b919080806020026020016040519081016040528093929190818152602001838360200280828437600081840152601f19601f820116905080830192505050505050509192919290505050611bf6565b005b34801561086957600080fd5b506109206004803603602081101561088057600080fd5b810190808035906020019064010000000081111561089d57600080fd5b8201836020820111156108af57600080fd5b803590602001918460208302840111640100000000831117156108d157600080fd5b919080806020026020016040519081016040528093929190818152602001838360200280828437600081840152601f19601f820116905080830192505050505050509192919290505050611cbd565b005b34801561092e57600080fd5b50610937611d84565b6040518082815260200191505060405180910390f35b34801561095957600080fd5b5061099c6004803603602081101561097057600080fd5b81019080803573ffffffffffffffffffffffffffffffffffffffff169060200190929190505050611dca565b005b3480156109aa57600080fd5b50610b1160048036036101008110156109c257600080fd5b8101908080606001906003806020026040519081016040528092919082600360200280828437600081840152601f19601f820116905080830192505050505050919291929080604001906002806020026040519081016040528092919082600260200280828437600081840152601f19601f8201169050808301925050505050509192919290803573ffffffffffffffffffffffffffffffffffffffff16906020019092919080359060200190640100000000811115610a8157600080fd5b820183602082011115610a9357600080fd5b80359060200191846001830284011164010000000083111715610ab557600080fd5b91908080601f016020809104026020016040519081016040528093929190818152602001838380828437600081840152601f19601f82011690508083019250505050505050919291929080359060200190929190505050611e96565b604051808215151515815260200191505060405180910390f35b348015610b3757600080fd5b50610b7a60048036036020811015610b4e57600080fd5b81019080803573ffffffffffffffffffffffffffffffffffffffff1690602001909291905050506124bf565b005b600460009054906101000a900473ffffffffffffffffffffffffffffffffffffffff1681565b610bb633600361254790919063ffffffff16565b1515610c2a576040517f08c379a00000000000000000000000000000000000000000000000000000000081526004018080602001828103825260178152602001807f43616c6c6572206973206e6f7420616e2061646d696e2e00000000000000000081525060200191505060405180910390fd5b80600560006101000a81548173ffffffffffffffffffffffffffffffffffffffff021916908373ffffffffffffffffffffffffffffffffffffffff16021790555050565b610c8233600361254790919063ffffffff16565b1515610cf6576040517f08c379a00000000000000000000000000000000000000000000000000000000081526004018080602001828103825260178152602001807f43616c6c6572206973206e6f7420616e2061646d696e2e00000000000000000081525060200191505060405180910390fd5b806008906002610d07929190613b33565b5050565b600881600281101515610d1a57fe5b60209182820401919006915054906101000a900460ff1681565b610d3c6114d7565b1515610db0576040517f08c379a00000000000000000000000000000000000000000000000000000000081526004018080602001828103825260208152602001807f4f776e61626c653a2063616c6c6572206973206e6f7420746865206f776e657281525060200191505060405180910390fd5b60008090505b8251811015610e49578181815181101515610dcd57fe5b90602001906020020151600760008584815181101515610de957fe5b9060200190602002015173ffffffffffffffffffffffffffffffffffffffff1673ffffffffffffffffffffffffffffffffffffffff168152602001908152602001600020906002610e3b929190613b33565b508080600101915050610db6565b505050565b610e56613bcd565b6000600460009054906101000a900473ffffffffffffffffffffffffffffffffffffffff169050610e85613bef565b8173ffffffffffffffffffffffffffffffffffffffff16633cf269a5866040518263ffffffff167c0100000000000000000000000000000000000000000000000000000000028152600401808273ffffffffffffffffffffffffffffffffffffffff1673ffffffffffffffffffffffffffffffffffffffff168152602001915050604080518083038186803b158015610f1d57600080fd5b505afa158015610f31573d6000803e3d6000fd5b505050506040513d601f19601f820116820180604052506040811015610f5657600080fd5b81019080919050509050600060076000866001600281101515610f7557fe5b602002015173ffffffffffffffffffffffffffffffffffffffff1673ffffffffffffffffffffffffffffffffffffffff1681526020019081526020016000206000600281101515610fc257fe5b602091828204019190069054906101000a900460ff1660ff169050600060076000876001600281101515610ff257fe5b602002015173ffffffffffffffffffffffffffffffffffffffff1673ffffffffffffffffffffffffffffffffffffffff168152602001908152602001600020600160028110151561103f57fe5b602091828204019190069054906101000a900460ff1660ff1690506000806000808773ffffffffffffffffffffffffffffffffffffffff1663cd784d1b8c6040518263ffffffff167c0100000000000000000000000000000000000000000000000000000000028152600401808273ffffffffffffffffffffffffffffffffffffffff1673ffffffffffffffffffffffffffffffffffffffff16815260200191505060206040518083038186803b1580156110f957600080fd5b505afa15801561110d573d6000803e3d6000fd5b505050506040513d602081101561112357600080fd5b810190808051906020019092919050505015611146576001915060019050611313565b61116d8a600060028110151561115857fe5b6020020151600261254790919063ffffffff16565b8061119b575061119a8a600160028110151561118557fe5b6020020151600261254790919063ffffffff16565b5b1561126d57600860006002811015156111b057fe5b602091828204019190069054906101000a900460ff1660ff169350600860016002811015156111db57fe5b602091828204019190069054906101000a900460ff1660ff16925061125161120c878561266a90919063ffffffff16565b611243611222888861266a90919063ffffffff16565b611235898861266a90919063ffffffff16565b61273790919063ffffffff16565b61273790919063ffffffff16565b9150611266858461266a90919063ffffffff16565b9050611312565b86600060028110151561127c57fe5b602002015160ff16935086600160028110151561129557fe5b602002015160ff1692506112fa6112b5878561266a90919063ffffffff16565b6112ec6112cb888861266a90919063ffffffff16565b6112de898861266a90919063ffffffff16565b61273790919063ffffffff16565b61273790919063ffffffff16565b915061130f858461266a90919063ffffffff16565b90505b5b6040805190810160405280838152602001828152509850505050505050505092915050565b6113406114d7565b15156113b4576040517f08c379a00000000000000000000000000000000000000000000000000000000081526004018080602001828103825260208152602001807f4f776e61626c653a2063616c6c6572206973206e6f7420746865206f776e657281525060200191505060405180910390fd5b600073ffffffffffffffffffffffffffffffffffffffff16600160009054906101000a900473ffffffffffffffffffffffffffffffffffffffff1673ffffffffffffffffffffffffffffffffffffffff167f8be0079c531659141344cd1fd0a4f28419497f9722a3daafe3b4186f6b6457e060405160405180910390a36000600160006101000a81548173ffffffffffffffffffffffffffffffffffffffff021916908373ffffffffffffffffffffffffffffffffffffffff160217905550565b60076020528160005260406000208160028110151561149057fe5b60209182820401919006915091509054906101000a900460ff1681565b6000600160009054906101000a900473ffffffffffffffffffffffffffffffffffffffff16905090565b6000600160009054906101000a900473ffffffffffffffffffffffffffffffffffffffff1673ffffffffffffffffffffffffffffffffffffffff1661151a612781565b73ffffffffffffffffffffffffffffffffffffffff1614905090565b61154a33600361254790919063ffffffff16565b15156115be576040517f08c379a00000000000000000000000000000000000000000000000000000000081526004018080602001828103825260178152602001807f43616c6c6572206973206e6f7420616e2061646d696e2e00000000000000000081525060200191505060405180910390fd5b80600660006101000a81548173ffffffffffffffffffffffffffffffffffffffff021916908373ffffffffffffffffffffffffffffffffffffffff16021790555050565b600080600460009054906101000a900473ffffffffffffffffffffffffffffffffffffffff1690508073ffffffffffffffffffffffffffffffffffffffff16639f8a13d7336040518263ffffffff167c0100000000000000000000000000000000000000000000000000000000028152600401808273ffffffffffffffffffffffffffffffffffffffff1673ffffffffffffffffffffffffffffffffffffffff16815260200191505060206040518083038186803b1580156116c357600080fd5b505afa1580156116d7573d6000803e3d6000fd5b505050506040513d60208110156116ed57600080fd5b81019080805190602001909291905050501515611772576040517f08c379a00000000000000000000000000000000000000000000000000000000081526004018080602001828103825260138152602001807f55736572206973206e6f74206163746976652e0000000000000000000000000081525060200191505060405180910390fd5b3385600260038110151561178257fe5b60200201516000808373ffffffffffffffffffffffffffffffffffffffff1673ffffffffffffffffffffffffffffffffffffffff168152602001908152602001600020548111151561183c576040517f08c379a000000000000000000000000000000000000000000000000000000000815260040180806020018281038252600d8152602001807f494e56414c49445f4e4f4e43450000000000000000000000000000000000000081525060200191505060405180910390fd5b600087600060038110151561184d57fe5b602002015188600160038110151561186157fe5b602002015188600060028110151561187557fe5b602002015189600160028110151561188957fe5b60200201518b600260038110151561189d57fe5b6020020151604051602001808681526020018581526020018473ffffffffffffffffffffffffffffffffffffffff1673ffffffffffffffffffffffffffffffffffffffff166c010000000000000000000000000281526014018373ffffffffffffffffffffffffffffffffffffffff1673ffffffffffffffffffffffffffffffffffffffff166c010000000000000000000000000281526014018281526020019550505050505060405160208183030381529060405280519060200120905060006119688288612789565b9050600560009054906101000a900473ffffffffffffffffffffffffffffffffffffffff1673ffffffffffffffffffffffffffffffffffffffff168173ffffffffffffffffffffffffffffffffffffffff16141515611a2f576040517f08c379a00000000000000000000000000000000000000000000000000000000081526004018080602001828103825260148152602001807f496e636f7272656374207369676e61747572652e00000000000000000000000081525060200191505060405180910390fd5b6000611a4f338b6001600381101515611a4457fe5b60200201518b612890565b9050611aa66080604051908101604052808c6000600381101515611a6f57fe5b602002015181526020018c6001600381101515611a8857fe5b602002015181526020018381526020016001815250338b6000612cf5565b507f2c488c4d370d7942ade9c611af42e134c4064f1a07e3ac199c285a52f148248c896000600281101515611ad757fe5b60200201518a6001600281101515611aeb57fe5b60200201518c6000600381101515611aff57fe5b60200201518d6001600381101515611b1357fe5b602002015185604051808673ffffffffffffffffffffffffffffffffffffffff1673ffffffffffffffffffffffffffffffffffffffff1681526020018573ffffffffffffffffffffffffffffffffffffffff1673ffffffffffffffffffffffffffffffffffffffff1681526020018481526020018381526020018281526020019550505050505060405180910390a160019650505050806000808473ffffffffffffffffffffffffffffffffffffffff1673ffffffffffffffffffffffffffffffffffffffff168152602001908152602001600020819055505050509392505050565b611bfe6114d7565b1515611c72576040517f08c379a00000000000000000000000000000000000000000000000000000000081526004018080602001828103825260208152602001807f4f776e61626c653a2063616c6c6572206973206e6f7420746865206f776e657281525060200191505060405180910390fd5b60008090505b8151811015611cb957611cac8282815181101515611c9257fe5b90602001906020020151600361366b90919063ffffffff16565b8080600101915050611c78565b5050565b611cc56114d7565b1515611d39576040517f08c379a00000000000000000000000000000000000000000000000000000000081526004018080602001828103825260208152602001807f4f776e61626c653a2063616c6c6572206973206e6f7420746865206f776e657281525060200191505060405180910390fd5b60008090505b8151811015611d8057611d738282815181101515611d5957fe5b90602001906020020151600261366b90919063ffffffff16565b8080600101915050611d3f565b5050565b60008060003373ffffffffffffffffffffffffffffffffffffffff1673ffffffffffffffffffffffffffffffffffffffff16815260200190815260200160002054905090565b611dde33600361254790919063ffffffff16565b1515611e52576040517f08c379a00000000000000000000000000000000000000000000000000000000081526004018080602001828103825260178152602001807f43616c6c6572206973206e6f7420616e2061646d696e2e00000000000000000081525060200191505060405180910390fd5b80600460006101000a81548173ffffffffffffffffffffffffffffffffffffffff021916908373ffffffffffffffffffffffffffffffffffffffff16021790555050565b600080600460009054906101000a900473ffffffffffffffffffffffffffffffffffffffff1690508073ffffffffffffffffffffffffffffffffffffffff16639f8a13d7336040518263ffffffff167c0100000000000000000000000000000000000000000000000000000000028152600401808273ffffffffffffffffffffffffffffffffffffffff1673ffffffffffffffffffffffffffffffffffffffff16815260200191505060206040518083038186803b158015611f5757600080fd5b505afa158015611f6b573d6000803e3d6000fd5b505050506040513d6020811015611f8157600080fd5b81019080805190602001909291905050501515612006576040517f08c379a00000000000000000000000000000000000000000000000000000000081526004018080602001828103825260138152602001807f55736572206973206e6f74206163746976652e0000000000000000000000000081525060200191505060405180910390fd5b3387600260038110151561201657fe5b60200201516000808373ffffffffffffffffffffffffffffffffffffffff1673ffffffffffffffffffffffffffffffffffffffff16815260200190815260200160002054811115156120d0576040517f08c379a000000000000000000000000000000000000000000000000000000000815260040180806020018281038252600d8152602001807f494e56414c49445f4e4f4e43450000000000000000000000000000000000000081525060200191505060405180910390fd5b60008960006003811015156120e157fe5b60200201518a60016003811015156120f557fe5b60200201518a600060028110151561210957fe5b60200201518b600160028110151561211d57fe5b60200201518d600260038110151561213157fe5b6020020151604051602001808681526020018581526020018473ffffffffffffffffffffffffffffffffffffffff1673ffffffffffffffffffffffffffffffffffffffff166c010000000000000000000000000281526014018373ffffffffffffffffffffffffffffffffffffffff1673ffffffffffffffffffffffffffffffffffffffff166c010000000000000000000000000281526014018281526020019550505050505060405160208183030381529060405280519060200120905060006121fc8289612789565b9050600560009054906101000a900473ffffffffffffffffffffffffffffffffffffffff1673ffffffffffffffffffffffffffffffffffffffff168173ffffffffffffffffffffffffffffffffffffffff161415156122c3576040517f08c379a00000000000000000000000000000000000000000000000000000000081526004018080602001828103825260148152602001807f496e636f7272656374207369676e61747572652e00000000000000000000000081525060200191505060405180910390fd5b60006122e3338d60016003811015156122d857fe5b60200201518d612890565b90506123396080604051908101604052808e600060038110151561230357fe5b602002015181526020018e600160038110151561231c57fe5b602002015181526020018381526020018a8152508b8d6001612cf5565b507fedfeb546357bde4ed0d9f3ade580a6144d1807ab6330f38f30d5328f0ef615cc8b600060028110151561236a57fe5b60200201518c600160028110151561237e57fe5b60200201518e600060038110151561239257fe5b60200201518f60016003811015156123a657fe5b6020020151858f604051808773ffffffffffffffffffffffffffffffffffffffff1673ffffffffffffffffffffffffffffffffffffffff1681526020018673ffffffffffffffffffffffffffffffffffffffff1673ffffffffffffffffffffffffffffffffffffffff1681526020018581526020018481526020018381526020018273ffffffffffffffffffffffffffffffffffffffff1673ffffffffffffffffffffffffffffffffffffffff168152602001965050505050505060405180910390a160019650505050806000808473ffffffffffffffffffffffffffffffffffffffff1673ffffffffffffffffffffffffffffffffffffffff1681526020019081526020016000208190555050505095945050505050565b6124c76114d7565b151561253b576040517f08c379a00000000000000000000000000000000000000000000000000000000081526004018080602001828103825260208152602001807f4f776e61626c653a2063616c6c6572206973206e6f7420746865206f776e657281525060200191505060405180910390fd5b61254481613748565b50565b60008073ffffffffffffffffffffffffffffffffffffffff168273ffffffffffffffffffffffffffffffffffffffff1614151515612613576040517f08c379a00000000000000000000000000000000000000000000000000000000081526004018080602001828103825260228152602001807f526f6c65733a206163636f756e7420697320746865207a65726f20616464726581526020017f737300000000000000000000000000000000000000000000000000000000000081525060400191505060405180910390fd5b8260000160008373ffffffffffffffffffffffffffffffffffffffff1673ffffffffffffffffffffffffffffffffffffffff16815260200190815260200160002060009054906101000a900460ff16905092915050565b60008083141561267d5760009050612731565b6000828402905082848281151561269057fe5b0414151561272c576040517f08c379a00000000000000000000000000000000000000000000000000000000081526004018080602001828103825260218152602001807f536166654d6174683a206d756c7469706c69636174696f6e206f766572666c6f81526020017f770000000000000000000000000000000000000000000000000000000000000081525060400191505060405180910390fd5b809150505b92915050565b600061277983836040805190810160405280601e81526020017f536166654d6174683a207375627472616374696f6e206f766572666c6f7700008152506138d3565b905092915050565b600033905090565b60006041825114151561279f576000905061288a565b60008060006020850151925060408501519150606085015160001a90507f7fffffffffffffffffffffffffffffff5d576e7357a4501ddfe92f46681b20a0826001900411156127f4576000935050505061288a565b601b8160ff161415801561280c5750601c8160ff1614155b1561281d576000935050505061288a565b60018682858560405160008152602001604052604051808581526020018460ff1660ff1681526020018381526020018281526020019450505050506020604051602081039080840390855afa15801561287a573d6000803e3d6000fd5b5050506020604051035193505050505b92915050565b600080600460009054906101000a900473ffffffffffffffffffffffffffffffffffffffff1690506128c0613bef565b8173ffffffffffffffffffffffffffffffffffffffff16633cf269a5876040518263ffffffff167c0100000000000000000000000000000000000000000000000000000000028152600401808273ffffffffffffffffffffffffffffffffffffffff1673ffffffffffffffffffffffffffffffffffffffff168152602001915050604080518083038186803b15801561295857600080fd5b505afa15801561296c573d6000803e3d6000fd5b505050506040513d601f19601f82011682018060405250604081101561299157600080fd5b810190809190505090506000612ab2600760008760016002811015156129b357fe5b602002015173ffffffffffffffffffffffffffffffffffffffff1673ffffffffffffffffffffffffffffffffffffffff1681526020019081526020016000206001600281101515612a0057fe5b602091828204019190069054906101000a900460ff1660ff16612aa460076000896001600281101515612a2f57fe5b602002015173ffffffffffffffffffffffffffffffffffffffff1673ffffffffffffffffffffffffffffffffffffffff1681526020019081526020016000206000600281101515612a7c57fe5b602091828204019190069054906101000a900460ff1660ff168961266a90919063ffffffff16565b61399590919063ffffffff16565b905060008373ffffffffffffffffffffffffffffffffffffffff1663cd784d1b896040518263ffffffff167c0100000000000000000000000000000000000000000000000000000000028152600401808273ffffffffffffffffffffffffffffffffffffffff1673ffffffffffffffffffffffffffffffffffffffff16815260200191505060206040518083038186803b158015612b4f57600080fd5b505afa158015612b63573d6000803e3d6000fd5b505050506040513d6020811015612b7957600080fd5b810190808051906020019092919050505015612b985760009050612ce7565b612bbf866000600281101515612baa57fe5b6020020151600261254790919063ffffffff16565b80612bed5750612bec866001600281101515612bd757fe5b6020020151600261254790919063ffffffff16565b5b15612c8057612c7982612c6b60086001600281101515612c0957fe5b602091828204019190069054906101000a900460ff1660ff16612c5d60086000600281101515612c3557fe5b602091828204019190069054906101000a900460ff1660ff168c61266a90919063ffffffff16565b61399590919063ffffffff16565b6139df90919063ffffffff16565b9050612ce6565b612ce382612cd5856001600281101515612c9657fe5b602002015160ff16612cc7876000600281101515612cb057fe5b602002015160ff168c61266a90919063ffffffff16565b61399590919063ffffffff16565b6139df90919063ffffffff16565b90505b5b809450505050509392505050565b600080836000600281101515612d0757fe5b602002015190506000846001600281101515612d1f57fe5b60200201519050866000600481101515612d3557fe5b60200201518273ffffffffffffffffffffffffffffffffffffffff166370a08231336040518263ffffffff167c0100000000000000000000000000000000000000000000000000000000028152600401808273ffffffffffffffffffffffffffffffffffffffff1673ffffffffffffffffffffffffffffffffffffffff16815260200191505060206040518083038186803b158015612dd357600080fd5b505afa158015612de7573d6000803e3d6000fd5b505050506040513d6020811015612dfd57600080fd5b810190808051906020019092919050505010151515612e84576040517f08c379a000000000000000000000000000000000000000000000000000000000815260040180806020018281038252601a8152602001807f494e53554646494349454e545f53454e4445525f544f4b454e5300000000000081525060200191505060405180910390fd5b866000600481101515612e9357fe5b60200201518273ffffffffffffffffffffffffffffffffffffffff1663dd62ed3e33306040518363ffffffff167c0100000000000000000000000000000000000000000000000000000000028152600401808373ffffffffffffffffffffffffffffffffffffffff1673ffffffffffffffffffffffffffffffffffffffff1681526020018273ffffffffffffffffffffffffffffffffffffffff1673ffffffffffffffffffffffffffffffffffffffff1681526020019250505060206040518083038186803b158015612f6557600080fd5b505afa158015612f79573d6000803e3d6000fd5b505050506040513d6020811015612f8f57600080fd5b810190808051906020019092919050505010151515613016576040517f08c379a000000000000000000000000000000000000000000000000000000000815260040180806020018281038252600c8152602001807f4e4f545f415050524f564544000000000000000000000000000000000000000081525060200191505060405180910390fd5b86600160048110151561302557fe5b60200201518173ffffffffffffffffffffffffffffffffffffffff166370a0823187600160028110151561305557fe5b60200201516040518263ffffffff167c0100000000000000000000000000000000000000000000000000000000028152600401808273ffffffffffffffffffffffffffffffffffffffff1673ffffffffffffffffffffffffffffffffffffffff16815260200191505060206040518083038186803b1580156130d657600080fd5b505afa1580156130ea573d6000803e3d6000fd5b505050506040513d602081101561310057600080fd5b810190808051906020019092919050505010151515613187576040517f08c379a000000000000000000000000000000000000000000000000000000000815260040180806020018281038252601c8152602001807f494e53554646494349454e545f434f4e54524143545f544f4b454e530000000081525060200191505060405180910390fd5b8173ffffffffffffffffffffffffffffffffffffffff166323b872dd338760006002811015156131b357fe5b60200201518a60006004811015156131c757fe5b60200201516040518463ffffffff167c0100000000000000000000000000000000000000000000000000000000028152600401808473ffffffffffffffffffffffffffffffffffffffff1673ffffffffffffffffffffffffffffffffffffffff1681526020018373ffffffffffffffffffffffffffffffffffffffff1673ffffffffffffffffffffffffffffffffffffffff1681526020018281526020019350505050602060405180830381600087803b15801561328457600080fd5b505af1158015613298573d6000803e3d6000fd5b505050506040513d60208110156132ae57600080fd5b8101908080519060200190929190505050508073ffffffffffffffffffffffffffffffffffffffff1663205c2878600660009054906101000a900473ffffffffffffffffffffffffffffffffffffffff1689600260048110151561330e57fe5b60200201516040518363ffffffff167c0100000000000000000000000000000000000000000000000000000000028152600401808373ffffffffffffffffffffffffffffffffffffffff1673ffffffffffffffffffffffffffffffffffffffff16815260200182815260200192505050602060405180830381600087803b15801561339857600080fd5b505af11580156133ac573d6000803e3d6000fd5b505050506040513d60208110156133c257600080fd5b8101908080519060200190929190505050508315613545578073ffffffffffffffffffffffffffffffffffffffff16639b4b993d33886134318b600260048110151561340a57fe5b60200201518c600160048110151561341e57fe5b602002015161273790919063ffffffff16565b8b600360048110151561344057fe5b60200201516040518563ffffffff167c0100000000000000000000000000000000000000000000000000000000028152600401808573ffffffffffffffffffffffffffffffffffffffff1673ffffffffffffffffffffffffffffffffffffffff1681526020018473ffffffffffffffffffffffffffffffffffffffff1673ffffffffffffffffffffffffffffffffffffffff168152602001838152602001828152602001945050505050602060405180830381600087803b15801561350457600080fd5b505af1158015613518573d6000803e3d6000fd5b505050506040513d602081101561352e57600080fd5b81019080805190602001909291905050505061365d565b8073ffffffffffffffffffffffffffffffffffffffff1663205c28788761359b8a600260048110151561357457fe5b60200201518b600160048110151561358857fe5b602002015161273790919063ffffffff16565b6040518363ffffffff167c0100000000000000000000000000000000000000000000000000000000028152600401808373ffffffffffffffffffffffffffffffffffffffff1673ffffffffffffffffffffffffffffffffffffffff16815260200182815260200192505050602060405180830381600087803b15801561362057600080fd5b505af1158015613634573d6000803e3d6000fd5b505050506040513d602081101561364a57600080fd5b8101908080519060200190929190505050505b600192505050949350505050565b6136758282612547565b1515156136ea576040517f08c379a000000000000000000000000000000000000000000000000000000000815260040180806020018281038252601f8152602001807f526f6c65733a206163636f756e7420616c72656164792068617320726f6c650081525060200191505060405180910390fd5b60018260000160008373ffffffffffffffffffffffffffffffffffffffff1673ffffffffffffffffffffffffffffffffffffffff16815260200190815260200160002060006101000a81548160ff0219169083151502179055505050565b600073ffffffffffffffffffffffffffffffffffffffff168173ffffffffffffffffffffffffffffffffffffffff1614151515613813576040517f08c379a00000000000000000000000000000000000000000000000000000000081526004018080602001828103825260268152602001807f4f776e61626c653a206e6577206f776e657220697320746865207a65726f206181526020017f646472657373000000000000000000000000000000000000000000000000000081525060400191505060405180910390fd5b8073ffffffffffffffffffffffffffffffffffffffff16600160009054906101000a900473ffffffffffffffffffffffffffffffffffffffff1673ffffffffffffffffffffffffffffffffffffffff167f8be0079c531659141344cd1fd0a4f28419497f9722a3daafe3b4186f6b6457e060405160405180910390a380600160006101000a81548173ffffffffffffffffffffffffffffffffffffffff021916908373ffffffffffffffffffffffffffffffffffffffff16021790555050565b60008383111582901515613982576040517f08c379a00000000000000000000000000000000000000000000000000000000081526004018080602001828103825283818151815260200191508051906020019080838360005b8381101561394757808201518184015260208101905061392c565b50505050905090810190601f1680156139745780820380516001836020036101000a031916815260200191505b509250505060405180910390fd5b5060008385039050809150509392505050565b60006139d783836040805190810160405280601a81526020017f536166654d6174683a206469766973696f6e206279207a65726f000000000000815250613a69565b905092915050565b6000808284019050838110151515613a5f576040517f08c379a000000000000000000000000000000000000000000000000000000000815260040180806020018281038252601b8152602001807f536166654d6174683a206164646974696f6e206f766572666c6f77000000000081525060200191505060405180910390fd5b8091505092915050565b600080831182901515613b17576040517f08c379a00000000000000000000000000000000000000000000000000000000081526004018080602001828103825283818151815260200191508051906020019080838360005b83811015613adc578082015181840152602081019050613ac1565b50505050905090810190601f168015613b095780820380516001836020036101000a031916815260200191505b509250505060405180910390fd5b5060008385811515613b2557fe5b049050809150509392505050565b826002601f01602090048101928215613bbc5791602002820160005b83821115613b8d57835183826101000a81548160ff021916908360ff1602179055509260200192600101602081600001049283019260010302613b4f565b8015613bba5782816101000a81549060ff0219169055600101602081600001049283019260010302613b8d565b505b509050613bc99190613c11565b5090565b6040805190810160405280600290602082028038833980820191505090505090565b6040805190810160405280600290602082028038833980820191505090505090565b613c3e91905b80821115613c3a57600081816101000a81549060ff021916905550600101613c17565b5090565b9056fea165627a7a72305820189d07431ab6a82feb079d4676fe800101e954bd11f5d9612895f4ee5cd8aefc0029",
  "source": "pragma solidity ^0.5.0;\n\nimport \"@openzeppelin/contracts/cryptography/ECDSA.sol\";\nimport \"@openzeppelin/contracts/access/Roles.sol\";\nimport \"@openzeppelin/contracts/ownership/Ownable.sol\";\nimport \"@openzeppelin/contracts/math/SafeMath.sol\";\nimport \"./Events.sol\";\n\ncontract AssetTokenInstance {\n    function balanceOf(address owner) public view returns (uint256);\n    function allowance(address owner, address spender) public view returns (uint256);\n    function transferFrom(address sender, address recipient, uint256 amount) public returns (bool);\n    function withdrawTo(address recipient, uint256 amount) public returns (bool);\n    function digitallWithdrawTo(address sender, address recipient, uint256 amount, uint256 salt) public returns (bool);\n}\n\ncontract UsersInstance {\n    function getExchangeFeeValues(address userAddress) public view returns (uint8[2] memory);\n    function isActive(address userAddress) public view returns (bool);\n    function isSuperUser(address userAddress) public view returns (bool);\n}\n\ncontract NonceTracking {\n    mapping(address => uint256) internal nonces;\n\n    modifier withNonce(address actor, uint256 nonce) {\n        require(nonce > nonces[actor], \"INVALID_NONCE\");\n        _;\n        nonces[actor] = nonce;\n    }\n\n    function getNonce() public view returns (uint256) {\n        return nonces[msg.sender];\n    }\n}\n\ncontract Exchange is NonceTracking, Ownable, Events {\n    using SafeMath for uint256;\n    using Roles for Roles.Role;\n\n    Roles.Role cryptoContracts;\n    Roles.Role admins;\n\n    address public UsersContractAddress;\n    address SignerAddress = 0xE6e5c6AAcE31eFa67F95624A1705ED7b8171C5BB;\n    address ExchangeFeeWallet = 0x9C51b65C5608c251f3715124666bB02aB14bc3D3;\n    mapping(address => uint8[2]) public priceModifiers;\n\n    uint8[2] public cryptoExchangeFeeValues = [1, 25]; // => 4% fee; eg. amount * 1 / 25\n\n    constructor(address usersAddress)\n        public\n    {\n        UsersContractAddress = usersAddress;\n    }\n\n    modifier active() {\n        UsersInstance u = UsersInstance(UsersContractAddress);\n        require(u.isActive(msg.sender), \"User is not active.\");\n        _;\n    }\n\n    modifier onlyAdmins() {\n        require(admins.has(msg.sender), \"Caller is not an admin.\");\n        _;\n    }\n\n    // Setters\n    function addAdmins(address[] memory newAdmins) public onlyOwner {\n        for(uint i = 0; i < newAdmins.length; i++) {\n            admins.add(newAdmins[i]);\n        }\n    }\n\n    function addCryptoContracts(address[] memory newContracts) public onlyOwner {\n        for(uint i = 0; i < newContracts.length; i++) {\n            cryptoContracts.add(newContracts[i]);\n        }\n    }\n\n    function addPriceModifiers(address[] memory newContracts, uint8[2][] memory values) public onlyOwner {\n        for(uint i = 0; i < newContracts.length; i++) {\n            priceModifiers[newContracts[i]] = values[i];\n        }\n    }\n\n    function setCryptoFeeValues(uint8[2] memory _newCryptoFeeValues) public onlyAdmins {\n        cryptoExchangeFeeValues = _newCryptoFeeValues;\n    }\n\n    function setExchangeFeeWallet(address newAddress) public onlyAdmins {\n        ExchangeFeeWallet = newAddress;\n    }\n\n    function setSignerAddress(address newAddress) public onlyAdmins {\n        SignerAddress = newAddress;\n    }\n\n    function setUsersContractAddress(address newAddress) public onlyAdmins {\n        UsersContractAddress = newAddress;\n    }\n\n    function feeScalar(address userAddress, address[2] memory addresses)\n        public\n        view\n        returns (uint256[2] memory)\n    {\n        UsersInstance u = UsersInstance(UsersContractAddress);\n\n        uint8[2] memory exchangeValues = u.getExchangeFeeValues(userAddress);\n        uint256 p0 = priceModifiers[addresses[1]][0];\n        uint256 p1 = priceModifiers[addresses[1]][1];\n        uint256 e0;\n        uint256 e1;\n        uint256 dividend;\n        uint256 divisor;\n\n        if (u.isSuperUser(userAddress)) {\n            dividend = 1;\n            divisor = 1;\n        } else if (cryptoContracts.has(addresses[0]) || cryptoContracts.has(addresses[1])) {\n            e0 = cryptoExchangeFeeValues[0];\n            e1 = cryptoExchangeFeeValues[1];\n            dividend = e1.mul(p1).sub(e0.mul(p1)).sub(e1.mul(p0));\n            divisor = e1.mul(p1);\n        } else {\n            e0 = exchangeValues[0];\n            e1 = exchangeValues[1];\n            dividend = e1.mul(p1).sub(e0.mul(p1)).sub(e1.mul(p0));\n            divisor = e1.mul(p1);\n        }\n\n        return [dividend, divisor];\n    }\n\n    // Determine fee based on user exchange values,\n    // divisor 0 exchanges for free,\n    // and exchanging to or from crypto results in a 4% fee.\n    function _calculateExchangeFee(address userAddress, uint256 value, address[2] memory addresses)\n        internal\n        view\n        returns (uint256)\n    {\n        UsersInstance u = UsersInstance(UsersContractAddress);\n\n        uint8[2] memory exchangeValues = u.getExchangeFeeValues(userAddress);\n        uint256 priceModification = value.mul(priceModifiers[addresses[1]][0]).div(priceModifiers[addresses[1]][1]);\n        uint256 fee;\n\n        if (u.isSuperUser(userAddress)) {\n            fee = 0;\n        } else if (cryptoContracts.has(addresses[0]) || cryptoContracts.has(addresses[1])) {\n            fee = value.mul(cryptoExchangeFeeValues[0]).div(cryptoExchangeFeeValues[1]).add(priceModification);\n        } else {\n            fee = value.mul(exchangeValues[0]).div(exchangeValues[1]).add(priceModification);\n        }\n\n        return fee;\n    }\n\n    function _exchangeTransfers(\n        uint256[4] memory values,\n        // [0] fromAmount\n        // [1] toAmount\n        // [2] fee\n        // [3] salt\n        address recipient,\n        address[2] memory addresses,\n        bool isExchangeAndTransfer\n    )\n        internal\n        returns (bool)\n    {\n        AssetTokenInstance f = AssetTokenInstance(addresses[0]);\n        AssetTokenInstance t = AssetTokenInstance(addresses[1]);\n\n        require(f.balanceOf(msg.sender) >= values[0], \"INSUFFICIENT_SENDER_TOKENS\");\n        require(f.allowance(msg.sender, address(this)) >= values[0], \"NOT_APPROVED\");\n        require(t.balanceOf(addresses[1]) >= values[1], \"INSUFFICIENT_CONTRACT_TOKENS\");\n\n        f.transferFrom(msg.sender, addresses[0], values[0]);\n        t.withdrawTo(ExchangeFeeWallet, values[2]);\n        if (isExchangeAndTransfer) {\n            t.digitallWithdrawTo(msg.sender, recipient, values[1].sub(values[2]), values[3]);\n        }  else {\n            t.withdrawTo(recipient, values[1].sub(values[2]));\n        }\n\n        return true;\n    }\n\n    function exchange(\n        uint256[3] memory exchangeValues,\n        // [0] fromAmount\n        // [1] toAmount\n        // [2] nonce\n        address[2] memory addresses,\n        // [0] fromAddress\n        // [1] toAddress\n        bytes memory sig\n    )\n        public\n        active\n        withNonce(msg.sender, exchangeValues[2])\n        returns (bool)\n    {\n        bytes32 message = keccak256(\n            abi.encodePacked(\n                exchangeValues[0],\n                exchangeValues[1],\n                addresses[0],\n                addresses[1],\n                exchangeValues[2]\n            )\n        );\n        address signer = ECDSA.recover(message, sig);\n        require(signer == SignerAddress, \"Incorrect signature.\");\n\n        uint256 fee = _calculateExchangeFee(msg.sender, exchangeValues[1], addresses);\n        _exchangeTransfers([exchangeValues[0], exchangeValues[1], fee, 1], msg.sender, addresses, false);\n        emit Exchange(addresses[0], addresses[1], exchangeValues[0], exchangeValues[1], fee);\n        return true;\n    }\n\n    function exchangeAndTransfer(\n        uint256[3] memory exchangeValues,\n        // [0] fromAmount\n        // [1] toAmount\n        // [2] nonce\n        address[2] memory addresses,\n        // [0] fromAddress\n        // [1] toAddress\n        address recipient,\n        bytes memory sig,\n        uint256 salt\n    )\n        public\n        active\n        withNonce(msg.sender, exchangeValues[2])\n        returns (bool)\n    {\n        bytes32 message = keccak256(\n            abi.encodePacked(\n                exchangeValues[0],\n                exchangeValues[1],\n                addresses[0],\n                addresses[1],\n                exchangeValues[2]\n            )\n        );\n        address signer = ECDSA.recover(message, sig);\n        require(signer == SignerAddress, \"Incorrect signature.\");\n\n        uint256 fee = _calculateExchangeFee(msg.sender, exchangeValues[1], addresses);\n        _exchangeTransfers([exchangeValues[0], exchangeValues[1], fee, salt], recipient, addresses, true);\n        emit ExchangeAndTransfer(addresses[0], addresses[1], exchangeValues[0], exchangeValues[1], fee, recipient);\n        return true;\n    }\n}\n",
  "sourcePath": "/Users/andy/coding/digitall-contracts/contracts/Exchange.sol",
  "compiler": {
    "name": "solc",
    "version": "0.5.0+commit.1d4f565a.Emscripten.clang"
  },
  "schemaVersion": "3.0.19",
  "updatedAt": "2020-06-18T21:27:49.483Z",
  "networkType": "ethereum",
  "devdoc": {
    "methods": {
      "isOwner()": {
        "details": "Returns true if the caller is the current owner."
      },
      "owner()": {
        "details": "Returns the address of the current owner."
      },
      "renounceOwnership()": {
        "details": "Leaves the contract without owner. It will not be possible to call `onlyOwner` functions anymore. Can only be called by the current owner.     * NOTE: Renouncing ownership will leave the contract without an owner, thereby removing any functionality that is only available to the owner."
      },
      "transferOwnership(address)": {
        "details": "Transfers ownership of the contract to a new account (`newOwner`). Can only be called by the current owner."
      }
    }
  },
  "userdoc": {
    "methods": {}
  }
}