{
  "contractName": "Refund",
  "abi": [
    {
      "constant": false,
      "inputs": [],
      "name": "renounceOwnership",
      "outputs": [],
      "payable": false,
      "stateMutability": "nonpayable",
      "type": "function"
    },
    {
      "constant": true,
      "inputs": [],
      "name": "owner",
      "outputs": [
        {
          "name": "",
          "type": "address"
        }
      ],
      "payable": false,
      "stateMutability": "view",
      "type": "function"
    },
    {
      "constant": true,
      "inputs": [],
      "name": "isOwner",
      "outputs": [
        {
          "name": "",
          "type": "bool"
        }
      ],
      "payable": false,
      "stateMutability": "view",
      "type": "function"
    },
    {
      "constant": true,
      "inputs": [
        {
          "name": "",
          "type": "uint256"
        }
      ],
      "name": "transactions",
      "outputs": [
        {
          "name": "transactionType",
          "type": "string"
        },
        {
          "name": "sender",
          "type": "address"
        },
        {
          "name": "recipient",
          "type": "address"
        },
        {
          "name": "tokenAddress",
          "type": "address"
        },
        {
          "name": "amount",
          "type": "uint256"
        },
        {
          "name": "refunded",
          "type": "bool"
        }
      ],
      "payable": false,
      "stateMutability": "view",
      "type": "function"
    },
    {
      "constant": false,
      "inputs": [
        {
          "name": "newOwner",
          "type": "address"
        }
      ],
      "name": "transferOwnership",
      "outputs": [],
      "payable": false,
      "stateMutability": "nonpayable",
      "type": "function"
    },
    {
      "anonymous": false,
      "inputs": [
        {
          "indexed": true,
          "name": "previousOwner",
          "type": "address"
        },
        {
          "indexed": true,
          "name": "newOwner",
          "type": "address"
        }
      ],
      "name": "OwnershipTransferred",
      "type": "event"
    },
    {
      "constant": false,
      "inputs": [
        {
          "name": "newContracts",
          "type": "address[]"
        }
      ],
      "name": "addAssetTokenContracts",
      "outputs": [],
      "payable": false,
      "stateMutability": "nonpayable",
      "type": "function"
    },
    {
      "constant": false,
      "inputs": [
        {
          "name": "transactionType",
          "type": "string"
        },
        {
          "name": "sender",
          "type": "address"
        },
        {
          "name": "recipient",
          "type": "address"
        },
        {
          "name": "tokenAddress",
          "type": "address"
        },
        {
          "name": "amount",
          "type": "uint256"
        }
      ],
      "name": "addTransaction",
      "outputs": [
        {
          "name": "",
          "type": "uint256"
        }
      ],
      "payable": false,
      "stateMutability": "nonpayable",
      "type": "function"
    },
    {
      "constant": false,
      "inputs": [
        {
          "name": "transactionId",
          "type": "uint256"
        },
        {
          "name": "refundee",
          "type": "address"
        },
        {
          "name": "assetTokenAddress",
          "type": "address"
        }
      ],
      "name": "refund",
      "outputs": [
        {
          "name": "",
          "type": "bool"
        }
      ],
      "payable": false,
      "stateMutability": "nonpayable",
      "type": "function"
    }
  ],
  "bytecode": "0x6080604052600061001d6100c0640100000000026401000000009004565b9050806000806101000a81548173ffffffffffffffffffffffffffffffffffffffff021916908373ffffffffffffffffffffffffffffffffffffffff1602179055508073ffffffffffffffffffffffffffffffffffffffff16600073ffffffffffffffffffffffffffffffffffffffff167f8be0079c531659141344cd1fd0a4f28419497f9722a3daafe3b4186f6b6457e060405160405180910390a3506100c8565b600033905090565b611929806100d76000396000f3fe60806040526004361061008e576000357c0100000000000000000000000000000000000000000000000000000000900463ffffffff1680632fc761e914610093578063715018a6146101d95780638da5cb5b146101f05780638f32d59b1461024757806396e83a40146102765780639ace38c214610309578063f2fde38b14610468578063f5de34d2146104b9575b600080fd5b34801561009f57600080fd5b506101c3600480360360a08110156100b657600080fd5b81019080803590602001906401000000008111156100d357600080fd5b8201836020820111156100e557600080fd5b8035906020019184600183028401116401000000008311171561010757600080fd5b91908080601f016020809104026020016040519081016040528093929190818152602001838380828437600081840152601f19601f820116905080830192505050505050509192919290803573ffffffffffffffffffffffffffffffffffffffff169060200190929190803573ffffffffffffffffffffffffffffffffffffffff169060200190929190803573ffffffffffffffffffffffffffffffffffffffff1690602001909291908035906020019092919050505061057e565b6040518082815260200191505060405180910390f35b3480156101e557600080fd5b506101ee610804565b005b3480156101fc57600080fd5b5061020561093f565b604051808273ffffffffffffffffffffffffffffffffffffffff1673ffffffffffffffffffffffffffffffffffffffff16815260200191505060405180910390f35b34801561025357600080fd5b5061025c610968565b604051808215151515815260200191505060405180910390f35b34801561028257600080fd5b506102ef6004803603606081101561029957600080fd5b8101908080359060200190929190803573ffffffffffffffffffffffffffffffffffffffff169060200190929190803573ffffffffffffffffffffffffffffffffffffffff1690602001909291905050506109c6565b604051808215151515815260200191505060405180910390f35b34801561031557600080fd5b506103426004803603602081101561032c57600080fd5b81019080803590602001909291905050506111bc565b60405180806020018773ffffffffffffffffffffffffffffffffffffffff1673ffffffffffffffffffffffffffffffffffffffff1681526020018673ffffffffffffffffffffffffffffffffffffffff1673ffffffffffffffffffffffffffffffffffffffff1681526020018573ffffffffffffffffffffffffffffffffffffffff1673ffffffffffffffffffffffffffffffffffffffff16815260200184815260200183151515158152602001828103825288818151815260200191508051906020019080838360005b8381101561042857808201518184015260208101905061040d565b50505050905090810190601f1680156104555780820380516001836020036101000a031916815260200191505b5097505050505050505060405180910390f35b34801561047457600080fd5b506104b76004803603602081101561048b57600080fd5b81019080803573ffffffffffffffffffffffffffffffffffffffff1690602001909291905050506112fd565b005b3480156104c557600080fd5b5061057c600480360360208110156104dc57600080fd5b81019080803590602001906401000000008111156104f957600080fd5b82018360208201111561050b57600080fd5b8035906020019184602083028401116401000000008311171561052d57600080fd5b919080806020026020016040519081016040528093929190818152602001838360200280828437600081840152601f19601f820116905080830192505050505050509192919290505050611385565b005b600061059433600361144c90919063ffffffff16565b151561062e576040517f08c379a00000000000000000000000000000000000000000000000000000000081526004018080602001828103825260258152602001807f43616c6c6572206973206e6f7420616e20617574686f72697a656420636f6e7481526020017f726163742e00000000000000000000000000000000000000000000000000000081525060400191505060405180910390fd5b6000600254905061063d6117dd565b60c0604051908101604052808981526020018873ffffffffffffffffffffffffffffffffffffffff1681526020018773ffffffffffffffffffffffffffffffffffffffff1681526020018673ffffffffffffffffffffffffffffffffffffffff168152602001858152602001600015158152509050806001600084815260200190815260200160002060008201518160000190805190602001906106e2929190611858565b5060208201518160010160006101000a81548173ffffffffffffffffffffffffffffffffffffffff021916908373ffffffffffffffffffffffffffffffffffffffff16021790555060408201518160020160006101000a81548173ffffffffffffffffffffffffffffffffffffffff021916908373ffffffffffffffffffffffffffffffffffffffff16021790555060608201518160030160006101000a81548173ffffffffffffffffffffffffffffffffffffffff021916908373ffffffffffffffffffffffffffffffffffffffff1602179055506080820151816004015560a08201518160050160006101000a81548160ff0219169083151502179055509050506001600260008282540192505081905550819250505095945050505050565b61080c610968565b1515610880576040517f08c379a00000000000000000000000000000000000000000000000000000000081526004018080602001828103825260208152602001807f4f776e61626c653a2063616c6c6572206973206e6f7420746865206f776e657281525060200191505060405180910390fd5b600073ffffffffffffffffffffffffffffffffffffffff166000809054906101000a900473ffffffffffffffffffffffffffffffffffffffff1673ffffffffffffffffffffffffffffffffffffffff167f8be0079c531659141344cd1fd0a4f28419497f9722a3daafe3b4186f6b6457e060405160405180910390a360008060006101000a81548173ffffffffffffffffffffffffffffffffffffffff021916908373ffffffffffffffffffffffffffffffffffffffff160217905550565b60008060009054906101000a900473ffffffffffffffffffffffffffffffffffffffff16905090565b60008060009054906101000a900473ffffffffffffffffffffffffffffffffffffffff1673ffffffffffffffffffffffffffffffffffffffff166109aa61156f565b73ffffffffffffffffffffffffffffffffffffffff1614905090565b600080829050600060016000878152602001908152602001600020905080600401548273ffffffffffffffffffffffffffffffffffffffff166370a08231336040518263ffffffff167c0100000000000000000000000000000000000000000000000000000000028152600401808273ffffffffffffffffffffffffffffffffffffffff1673ffffffffffffffffffffffffffffffffffffffff16815260200191505060206040518083038186803b158015610a8157600080fd5b505afa158015610a95573d6000803e3d6000fd5b505050506040513d6020811015610aab57600080fd5b810190808051906020019092919050505010151515610b58576040517f08c379a00000000000000000000000000000000000000000000000000000000081526004018080602001828103825260258152602001807f526566756e64657220646f6573206e6f74206861766520656e6f75676820746f81526020017f6b656e732e00000000000000000000000000000000000000000000000000000081525060400191505060405180910390fd5b80600401548273ffffffffffffffffffffffffffffffffffffffff1663dd62ed3e33306040518363ffffffff167c0100000000000000000000000000000000000000000000000000000000028152600401808373ffffffffffffffffffffffffffffffffffffffff1673ffffffffffffffffffffffffffffffffffffffff1681526020018273ffffffffffffffffffffffffffffffffffffffff1673ffffffffffffffffffffffffffffffffffffffff1681526020019250505060206040518083038186803b158015610c2a57600080fd5b505afa158015610c3e573d6000803e3d6000fd5b505050506040513d6020811015610c5457600080fd5b810190808051906020019092919050505010151515610d01576040517f08c379a00000000000000000000000000000000000000000000000000000000081526004018080602001828103825260388152602001807f436f6e7472616374206e6f7420617070726f76656420746f2073656e6420746f81526020017f6b656e73206f6e2073656e646572277320626568616c662e000000000000000081525060400191505060405180910390fd5b8473ffffffffffffffffffffffffffffffffffffffff168160010160009054906101000a900473ffffffffffffffffffffffffffffffffffffffff1673ffffffffffffffffffffffffffffffffffffffff16141515610dee576040517f08c379a00000000000000000000000000000000000000000000000000000000081526004018080602001828103825260338152602001807f526566756e646565206973206e6f74207468652073656e646572206f66206f7281526020017f6967696e616c207472616e73616374696f6e2e0000000000000000000000000081525060400191505060405180910390fd5b3373ffffffffffffffffffffffffffffffffffffffff168160020160009054906101000a900473ffffffffffffffffffffffffffffffffffffffff1673ffffffffffffffffffffffffffffffffffffffff16141515610edb576040517f08c379a00000000000000000000000000000000000000000000000000000000081526004018080602001828103825260368152602001807f526566756e646572206973206e6f742074686520726563697069656e74206f6681526020017f206f726967696e616c207472616e73616374696f6e2e0000000000000000000081525060400191505060405180910390fd5b8373ffffffffffffffffffffffffffffffffffffffff168160030160009054906101000a900473ffffffffffffffffffffffffffffffffffffffff1673ffffffffffffffffffffffffffffffffffffffff16141515610fc8576040517f08c379a00000000000000000000000000000000000000000000000000000000081526004018080602001828103825260368152602001807f417474656d7074696e6720746f2063616c6c20726566756e64206f6e2074686581526020017f2077726f6e6720617373657420636f6e74726163742e0000000000000000000081525060400191505060405180910390fd5b600015158160050160009054906101000a900460ff16151514151561107b576040517f08c379a00000000000000000000000000000000000000000000000000000000081526004018080602001828103825260268152602001807f5472616e73616374696f6e2068617320616c7265616479206265656e2072656681526020017f756e6465642e000000000000000000000000000000000000000000000000000081525060400191505060405180910390fd5b8173ffffffffffffffffffffffffffffffffffffffff166323b872dd338784600401546040518463ffffffff167c0100000000000000000000000000000000000000000000000000000000028152600401808473ffffffffffffffffffffffffffffffffffffffff1673ffffffffffffffffffffffffffffffffffffffff1681526020018373ffffffffffffffffffffffffffffffffffffffff1673ffffffffffffffffffffffffffffffffffffffff1681526020018281526020019350505050602060405180830381600087803b15801561115657600080fd5b505af115801561116a573d6000803e3d6000fd5b505050506040513d602081101561118057600080fd5b81019080805190602001909291905050505060018160050160006101000a81548160ff0219169083151502179055506001925050509392505050565b6001602052806000526040600020600091509050806000018054600181600116156101000203166002900480601f0160208091040260200160405190810160405280929190818152602001828054600181600116156101000203166002900480156112685780601f1061123d57610100808354040283529160200191611268565b820191906000526020600020905b81548152906001019060200180831161124b57829003601f168201915b5050505050908060010160009054906101000a900473ffffffffffffffffffffffffffffffffffffffff16908060020160009054906101000a900473ffffffffffffffffffffffffffffffffffffffff16908060030160009054906101000a900473ffffffffffffffffffffffffffffffffffffffff16908060040154908060050160009054906101000a900460ff16905086565b611305610968565b1515611379576040517f08c379a00000000000000000000000000000000000000000000000000000000081526004018080602001828103825260208152602001807f4f776e61626c653a2063616c6c6572206973206e6f7420746865206f776e657281525060200191505060405180910390fd5b61138281611577565b50565b61138d610968565b1515611401576040517f08c379a00000000000000000000000000000000000000000000000000000000081526004018080602001828103825260208152602001807f4f776e61626c653a2063616c6c6572206973206e6f7420746865206f776e657281525060200191505060405180910390fd5b60008090505b81518110156114485761143b828281518110151561142157fe5b90602001906020020151600361170090919063ffffffff16565b8080600101915050611407565b5050565b60008073ffffffffffffffffffffffffffffffffffffffff168273ffffffffffffffffffffffffffffffffffffffff1614151515611518576040517f08c379a00000000000000000000000000000000000000000000000000000000081526004018080602001828103825260228152602001807f526f6c65733a206163636f756e7420697320746865207a65726f20616464726581526020017f737300000000000000000000000000000000000000000000000000000000000081525060400191505060405180910390fd5b8260000160008373ffffffffffffffffffffffffffffffffffffffff1673ffffffffffffffffffffffffffffffffffffffff16815260200190815260200160002060009054906101000a900460ff16905092915050565b600033905090565b600073ffffffffffffffffffffffffffffffffffffffff168173ffffffffffffffffffffffffffffffffffffffff1614151515611642576040517f08c379a00000000000000000000000000000000000000000000000000000000081526004018080602001828103825260268152602001807f4f776e61626c653a206e6577206f776e657220697320746865207a65726f206181526020017f646472657373000000000000000000000000000000000000000000000000000081525060400191505060405180910390fd5b8073ffffffffffffffffffffffffffffffffffffffff166000809054906101000a900473ffffffffffffffffffffffffffffffffffffffff1673ffffffffffffffffffffffffffffffffffffffff167f8be0079c531659141344cd1fd0a4f28419497f9722a3daafe3b4186f6b6457e060405160405180910390a3806000806101000a81548173ffffffffffffffffffffffffffffffffffffffff021916908373ffffffffffffffffffffffffffffffffffffffff16021790555050565b61170a828261144c565b15151561177f576040517f08c379a000000000000000000000000000000000000000000000000000000000815260040180806020018281038252601f8152602001807f526f6c65733a206163636f756e7420616c72656164792068617320726f6c650081525060200191505060405180910390fd5b60018260000160008373ffffffffffffffffffffffffffffffffffffffff1673ffffffffffffffffffffffffffffffffffffffff16815260200190815260200160002060006101000a81548160ff0219169083151502179055505050565b60c06040519081016040528060608152602001600073ffffffffffffffffffffffffffffffffffffffff168152602001600073ffffffffffffffffffffffffffffffffffffffff168152602001600073ffffffffffffffffffffffffffffffffffffffff168152602001600081526020016000151581525090565b828054600181600116156101000203166002900490600052602060002090601f016020900481019282601f1061189957805160ff19168380011785556118c7565b828001600101855582156118c7579182015b828111156118c65782518255916020019190600101906118ab565b5b5090506118d491906118d8565b5090565b6118fa91905b808211156118f65760008160009055506001016118de565b5090565b9056fea165627a7a72305820d8612d44da6e6b9a8fbc4630048ec25d7f52c55571c94374039a85953aff54490029",
  "source": "pragma solidity ^0.5.0;\n\nimport \"@openzeppelin/contracts/access/Roles.sol\";\nimport \"@openzeppelin/contracts/ownership/Ownable.sol\";\n\ncontract AssetTokenInstance {\n    function balanceOf(address owner) public view returns (uint256);\n    function allowance(address owner, address spender) public view returns (uint256);\n    function transferFrom(address sender, address recipient, uint256 amount) public returns (bool);\n}\n\ncontract Refund is Ownable {\n    using Roles for Roles.Role;\n\n    struct Transaction {\n        string transactionType;\n        address sender;\n        address recipient;\n        address tokenAddress;\n        uint256 amount;\n        bool refunded;\n    }\n\n    mapping(uint256 => Transaction) public transactions;\n    uint256 totalTransactionsCount;\n\n    Roles.Role assetTokenContracts;\n\n    modifier onlyAssetTokenContracts() {\n        require(assetTokenContracts.has(msg.sender), \"Caller is not an authorized contract.\");\n        _;\n    }\n\n    function addAssetTokenContracts(address[] memory newContracts) public onlyOwner {\n        for(uint i = 0; i < newContracts.length; i++) {\n            assetTokenContracts.add(newContracts[i]);\n        }\n    }\n\n    function addTransaction(\n        string memory transactionType,\n        address sender,\n        address recipient,\n        address tokenAddress,\n        uint256 amount\n    )\n        public\n        onlyAssetTokenContracts\n        returns (uint256)\n    {\n        uint256 transactionId = totalTransactionsCount;\n\n        Transaction memory transaction = Transaction({\n            transactionType: transactionType,\n            sender: sender,\n            recipient: recipient,\n            tokenAddress: tokenAddress,\n            amount: amount,\n            refunded: false\n        });\n\n        transactions[transactionId] = transaction;\n        totalTransactionsCount += 1;\n        return transactionId;\n    }\n\n    function refund(uint256 transactionId, address refundee, address assetTokenAddress)\n        public\n        returns (bool)\n    {\n        AssetTokenInstance a = AssetTokenInstance(assetTokenAddress);\n        Transaction storage transaction = transactions[transactionId];\n\n        require(\n            a.balanceOf(msg.sender) >= transaction.amount,\n            \"Refunder does not have enough tokens.\"\n        );\n        require(\n            a.allowance(msg.sender, address(this)) >= transaction.amount,\n            \"Contract not approved to send tokens on sender's behalf.\"\n        );\n        require(\n            transaction.sender == refundee,\n            \"Refundee is not the sender of original transaction.\"\n        );\n        require(\n            transaction.recipient == msg.sender,\n            \"Refunder is not the recipient of original transaction.\"\n        );\n        require(\n            transaction.tokenAddress == assetTokenAddress,\n            \"Attempting to call refund on the wrong asset contract.\"\n        );\n        require(\n            transaction.refunded == false,\n            \"Transaction has already been refunded.\"\n        );\n\n        a.transferFrom(msg.sender, refundee, transaction.amount);\n        transaction.refunded = true;\n        return true;\n    }\n}",
  "sourcePath": "/Users/andy/coding/digitall-contracts/contracts/Refund.sol",
  "compiler": {
    "name": "solc",
    "version": "0.5.0+commit.1d4f565a.Emscripten.clang"
  },
  "schemaVersion": "3.0.19",
  "updatedAt": "2020-06-18T21:27:49.470Z",
  "networkType": "ethereum",
  "devdoc": {
    "methods": {
      "isOwner()": {
        "details": "Returns true if the caller is the current owner."
      },
      "owner()": {
        "details": "Returns the address of the current owner."
      },
      "renounceOwnership()": {
        "details": "Leaves the contract without owner. It will not be possible to call `onlyOwner` functions anymore. Can only be called by the current owner.     * NOTE: Renouncing ownership will leave the contract without an owner, thereby removing any functionality that is only available to the owner."
      },
      "transferOwnership(address)": {
        "details": "Transfers ownership of the contract to a new account (`newOwner`). Can only be called by the current owner."
      }
    }
  },
  "userdoc": {
    "methods": {}
  }
}