{
  "contractName": "Users",
  "abi": [
    {
      "constant": true,
      "inputs": [],
      "name": "InOnePlaceWallet",
      "outputs": [
        {
          "name": "",
          "type": "address"
        }
      ],
      "payable": false,
      "stateMutability": "view",
      "type": "function"
    },
    {
      "constant": true,
      "inputs": [
        {
          "name": "",
          "type": "uint256"
        }
      ],
      "name": "users",
      "outputs": [
        {
          "name": "userAddress",
          "type": "address"
        },
        {
          "name": "active",
          "type": "bool"
        },
        {
          "name": "referrerAddress",
          "type": "address"
        },
        {
          "name": "merchant",
          "type": "bool"
        },
        {
          "name": "remainingFreeTransactions",
          "type": "uint16"
        },
        {
          "name": "superReferrer",
          "type": "bool"
        },
        {
          "name": "superUser",
          "type": "bool"
        }
      ],
      "payable": false,
      "stateMutability": "view",
      "type": "function"
    },
    {
      "constant": true,
      "inputs": [],
      "name": "PrizeDrawWallet",
      "outputs": [
        {
          "name": "",
          "type": "address"
        }
      ],
      "payable": false,
      "stateMutability": "view",
      "type": "function"
    },
    {
      "constant": true,
      "inputs": [
        {
          "name": "",
          "type": "address"
        }
      ],
      "name": "addressToUserIndex",
      "outputs": [
        {
          "name": "",
          "type": "uint256"
        }
      ],
      "payable": false,
      "stateMutability": "view",
      "type": "function"
    },
    {
      "constant": true,
      "inputs": [],
      "name": "usersCount",
      "outputs": [
        {
          "name": "",
          "type": "uint256"
        }
      ],
      "payable": false,
      "stateMutability": "view",
      "type": "function"
    },
    {
      "constant": false,
      "inputs": [],
      "name": "renounceOwnership",
      "outputs": [],
      "payable": false,
      "stateMutability": "nonpayable",
      "type": "function"
    },
    {
      "constant": true,
      "inputs": [],
      "name": "owner",
      "outputs": [
        {
          "name": "",
          "type": "address"
        }
      ],
      "payable": false,
      "stateMutability": "view",
      "type": "function"
    },
    {
      "constant": true,
      "inputs": [],
      "name": "isOwner",
      "outputs": [
        {
          "name": "",
          "type": "bool"
        }
      ],
      "payable": false,
      "stateMutability": "view",
      "type": "function"
    },
    {
      "constant": false,
      "inputs": [
        {
          "name": "newOwner",
          "type": "address"
        }
      ],
      "name": "transferOwnership",
      "outputs": [],
      "payable": false,
      "stateMutability": "nonpayable",
      "type": "function"
    },
    {
      "inputs": [],
      "payable": false,
      "stateMutability": "nonpayable",
      "type": "constructor"
    },
    {
      "anonymous": false,
      "inputs": [
        {
          "indexed": false,
          "name": "userAddress",
          "type": "address"
        }
      ],
      "name": "NewUser",
      "type": "event"
    },
    {
      "anonymous": false,
      "inputs": [
        {
          "indexed": false,
          "name": "value",
          "type": "uint256"
        },
        {
          "indexed": false,
          "name": "symbol",
          "type": "string"
        }
      ],
      "name": "Deposit",
      "type": "event"
    },
    {
      "anonymous": false,
      "inputs": [
        {
          "indexed": false,
          "name": "userAddress",
          "type": "address"
        },
        {
          "indexed": false,
          "name": "referredAddress",
          "type": "address"
        },
        {
          "indexed": false,
          "name": "amount",
          "type": "uint256"
        },
        {
          "indexed": false,
          "name": "symbol",
          "type": "string"
        }
      ],
      "name": "MoneyEarned",
      "type": "event"
    },
    {
      "anonymous": false,
      "inputs": [
        {
          "indexed": false,
          "name": "transactionId",
          "type": "uint256"
        },
        {
          "indexed": false,
          "name": "symbol",
          "type": "string"
        },
        {
          "indexed": false,
          "name": "addressFrom",
          "type": "address"
        },
        {
          "indexed": false,
          "name": "addressTo",
          "type": "address"
        },
        {
          "indexed": false,
          "name": "value",
          "type": "uint256"
        },
        {
          "indexed": false,
          "name": "fee",
          "type": "uint256"
        },
        {
          "indexed": false,
          "name": "txType",
          "type": "string"
        }
      ],
      "name": "CustomTransfer",
      "type": "event"
    },
    {
      "anonymous": false,
      "inputs": [
        {
          "indexed": false,
          "name": "fromAddress",
          "type": "address"
        },
        {
          "indexed": false,
          "name": "toAddress",
          "type": "address"
        },
        {
          "indexed": false,
          "name": "fromAmount",
          "type": "uint256"
        },
        {
          "indexed": false,
          "name": "toAmount",
          "type": "uint256"
        },
        {
          "indexed": false,
          "name": "fee",
          "type": "uint256"
        }
      ],
      "name": "Exchange",
      "type": "event"
    },
    {
      "anonymous": false,
      "inputs": [
        {
          "indexed": false,
          "name": "fromAddress",
          "type": "address"
        },
        {
          "indexed": false,
          "name": "toAddress",
          "type": "address"
        },
        {
          "indexed": false,
          "name": "fromAmount",
          "type": "uint256"
        },
        {
          "indexed": false,
          "name": "toAmount",
          "type": "uint256"
        },
        {
          "indexed": false,
          "name": "fee",
          "type": "uint256"
        },
        {
          "indexed": false,
          "name": "recipient",
          "type": "address"
        }
      ],
      "name": "ExchangeAndTransfer",
      "type": "event"
    },
    {
      "anonymous": false,
      "inputs": [
        {
          "indexed": false,
          "name": "recipient",
          "type": "address"
        },
        {
          "indexed": false,
          "name": "symbol",
          "type": "string"
        },
        {
          "indexed": false,
          "name": "value",
          "type": "uint256"
        },
        {
          "indexed": false,
          "name": "fee",
          "type": "uint256"
        }
      ],
      "name": "CreditCardPurchase",
      "type": "event"
    },
    {
      "anonymous": false,
      "inputs": [
        {
          "indexed": true,
          "name": "previousOwner",
          "type": "address"
        },
        {
          "indexed": true,
          "name": "newOwner",
          "type": "address"
        }
      ],
      "name": "OwnershipTransferred",
      "type": "event"
    },
    {
      "constant": false,
      "inputs": [
        {
          "name": "newContracts",
          "type": "address[]"
        }
      ],
      "name": "addDigitallContracts",
      "outputs": [],
      "payable": false,
      "stateMutability": "nonpayable",
      "type": "function"
    },
    {
      "constant": false,
      "inputs": [
        {
          "name": "newContracts",
          "type": "address[]"
        }
      ],
      "name": "addAssetTokenContracts",
      "outputs": [],
      "payable": false,
      "stateMutability": "nonpayable",
      "type": "function"
    },
    {
      "constant": false,
      "inputs": [
        {
          "name": "newAdmins",
          "type": "address[]"
        }
      ],
      "name": "addAdmins",
      "outputs": [],
      "payable": false,
      "stateMutability": "nonpayable",
      "type": "function"
    },
    {
      "constant": false,
      "inputs": [
        {
          "name": "isMerchant",
          "type": "bool"
        }
      ],
      "name": "createUser",
      "outputs": [
        {
          "name": "",
          "type": "uint256"
        }
      ],
      "payable": false,
      "stateMutability": "nonpayable",
      "type": "function"
    },
    {
      "constant": true,
      "inputs": [
        {
          "name": "userAddress",
          "type": "address"
        }
      ],
      "name": "isActive",
      "outputs": [
        {
          "name": "",
          "type": "bool"
        }
      ],
      "payable": false,
      "stateMutability": "view",
      "type": "function"
    },
    {
      "constant": true,
      "inputs": [
        {
          "name": "userAddress",
          "type": "address"
        }
      ],
      "name": "isSuperUser",
      "outputs": [
        {
          "name": "",
          "type": "bool"
        }
      ],
      "payable": false,
      "stateMutability": "view",
      "type": "function"
    },
    {
      "constant": true,
      "inputs": [
        {
          "name": "userAddress",
          "type": "address"
        }
      ],
      "name": "isSuperReferrer",
      "outputs": [
        {
          "name": "",
          "type": "bool"
        }
      ],
      "payable": false,
      "stateMutability": "view",
      "type": "function"
    },
    {
      "constant": true,
      "inputs": [
        {
          "name": "userAddress",
          "type": "address"
        }
      ],
      "name": "isMerchant",
      "outputs": [
        {
          "name": "",
          "type": "bool"
        }
      ],
      "payable": false,
      "stateMutability": "view",
      "type": "function"
    },
    {
      "constant": true,
      "inputs": [
        {
          "name": "_index",
          "type": "uint256"
        }
      ],
      "name": "getUserAddress",
      "outputs": [
        {
          "name": "",
          "type": "address"
        }
      ],
      "payable": false,
      "stateMutability": "view",
      "type": "function"
    },
    {
      "constant": true,
      "inputs": [
        {
          "name": "userAddress",
          "type": "address"
        }
      ],
      "name": "getTransactionFeeValues",
      "outputs": [
        {
          "name": "",
          "type": "uint8[2]"
        }
      ],
      "payable": false,
      "stateMutability": "view",
      "type": "function"
    },
    {
      "constant": true,
      "inputs": [
        {
          "name": "userAddress",
          "type": "address"
        }
      ],
      "name": "getRemainingFreeTransactions",
      "outputs": [
        {
          "name": "",
          "type": "uint16"
        }
      ],
      "payable": false,
      "stateMutability": "view",
      "type": "function"
    },
    {
      "constant": true,
      "inputs": [
        {
          "name": "userAddress",
          "type": "address"
        }
      ],
      "name": "getReferrerAddress",
      "outputs": [
        {
          "name": "",
          "type": "address"
        }
      ],
      "payable": false,
      "stateMutability": "view",
      "type": "function"
    },
    {
      "constant": true,
      "inputs": [
        {
          "name": "userAddress",
          "type": "address"
        }
      ],
      "name": "getExchangeFeeValues",
      "outputs": [
        {
          "name": "",
          "type": "uint8[2]"
        }
      ],
      "payable": false,
      "stateMutability": "view",
      "type": "function"
    },
    {
      "constant": false,
      "inputs": [
        {
          "name": "userAddress",
          "type": "address"
        },
        {
          "name": "newStatus",
          "type": "bool"
        }
      ],
      "name": "setStatus",
      "outputs": [
        {
          "name": "",
          "type": "bool"
        }
      ],
      "payable": false,
      "stateMutability": "nonpayable",
      "type": "function"
    },
    {
      "constant": false,
      "inputs": [
        {
          "name": "userAddress",
          "type": "address"
        },
        {
          "name": "newMerchant",
          "type": "bool"
        }
      ],
      "name": "setMerchant",
      "outputs": [
        {
          "name": "",
          "type": "bool"
        }
      ],
      "payable": false,
      "stateMutability": "nonpayable",
      "type": "function"
    },
    {
      "constant": false,
      "inputs": [
        {
          "name": "userAddress",
          "type": "address"
        },
        {
          "name": "newStatus",
          "type": "bool"
        }
      ],
      "name": "setSuperUser",
      "outputs": [
        {
          "name": "",
          "type": "bool"
        }
      ],
      "payable": false,
      "stateMutability": "nonpayable",
      "type": "function"
    },
    {
      "constant": false,
      "inputs": [
        {
          "name": "userAddress",
          "type": "address"
        },
        {
          "name": "newStatus",
          "type": "bool"
        }
      ],
      "name": "setSuperReferrer",
      "outputs": [
        {
          "name": "",
          "type": "bool"
        }
      ],
      "payable": false,
      "stateMutability": "nonpayable",
      "type": "function"
    },
    {
      "constant": false,
      "inputs": [
        {
          "name": "userAddress",
          "type": "address"
        },
        {
          "name": "newExchangeFeeValues",
          "type": "uint8[2]"
        }
      ],
      "name": "setExchangeFeeValues",
      "outputs": [
        {
          "name": "",
          "type": "bool"
        }
      ],
      "payable": false,
      "stateMutability": "nonpayable",
      "type": "function"
    },
    {
      "constant": false,
      "inputs": [
        {
          "name": "userAddress",
          "type": "address"
        },
        {
          "name": "newTransactionFeeValues",
          "type": "uint8[2]"
        }
      ],
      "name": "setTransactionFeeValues",
      "outputs": [
        {
          "name": "",
          "type": "bool"
        }
      ],
      "payable": false,
      "stateMutability": "nonpayable",
      "type": "function"
    },
    {
      "constant": false,
      "inputs": [
        {
          "name": "userAddress",
          "type": "address"
        },
        {
          "name": "amount",
          "type": "uint16"
        }
      ],
      "name": "increaseRemainingFreeTransactions",
      "outputs": [
        {
          "name": "",
          "type": "bool"
        }
      ],
      "payable": false,
      "stateMutability": "nonpayable",
      "type": "function"
    },
    {
      "constant": false,
      "inputs": [
        {
          "name": "userAddress",
          "type": "address"
        },
        {
          "name": "newRemainingFreeTransactions",
          "type": "uint16"
        }
      ],
      "name": "setRemainingFreeTransactions",
      "outputs": [
        {
          "name": "",
          "type": "bool"
        }
      ],
      "payable": false,
      "stateMutability": "nonpayable",
      "type": "function"
    },
    {
      "constant": false,
      "inputs": [
        {
          "name": "userAddress",
          "type": "address"
        },
        {
          "name": "referrerAddress",
          "type": "address"
        }
      ],
      "name": "setReferrerAddress",
      "outputs": [
        {
          "name": "",
          "type": "bool"
        }
      ],
      "payable": false,
      "stateMutability": "nonpayable",
      "type": "function"
    },
    {
      "constant": false,
      "inputs": [
        {
          "name": "userAddress",
          "type": "address"
        }
      ],
      "name": "decrementFreeTransactions",
      "outputs": [
        {
          "name": "",
          "type": "bool"
        }
      ],
      "payable": false,
      "stateMutability": "nonpayable",
      "type": "function"
    }
  ],
  "bytecode": "0x608060405273ceacce738b5c4e03b45561bfb5b3796b63cfecdd600760006101000a81548173ffffffffffffffffffffffffffffffffffffffff021916908373ffffffffffffffffffffffffffffffffffffffff16021790555073a1c86295e88fcfadef9fb518dc7201c85699d401600860006101000a81548173ffffffffffffffffffffffffffffffffffffffff021916908373ffffffffffffffffffffffffffffffffffffffff160217905550348015620000bb57600080fd5b506000620000d76200042e640100000000026401000000009004565b9050806000806101000a81548173ffffffffffffffffffffffffffffffffffffffff021916908373ffffffffffffffffffffffffffffffffffffffff1602179055508073ffffffffffffffffffffffffffffffffffffffff16600073ffffffffffffffffffffffffffffffffffffffff167f8be0079c531659141344cd1fd0a4f28419497f9722a3daafe3b4186f6b6457e060405160405180910390a3506200017f62000436565b610120604051908101604052803073ffffffffffffffffffffffffffffffffffffffff168152602001600015158152602001600073ffffffffffffffffffffffffffffffffffffffff1681526020016001151581526020016040805190810160405280600060ff168152602001600160ff1681525081526020016040805190810160405280600060ff168152602001600160ff168152508152602001600061ffff16815260200160011515815260200160011515815250905060006001829080600181540180825580915050906001820390600052602060002090600502016000909192909190915060008201518160000160006101000a81548173ffffffffffffffffffffffffffffffffffffffff021916908373ffffffffffffffffffffffffffffffffffffffff16021790555060208201518160000160146101000a81548160ff02191690831515021790555060408201518160010160006101000a81548173ffffffffffffffffffffffffffffffffffffffff021916908373ffffffffffffffffffffffffffffffffffffffff16021790555060608201518160010160146101000a81548160ff0219169083151502179055506080820151816002019060026200034f929190620004cb565b5060a08201518160030190600262000369929190620004cb565b5060c08201518160040160006101000a81548161ffff021916908361ffff16021790555060e08201518160040160026101000a81548160ff0219169083151502179055506101008201518160040160036101000a81548160ff0219169083151502179055505050905060006001820390508160038190555080600260003073ffffffffffffffffffffffffffffffffffffffff1673ffffffffffffffffffffffffffffffffffffffff16815260200190815260200160002081905550505050620005c1565b600033905090565b61016060405190810160405280600073ffffffffffffffffffffffffffffffffffffffff168152602001600015158152602001600073ffffffffffffffffffffffffffffffffffffffff168152602001600015158152602001620004996200056c565b8152602001620004a86200056c565b8152602001600061ffff1681526020016000151581526020016000151581525090565b826002601f01602090048101928215620005595791602002820160005b838211156200052857835183826101000a81548160ff021916908360ff1602179055509260200192600101602081600001049283019260010302620004e8565b8015620005575782816101000a81549060ff021916905560010160208160000104928301926001030262000528565b505b5090506200056891906200058e565b5090565b6040805190810160405280600290602082028038833980820191505090505090565b620005be91905b80821115620005ba57600081816101000a81549060ff02191690555060010162000595565b5090565b90565b613c4680620005d16000396000f3fe608060405260043610610196576000357c0100000000000000000000000000000000000000000000000000000000900463ffffffff16806309f908661461019b5780631a2f7167146102245780632533c95f1461028d578063365b98b2146102e45780633cf269a5146103cd5780633d6ac3e91461045a57806342867a3e146104d157806345655b4e146105465780635115b66f146105bb578063562fe8d91461061257806361799c221461069f5780636a5cce96146107045780636ba13a821461076d578063715018a61461079857806377437dad146107af578063801ae66f1461081c5780638c3098e8146108915780638da5cb5b146109085780638f32d59b1461095f57806390073f721461098e57806390d976e214610a535780639c54df6414610ace5780639f8a13d714610b93578063ab8ae5b014610bfc578063b304f21c14610c4d578063b8d04f4e14610cc2578063c1ca41ed14610d53578063cd784d1b14610dfd578063ce8f305d14610e66578063d5af1cf214610f10578063f2fde38b14610f79578063f5de34d214610fca575b600080fd5b3480156101a757600080fd5b5061020a600480360360408110156101be57600080fd5b81019080803573ffffffffffffffffffffffffffffffffffffffff169060200190929190803573ffffffffffffffffffffffffffffffffffffffff16906020019092919050505061108f565b604051808215151515815260200191505060405180910390f35b34801561023057600080fd5b506102736004803603602081101561024757600080fd5b81019080803573ffffffffffffffffffffffffffffffffffffffff169060200190929190505050611280565b604051808215151515815260200191505060405180910390f35b34801561029957600080fd5b506102a26113b5565b604051808273ffffffffffffffffffffffffffffffffffffffff1673ffffffffffffffffffffffffffffffffffffffff16815260200191505060405180910390f35b3480156102f057600080fd5b5061031d6004803603602081101561030757600080fd5b81019080803590602001909291905050506113db565b604051808873ffffffffffffffffffffffffffffffffffffffff1673ffffffffffffffffffffffffffffffffffffffff168152602001871515151581526020018673ffffffffffffffffffffffffffffffffffffffff1673ffffffffffffffffffffffffffffffffffffffff168152602001851515151581526020018461ffff1661ffff168152602001831515151581526020018215151515815260200197505050505050505060405180910390f35b3480156103d957600080fd5b5061041c600480360360208110156103f057600080fd5b81019080803573ffffffffffffffffffffffffffffffffffffffff1690602001909291905050506114ae565b6040518082600260200280838360005b8381101561044757808201518184015260208101905061042c565b5050505090500191505060405180910390f35b34801561046657600080fd5b506104b76004803603604081101561047d57600080fd5b81019080803573ffffffffffffffffffffffffffffffffffffffff169060200190929190803561ffff16906020019092919050505061163d565b604051808215151515815260200191505060405180910390f35b3480156104dd57600080fd5b5061052c600480360360408110156104f457600080fd5b81019080803573ffffffffffffffffffffffffffffffffffffffff16906020019092919080351515906020019092919050505061180a565b604051808215151515815260200191505060405180910390f35b34801561055257600080fd5b506105a16004803603604081101561056957600080fd5b81019080803573ffffffffffffffffffffffffffffffffffffffff1690602001909291908035151590602001909291905050506119d4565b604051808215151515815260200191505060405180910390f35b3480156105c757600080fd5b506105d0611b9e565b604051808273ffffffffffffffffffffffffffffffffffffffff1673ffffffffffffffffffffffffffffffffffffffff16815260200191505060405180910390f35b34801561061e57600080fd5b506106616004803603602081101561063557600080fd5b81019080803573ffffffffffffffffffffffffffffffffffffffff169060200190929190505050611bc4565b6040518082600260200280838360005b8381101561068c578082015181840152602081019050610671565b5050505090500191505060405180910390f35b3480156106ab57600080fd5b506106ee600480360360208110156106c257600080fd5b81019080803573ffffffffffffffffffffffffffffffffffffffff169060200190929190505050611d53565b6040518082815260200191505060405180910390f35b34801561071057600080fd5b506107536004803603602081101561072757600080fd5b81019080803573ffffffffffffffffffffffffffffffffffffffff169060200190929190505050611d6b565b604051808215151515815260200191505060405180910390f35b34801561077957600080fd5b50610782611ea0565b6040518082815260200191505060405180910390f35b3480156107a457600080fd5b506107ad611ea6565b005b3480156107bb57600080fd5b506107fe600480360360208110156107d257600080fd5b81019080803573ffffffffffffffffffffffffffffffffffffffff169060200190929190505050611fe1565b604051808261ffff1661ffff16815260200191505060405180910390f35b34801561082857600080fd5b506108776004803603604081101561083f57600080fd5b81019080803573ffffffffffffffffffffffffffffffffffffffff169060200190929190803515159060200190929190505050612117565b604051808215151515815260200191505060405180910390f35b34801561089d57600080fd5b506108ee600480360360408110156108b457600080fd5b81019080803573ffffffffffffffffffffffffffffffffffffffff169060200190929190803561ffff1690602001909291905050506122e1565b604051808215151515815260200191505060405180910390f35b34801561091457600080fd5b5061091d6124c1565b604051808273ffffffffffffffffffffffffffffffffffffffff1673ffffffffffffffffffffffffffffffffffffffff16815260200191505060405180910390f35b34801561096b57600080fd5b506109746124ea565b604051808215151515815260200191505060405180910390f35b34801561099a57600080fd5b50610a51600480360360208110156109b157600080fd5b81019080803590602001906401000000008111156109ce57600080fd5b8201836020820111156109e057600080fd5b80359060200191846020830284011164010000000083111715610a0257600080fd5b919080806020026020016040519081016040528093929190818152602001838360200280828437600081840152601f19601f820116905080830192505050505050509192919290505050612548565b005b348015610a5f57600080fd5b50610a8c60048036036020811015610a7657600080fd5b810190808035906020019092919050505061260f565b604051808273ffffffffffffffffffffffffffffffffffffffff1673ffffffffffffffffffffffffffffffffffffffff16815260200191505060405180910390f35b348015610ada57600080fd5b50610b9160048036036020811015610af157600080fd5b8101908080359060200190640100000000811115610b0e57600080fd5b820183602082011115610b2057600080fd5b80359060200191846020830284011164010000000083111715610b4257600080fd5b919080806020026020016040519081016040528093929190818152602001838360200280828437600081840152601f19601f82011690508083019250505050505050919291929050505061265e565b005b348015610b9f57600080fd5b50610be260048036036020811015610bb657600080fd5b81019080803573ffffffffffffffffffffffffffffffffffffffff169060200190929190505050612725565b604051808215151515815260200191505060405180910390f35b348015610c0857600080fd5b50610c3760048036036020811015610c1f57600080fd5b8101908080351515906020019092919050505061285a565b6040518082815260200191505060405180910390f35b348015610c5957600080fd5b50610ca860048036036040811015610c7057600080fd5b81019080803573ffffffffffffffffffffffffffffffffffffffff169060200190929190803515159060200190929190505050612bc9565b604051808215151515815260200191505060405180910390f35b348015610cce57600080fd5b50610d1160048036036020811015610ce557600080fd5b81019080803573ffffffffffffffffffffffffffffffffffffffff169060200190929190505050612d93565b604051808273ffffffffffffffffffffffffffffffffffffffff1673ffffffffffffffffffffffffffffffffffffffff16815260200191505060405180910390f35b348015610d5f57600080fd5b50610de360048036036060811015610d7657600080fd5b81019080803573ffffffffffffffffffffffffffffffffffffffff16906020019092919080604001906002806020026040519081016040528092919082600260200280828437600081840152601f19601f8201169050808301925050505050509192919290505050612edb565b604051808215151515815260200191505060405180910390f35b348015610e0957600080fd5b50610e4c60048036036020811015610e2057600080fd5b81019080803573ffffffffffffffffffffffffffffffffffffffff16906020019092919050505061309d565b604051808215151515815260200191505060405180910390f35b348015610e7257600080fd5b50610ef660048036036060811015610e8957600080fd5b81019080803573ffffffffffffffffffffffffffffffffffffffff16906020019092919080604001906002806020026040519081016040528092919082600260200280828437600081840152601f19601f82011690508083019250505050505091929192905050506131d2565b604051808215151515815260200191505060405180910390f35b348015610f1c57600080fd5b50610f5f60048036036020811015610f3357600080fd5b81019080803573ffffffffffffffffffffffffffffffffffffffff169060200190929190505050613394565b604051808215151515815260200191505060405180910390f35b348015610f8557600080fd5b50610fc860048036036020811015610f9c57600080fd5b81019080803573ffffffffffffffffffffffffffffffffffffffff169060200190929190505050613501565b005b348015610fd657600080fd5b5061108d60048036036020811015610fed57600080fd5b810190808035906020019064010000000081111561100a57600080fd5b82018360208201111561101c57600080fd5b8035906020019184602083028401116401000000008311171561103e57600080fd5b919080806020026020016040519081016040528093929190818152602001838360200280828437600081840152601f19601f820116905080830192505050505050509192919290505050613589565b005b60006110a533600661365090919063ffffffff16565b1515611119576040517f08c379a00000000000000000000000000000000000000000000000000000000081526004018080602001828103825260178152602001807f43616c6c6572206973206e6f7420616e2061646d696e2e00000000000000000081525060200191505060405180910390fd5b826000600260008373ffffffffffffffffffffffffffffffffffffffff1673ffffffffffffffffffffffffffffffffffffffff168152602001908152602001600020541115156111d1576040517f08c379a00000000000000000000000000000000000000000000000000000000081526004018080602001828103825260148152602001807f5573657220646f6573206e6f742065786973742e00000000000000000000000081525060200191505060405180910390fd5b60006001600260008773ffffffffffffffffffffffffffffffffffffffff1673ffffffffffffffffffffffffffffffffffffffff1681526020019081526020016000205481548110151561122157fe5b90600052602060002090600502019050838160010160006101000a81548173ffffffffffffffffffffffffffffffffffffffff021916908373ffffffffffffffffffffffffffffffffffffffff16021790555060019250505092915050565b6000816000600260008373ffffffffffffffffffffffffffffffffffffffff1673ffffffffffffffffffffffffffffffffffffffff1681526020019081526020016000205411151561133a576040517f08c379a00000000000000000000000000000000000000000000000000000000081526004018080602001828103825260148152602001807f5573657220646f6573206e6f742065786973742e00000000000000000000000081525060200191505060405180910390fd5b60006001600260008673ffffffffffffffffffffffffffffffffffffffff1673ffffffffffffffffffffffffffffffffffffffff1681526020019081526020016000205481548110151561138a57fe5b906000526020600020906005020190508060010160149054906101000a900460ff1692505050919050565b600760009054906101000a900473ffffffffffffffffffffffffffffffffffffffff1681565b6001818154811015156113ea57fe5b90600052602060002090600502016000915090508060000160009054906101000a900473ffffffffffffffffffffffffffffffffffffffff16908060000160149054906101000a900460ff16908060010160009054906101000a900473ffffffffffffffffffffffffffffffffffffffff16908060010160149054906101000a900460ff16908060040160009054906101000a900461ffff16908060040160029054906101000a900460ff16908060040160039054906101000a900460ff16905087565b6114b66139e1565b816000600260008373ffffffffffffffffffffffffffffffffffffffff1673ffffffffffffffffffffffffffffffffffffffff1681526020019081526020016000205411151561156e576040517f08c379a00000000000000000000000000000000000000000000000000000000081526004018080602001828103825260148152602001807f5573657220646f6573206e6f742065786973742e00000000000000000000000081525060200191505060405180910390fd5b60006001600260008673ffffffffffffffffffffffffffffffffffffffff1673ffffffffffffffffffffffffffffffffffffffff168152602001908152602001600020548154811015156115be57fe5b906000526020600020906005020190508060030160028060200260405190810160405280929190826002801561162f576020028201916000905b82829054906101000a900460ff1660ff16815260200190600101906020826000010492830192600103820291508084116115f85790505b505050505092505050919050565b600061165333600661365090919063ffffffff16565b15156116c7576040517f08c379a00000000000000000000000000000000000000000000000000000000081526004018080602001828103825260178152602001807f43616c6c6572206973206e6f7420616e2061646d696e2e00000000000000000081525060200191505060405180910390fd5b826000600260008373ffffffffffffffffffffffffffffffffffffffff1673ffffffffffffffffffffffffffffffffffffffff1681526020019081526020016000205411151561177f576040517f08c379a00000000000000000000000000000000000000000000000000000000081526004018080602001828103825260148152602001807f5573657220646f6573206e6f742065786973742e00000000000000000000000081525060200191505060405180910390fd5b60006001600260008773ffffffffffffffffffffffffffffffffffffffff1673ffffffffffffffffffffffffffffffffffffffff168152602001908152602001600020548154811015156117cf57fe5b90600052602060002090600502019050838160040160006101000a81548161ffff021916908361ffff16021790555060019250505092915050565b600061182033600661365090919063ffffffff16565b1515611894576040517f08c379a00000000000000000000000000000000000000000000000000000000081526004018080602001828103825260178152602001807f43616c6c6572206973206e6f7420616e2061646d696e2e00000000000000000081525060200191505060405180910390fd5b826000600260008373ffffffffffffffffffffffffffffffffffffffff1673ffffffffffffffffffffffffffffffffffffffff1681526020019081526020016000205411151561194c576040517f08c379a00000000000000000000000000000000000000000000000000000000081526004018080602001828103825260148152602001807f5573657220646f6573206e6f742065786973742e00000000000000000000000081525060200191505060405180910390fd5b60006001600260008773ffffffffffffffffffffffffffffffffffffffff1673ffffffffffffffffffffffffffffffffffffffff1681526020019081526020016000205481548110151561199c57fe5b90600052602060002090600502019050838160040160026101000a81548160ff02191690831515021790555060019250505092915050565b60006119ea33600661365090919063ffffffff16565b1515611a5e576040517f08c379a00000000000000000000000000000000000000000000000000000000081526004018080602001828103825260178152602001807f43616c6c6572206973206e6f7420616e2061646d696e2e00000000000000000081525060200191505060405180910390fd5b826000600260008373ffffffffffffffffffffffffffffffffffffffff1673ffffffffffffffffffffffffffffffffffffffff16815260200190815260200160002054111515611b16576040517f08c379a00000000000000000000000000000000000000000000000000000000081526004018080602001828103825260148152602001807f5573657220646f6573206e6f742065786973742e00000000000000000000000081525060200191505060405180910390fd5b60006001600260008773ffffffffffffffffffffffffffffffffffffffff1673ffffffffffffffffffffffffffffffffffffffff16815260200190815260200160002054815481101515611b6657fe5b90600052602060002090600502019050838160040160036101000a81548160ff02191690831515021790555060019250505092915050565b600860009054906101000a900473ffffffffffffffffffffffffffffffffffffffff1681565b611bcc6139e1565b816000600260008373ffffffffffffffffffffffffffffffffffffffff1673ffffffffffffffffffffffffffffffffffffffff16815260200190815260200160002054111515611c84576040517f08c379a00000000000000000000000000000000000000000000000000000000081526004018080602001828103825260148152602001807f5573657220646f6573206e6f742065786973742e00000000000000000000000081525060200191505060405180910390fd5b60006001600260008673ffffffffffffffffffffffffffffffffffffffff1673ffffffffffffffffffffffffffffffffffffffff16815260200190815260200160002054815481101515611cd457fe5b9060005260206000209060050201905080600201600280602002604051908101604052809291908260028015611d45576020028201916000905b82829054906101000a900460ff1660ff1681526020019060010190602082600001049283019260010382029150808411611d0e5790505b505050505092505050919050565b60026020528060005260406000206000915090505481565b6000816000600260008373ffffffffffffffffffffffffffffffffffffffff1673ffffffffffffffffffffffffffffffffffffffff16815260200190815260200160002054111515611e25576040517f08c379a00000000000000000000000000000000000000000000000000000000081526004018080602001828103825260148152602001807f5573657220646f6573206e6f742065786973742e00000000000000000000000081525060200191505060405180910390fd5b60006001600260008673ffffffffffffffffffffffffffffffffffffffff1673ffffffffffffffffffffffffffffffffffffffff16815260200190815260200160002054815481101515611e7557fe5b906000526020600020906005020190508060040160029054906101000a900460ff1692505050919050565b60035481565b611eae6124ea565b1515611f22576040517f08c379a00000000000000000000000000000000000000000000000000000000081526004018080602001828103825260208152602001807f4f776e61626c653a2063616c6c6572206973206e6f7420746865206f776e657281525060200191505060405180910390fd5b600073ffffffffffffffffffffffffffffffffffffffff166000809054906101000a900473ffffffffffffffffffffffffffffffffffffffff1673ffffffffffffffffffffffffffffffffffffffff167f8be0079c531659141344cd1fd0a4f28419497f9722a3daafe3b4186f6b6457e060405160405180910390a360008060006101000a81548173ffffffffffffffffffffffffffffffffffffffff021916908373ffffffffffffffffffffffffffffffffffffffff160217905550565b6000816000600260008373ffffffffffffffffffffffffffffffffffffffff1673ffffffffffffffffffffffffffffffffffffffff1681526020019081526020016000205411151561209b576040517f08c379a00000000000000000000000000000000000000000000000000000000081526004018080602001828103825260148152602001807f5573657220646f6573206e6f742065786973742e00000000000000000000000081525060200191505060405180910390fd5b60006001600260008673ffffffffffffffffffffffffffffffffffffffff1673ffffffffffffffffffffffffffffffffffffffff168152602001908152602001600020548154811015156120eb57fe5b906000526020600020906005020190508060040160009054906101000a900461ffff1692505050919050565b600061212d33600661365090919063ffffffff16565b15156121a1576040517f08c379a00000000000000000000000000000000000000000000000000000000081526004018080602001828103825260178152602001807f43616c6c6572206973206e6f7420616e2061646d696e2e00000000000000000081525060200191505060405180910390fd5b826000600260008373ffffffffffffffffffffffffffffffffffffffff1673ffffffffffffffffffffffffffffffffffffffff16815260200190815260200160002054111515612259576040517f08c379a00000000000000000000000000000000000000000000000000000000081526004018080602001828103825260148152602001807f5573657220646f6573206e6f742065786973742e00000000000000000000000081525060200191505060405180910390fd5b60006001600260008773ffffffffffffffffffffffffffffffffffffffff1673ffffffffffffffffffffffffffffffffffffffff168152602001908152602001600020548154811015156122a957fe5b90600052602060002090600502019050838160010160146101000a81548160ff02191690831515021790555060019250505092915050565b60006122f733600661365090919063ffffffff16565b151561236b576040517f08c379a00000000000000000000000000000000000000000000000000000000081526004018080602001828103825260178152602001807f43616c6c6572206973206e6f7420616e2061646d696e2e00000000000000000081525060200191505060405180910390fd5b826000600260008373ffffffffffffffffffffffffffffffffffffffff1673ffffffffffffffffffffffffffffffffffffffff16815260200190815260200160002054111515612423576040517f08c379a00000000000000000000000000000000000000000000000000000000081526004018080602001828103825260148152602001807f5573657220646f6573206e6f742065786973742e00000000000000000000000081525060200191505060405180910390fd5b60006001600260008773ffffffffffffffffffffffffffffffffffffffff1673ffffffffffffffffffffffffffffffffffffffff1681526020019081526020016000205481548110151561247357fe5b90600052602060002090600502019050838160040160008282829054906101000a900461ffff160192506101000a81548161ffff021916908361ffff16021790555060019250505092915050565b60008060009054906101000a900473ffffffffffffffffffffffffffffffffffffffff16905090565b60008060009054906101000a900473ffffffffffffffffffffffffffffffffffffffff1673ffffffffffffffffffffffffffffffffffffffff1661252c613773565b73ffffffffffffffffffffffffffffffffffffffff1614905090565b6125506124ea565b15156125c4576040517f08c379a00000000000000000000000000000000000000000000000000000000081526004018080602001828103825260208152602001807f4f776e61626c653a2063616c6c6572206973206e6f7420746865206f776e657281525060200191505060405180910390fd5b60008090505b815181101561260b576125fe82828151811015156125e457fe5b90602001906020020151600561377b90919063ffffffff16565b80806001019150506125ca565b5050565b60008060018381548110151561262157fe5b906000526020600020906005020190508060000160009054906101000a900473ffffffffffffffffffffffffffffffffffffffff16915050919050565b6126666124ea565b15156126da576040517f08c379a00000000000000000000000000000000000000000000000000000000081526004018080602001828103825260208152602001807f4f776e61626c653a2063616c6c6572206973206e6f7420746865206f776e657281525060200191505060405180910390fd5b60008090505b81518110156127215761271482828151811015156126fa57fe5b90602001906020020151600661377b90919063ffffffff16565b80806001019150506126e0565b5050565b6000816000600260008373ffffffffffffffffffffffffffffffffffffffff1673ffffffffffffffffffffffffffffffffffffffff168152602001908152602001600020541115156127df576040517f08c379a00000000000000000000000000000000000000000000000000000000081526004018080602001828103825260148152602001807f5573657220646f6573206e6f742065786973742e00000000000000000000000081525060200191505060405180910390fd5b60006001600260008673ffffffffffffffffffffffffffffffffffffffff1673ffffffffffffffffffffffffffffffffffffffff1681526020019081526020016000205481548110151561282f57fe5b906000526020600020906005020190508060000160149054906101000a900460ff1692505050919050565b6000336000600260008373ffffffffffffffffffffffffffffffffffffffff1673ffffffffffffffffffffffffffffffffffffffff16815260200190815260200160002054141515612914576040517f08c379a00000000000000000000000000000000000000000000000000000000081526004018080602001828103825260148152602001807f5573657220616c7265616479206578697374732e00000000000000000000000081525060200191505060405180910390fd5b61291c613a03565b610120604051908101604052803373ffffffffffffffffffffffffffffffffffffffff168152602001600115158152602001600073ffffffffffffffffffffffffffffffffffffffff16815260200185151581526020016040805190810160405280600160ff168152602001601960ff1681525081526020016040805190810160405280600360ff16815260200160c860ff168152508152602001600a61ffff16815260200160001515815260200160001515815250905060006001829080600181540180825580915050906001820390600052602060002090600502016000909192909190915060008201518160000160006101000a81548173ffffffffffffffffffffffffffffffffffffffff021916908373ffffffffffffffffffffffffffffffffffffffff16021790555060208201518160000160146101000a81548160ff02191690831515021790555060408201518160010160006101000a81548173ffffffffffffffffffffffffffffffffffffffff021916908373ffffffffffffffffffffffffffffffffffffffff16021790555060608201518160010160146101000a81548160ff021916908315150217905550608082015181600201906002612ae9929190613a94565b5060a082015181600301906002612b01929190613a94565b5060c08201518160040160006101000a81548161ffff021916908361ffff16021790555060e08201518160040160026101000a81548160ff0219169083151502179055506101008201518160040160036101000a81548160ff0219169083151502179055505050905060006001820390508160038190555080600260003373ffffffffffffffffffffffffffffffffffffffff1673ffffffffffffffffffffffffffffffffffffffff1681526020019081526020016000208190555080945050505050919050565b6000612bdf33600661365090919063ffffffff16565b1515612c53576040517f08c379a00000000000000000000000000000000000000000000000000000000081526004018080602001828103825260178152602001807f43616c6c6572206973206e6f7420616e2061646d696e2e00000000000000000081525060200191505060405180910390fd5b826000600260008373ffffffffffffffffffffffffffffffffffffffff1673ffffffffffffffffffffffffffffffffffffffff16815260200190815260200160002054111515612d0b576040517f08c379a00000000000000000000000000000000000000000000000000000000081526004018080602001828103825260148152602001807f5573657220646f6573206e6f742065786973742e00000000000000000000000081525060200191505060405180910390fd5b60006001600260008773ffffffffffffffffffffffffffffffffffffffff1673ffffffffffffffffffffffffffffffffffffffff16815260200190815260200160002054815481101515612d5b57fe5b90600052602060002090600502019050838160000160146101000a81548160ff02191690831515021790555060019250505092915050565b6000816000600260008373ffffffffffffffffffffffffffffffffffffffff1673ffffffffffffffffffffffffffffffffffffffff16815260200190815260200160002054111515612e4d576040517f08c379a00000000000000000000000000000000000000000000000000000000081526004018080602001828103825260148152602001807f5573657220646f6573206e6f742065786973742e00000000000000000000000081525060200191505060405180910390fd5b60006001600260008673ffffffffffffffffffffffffffffffffffffffff1673ffffffffffffffffffffffffffffffffffffffff16815260200190815260200160002054815481101515612e9d57fe5b906000526020600020906005020190508060010160009054906101000a900473ffffffffffffffffffffffffffffffffffffffff1692505050919050565b6000612ef133600661365090919063ffffffff16565b1515612f65576040517f08c379a00000000000000000000000000000000000000000000000000000000081526004018080602001828103825260178152602001807f43616c6c6572206973206e6f7420616e2061646d696e2e00000000000000000081525060200191505060405180910390fd5b826000600260008373ffffffffffffffffffffffffffffffffffffffff1673ffffffffffffffffffffffffffffffffffffffff1681526020019081526020016000205411151561301d576040517f08c379a00000000000000000000000000000000000000000000000000000000081526004018080602001828103825260148152602001807f5573657220646f6573206e6f742065786973742e00000000000000000000000081525060200191505060405180910390fd5b60006001600260008773ffffffffffffffffffffffffffffffffffffffff1673ffffffffffffffffffffffffffffffffffffffff1681526020019081526020016000205481548110151561306d57fe5b906000526020600020906005020190508381600201906002613090929190613b2e565b5060019250505092915050565b6000816000600260008373ffffffffffffffffffffffffffffffffffffffff1673ffffffffffffffffffffffffffffffffffffffff16815260200190815260200160002054111515613157576040517f08c379a00000000000000000000000000000000000000000000000000000000081526004018080602001828103825260148152602001807f5573657220646f6573206e6f742065786973742e00000000000000000000000081525060200191505060405180910390fd5b60006001600260008673ffffffffffffffffffffffffffffffffffffffff1673ffffffffffffffffffffffffffffffffffffffff168152602001908152602001600020548154811015156131a757fe5b906000526020600020906005020190508060040160039054906101000a900460ff1692505050919050565b60006131e833600661365090919063ffffffff16565b151561325c576040517f08c379a00000000000000000000000000000000000000000000000000000000081526004018080602001828103825260178152602001807f43616c6c6572206973206e6f7420616e2061646d696e2e00000000000000000081525060200191505060405180910390fd5b826000600260008373ffffffffffffffffffffffffffffffffffffffff1673ffffffffffffffffffffffffffffffffffffffff16815260200190815260200160002054111515613314576040517f08c379a00000000000000000000000000000000000000000000000000000000081526004018080602001828103825260148152602001807f5573657220646f6573206e6f742065786973742e00000000000000000000000081525060200191505060405180910390fd5b60006001600260008773ffffffffffffffffffffffffffffffffffffffff1673ffffffffffffffffffffffffffffffffffffffff1681526020019081526020016000205481548110151561336457fe5b906000526020600020906005020190508381600301906002613387929190613b2e565b5060019250505092915050565b60006133aa33600461365090919063ffffffff16565b1515613444576040517f08c379a00000000000000000000000000000000000000000000000000000000081526004018080602001828103825260268152602001807f43616c6c6572206973206e6f7420616e20617373657420746f6b656e20636f6e81526020017f74726163742e000000000000000000000000000000000000000000000000000081525060400191505060405180910390fd5b60006001600260008573ffffffffffffffffffffffffffffffffffffffff1673ffffffffffffffffffffffffffffffffffffffff1681526020019081526020016000205481548110151561349457fe5b9060005260206000209060050201905060008160040160009054906101000a900461ffff1661ffff1611156134f75760018160040160008282829054906101000a900461ffff160392506101000a81548161ffff021916908361ffff1602179055505b6001915050919050565b6135096124ea565b151561357d576040517f08c379a00000000000000000000000000000000000000000000000000000000081526004018080602001828103825260208152602001807f4f776e61626c653a2063616c6c6572206973206e6f7420746865206f776e657281525060200191505060405180910390fd5b61358681613858565b50565b6135916124ea565b1515613605576040517f08c379a00000000000000000000000000000000000000000000000000000000081526004018080602001828103825260208152602001807f4f776e61626c653a2063616c6c6572206973206e6f7420746865206f776e657281525060200191505060405180910390fd5b60008090505b815181101561364c5761363f828281518110151561362557fe5b90602001906020020151600461377b90919063ffffffff16565b808060010191505061360b565b5050565b60008073ffffffffffffffffffffffffffffffffffffffff168273ffffffffffffffffffffffffffffffffffffffff161415151561371c576040517f08c379a00000000000000000000000000000000000000000000000000000000081526004018080602001828103825260228152602001807f526f6c65733a206163636f756e7420697320746865207a65726f20616464726581526020017f737300000000000000000000000000000000000000000000000000000000000081525060400191505060405180910390fd5b8260000160008373ffffffffffffffffffffffffffffffffffffffff1673ffffffffffffffffffffffffffffffffffffffff16815260200190815260200160002060009054906101000a900460ff16905092915050565b600033905090565b6137858282613650565b1515156137fa576040517f08c379a000000000000000000000000000000000000000000000000000000000815260040180806020018281038252601f8152602001807f526f6c65733a206163636f756e7420616c72656164792068617320726f6c650081525060200191505060405180910390fd5b60018260000160008373ffffffffffffffffffffffffffffffffffffffff1673ffffffffffffffffffffffffffffffffffffffff16815260200190815260200160002060006101000a81548160ff0219169083151502179055505050565b600073ffffffffffffffffffffffffffffffffffffffff168173ffffffffffffffffffffffffffffffffffffffff1614151515613923576040517f08c379a00000000000000000000000000000000000000000000000000000000081526004018080602001828103825260268152602001807f4f776e61626c653a206e6577206f776e657220697320746865207a65726f206181526020017f646472657373000000000000000000000000000000000000000000000000000081525060400191505060405180910390fd5b8073ffffffffffffffffffffffffffffffffffffffff166000809054906101000a900473ffffffffffffffffffffffffffffffffffffffff1673ffffffffffffffffffffffffffffffffffffffff167f8be0079c531659141344cd1fd0a4f28419497f9722a3daafe3b4186f6b6457e060405160405180910390a3806000806101000a81548173ffffffffffffffffffffffffffffffffffffffff021916908373ffffffffffffffffffffffffffffffffffffffff16021790555050565b6040805190810160405280600290602082028038833980820191505090505090565b61016060405190810160405280600073ffffffffffffffffffffffffffffffffffffffff168152602001600015158152602001600073ffffffffffffffffffffffffffffffffffffffff168152602001600015158152602001613a64613bc8565b8152602001613a71613bc8565b8152602001600061ffff1681526020016000151581526020016000151581525090565b826002601f01602090048101928215613b1d5791602002820160005b83821115613aee57835183826101000a81548160ff021916908360ff1602179055509260200192600101602081600001049283019260010302613ab0565b8015613b1b5782816101000a81549060ff0219169055600101602081600001049283019260010302613aee565b505b509050613b2a9190613bea565b5090565b826002601f01602090048101928215613bb75791602002820160005b83821115613b8857835183826101000a81548160ff021916908360ff1602179055509260200192600101602081600001049283019260010302613b4a565b8015613bb55782816101000a81549060ff0219169055600101602081600001049283019260010302613b88565b505b509050613bc49190613bea565b5090565b6040805190810160405280600290602082028038833980820191505090505090565b613c1791905b80821115613c1357600081816101000a81549060ff021916905550600101613bf0565b5090565b9056fea165627a7a72305820546caab14945ee4fcfb5024fb0cf99cf82e8a40149dadcf5edb517af092f3e560029",
  "source": "pragma solidity ^0.5.0;\n\nimport \"@openzeppelin/contracts/access/Roles.sol\";\nimport \"@openzeppelin/contracts/ownership/Ownable.sol\";\nimport \"./Events.sol\";\n\ncontract Users is Ownable, Events {\n    using Roles for Roles.Role;\n\n    struct User {\n        address userAddress;\n        bool active;\n        address referrerAddress;\n        bool merchant;\n        uint8[2] transactionFeeValues;\n        uint8[2] exchangeFeeValues;\n        uint16 remainingFreeTransactions;\n        bool superReferrer;\n        bool superUser;\n    }\n\n    User[] public users;\n    mapping(address => uint256) public addressToUserIndex;\n    uint256 public usersCount;\n\n    Roles.Role assetTokenContracts;\n    Roles.Role digitallContracts;\n    Roles.Role admins;\n\n    address public InOnePlaceWallet = 0xceaCCe738B5c4e03b45561bFB5b3796B63cFeCDD;\n    address public PrizeDrawWallet = 0xa1c86295E88fCfaDEf9FB518dC7201C85699D401;\n\n    constructor() public {\n        User memory user = User({\n            userAddress: address(this),\n            active: false,\n            referrerAddress: address(0),\n            merchant: true,\n            transactionFeeValues: [0, 1],\n            exchangeFeeValues: [0, 1],\n            remainingFreeTransactions: 0,\n            superReferrer: true,\n            superUser: true\n        });\n        uint256 newUsersCount = users.push(user);\n        uint256 newUserId = newUsersCount - 1;\n        usersCount = newUsersCount;\n        addressToUserIndex[address(this)] = newUserId;\n    }\n\n    modifier onlyAssetTokenContracts() {\n        require(assetTokenContracts.has(msg.sender), \"Caller is not an asset token contract.\");\n        _;\n    }\n\n    modifier onlyAdmins() {\n        require(admins.has(msg.sender), \"Caller is not an admin.\");\n        _;\n    }\n\n    modifier userExists(address userAddress) {\n        require(addressToUserIndex[userAddress] > 0, \"User does not exist.\");\n        _;\n    }\n\n    modifier userDoesNotExist(address userAddress) {\n        require(addressToUserIndex[userAddress] == 0, \"User already exists.\");\n        _;\n    }\n\n    modifier onlyDigitallContracts() {\n        require(digitallContracts.has(msg.sender), \"Caller is Digitall contract.\");\n        _;\n    }\n\n    function addDigitallContracts(address[] memory newContracts) public onlyOwner {\n        for(uint i = 0; i < newContracts.length; i++) {\n            digitallContracts.add(newContracts[i]);\n        }\n    }\n\n    function addAssetTokenContracts(address[] memory newContracts) public onlyOwner {\n        for(uint i = 0; i < newContracts.length; i++) {\n            assetTokenContracts.add(newContracts[i]);\n        }\n    }\n\n    function addAdmins(address[] memory newAdmins) public onlyOwner {\n        for(uint i = 0; i < newAdmins.length; i++) {\n            admins.add(newAdmins[i]);\n        }\n    }\n\n    function createUser(bool isMerchant)\n        public\n        userDoesNotExist(msg.sender)\n        returns (uint256)\n    {\n        User memory user = User({\n            userAddress: msg.sender,\n            active: true,\n            referrerAddress: address(0),\n            merchant: isMerchant,\n            transactionFeeValues: [1, 25],\n            exchangeFeeValues: [3, 200],\n            remainingFreeTransactions: 10,\n            superReferrer: false,\n            superUser: false\n        });\n        uint256 newUsersCount = users.push(user);\n        uint256 newUserId = newUsersCount - 1;\n        usersCount = newUsersCount;\n        addressToUserIndex[msg.sender] = newUserId;\n\n        return newUserId;\n    }\n\n    function isActive(address userAddress)\n        public\n        view\n        userExists(userAddress)\n        returns (bool)\n    {\n        User storage user = users[addressToUserIndex[userAddress]];\n        return user.active;\n    }\n\n    function isSuperUser(address userAddress)\n        public\n        view\n        userExists(userAddress)\n        returns (bool)\n    {\n        User storage user = users[addressToUserIndex[userAddress]];\n        return user.superUser;\n    }\n\n    function isSuperReferrer(address userAddress)\n        public\n        view\n        userExists(userAddress)\n        returns (bool)\n    {\n        User storage user = users[addressToUserIndex[userAddress]];\n        return user.superReferrer;\n    }\n\n    function isMerchant(address userAddress)\n        public\n        view\n        userExists(userAddress)\n        returns (bool)\n    {\n        User storage user = users[addressToUserIndex[userAddress]];\n        return user.merchant;\n    }\n\n    function getUserAddress(uint256 _index)\n        public\n        view\n        returns (address)\n    {\n        User storage user = users[_index];\n        return user.userAddress;\n    }\n\n    function getTransactionFeeValues(address userAddress)\n        public\n        view\n        userExists(userAddress)\n        returns (uint8[2] memory)\n    {\n        User storage user = users[addressToUserIndex[userAddress]];\n        return user.transactionFeeValues;\n    }\n\n    function getRemainingFreeTransactions(address userAddress)\n        public\n        view\n        userExists(userAddress)\n        returns (uint16)\n    {\n        User storage user = users[addressToUserIndex[userAddress]];\n        return user.remainingFreeTransactions;\n    }\n\n    function getReferrerAddress(address userAddress)\n        public\n        view\n        userExists(userAddress)\n        returns (address)\n    {\n        User storage user = users[addressToUserIndex[userAddress]];\n        return user.referrerAddress;\n    }\n\n    function getExchangeFeeValues(address userAddress)\n        public\n        view\n        userExists(userAddress)\n        returns (uint8[2] memory)\n    {\n        User storage user = users[addressToUserIndex[userAddress]];\n        return user.exchangeFeeValues;\n    }\n\n    function setStatus(address userAddress, bool newStatus)\n        public\n        onlyAdmins\n        userExists(userAddress)\n        returns (bool)\n    {\n        User storage user = users[addressToUserIndex[userAddress]];\n        user.active = newStatus;\n        return true;\n    }\n\n    function setMerchant(address userAddress, bool newMerchant)\n        public\n        onlyAdmins\n        userExists(userAddress)\n        returns (bool)\n    {\n        User storage user = users[addressToUserIndex[userAddress]];\n        user.merchant = newMerchant;\n        return true;\n    }\n\n    function setSuperUser(address userAddress, bool newStatus)\n        public\n        onlyAdmins\n        userExists(userAddress)\n        returns (bool)\n    {\n        User storage user = users[addressToUserIndex[userAddress]];\n        user.superUser = newStatus;\n        return true;\n    }\n\n    function setSuperReferrer(address userAddress, bool newStatus)\n        public\n        onlyAdmins\n        userExists(userAddress)\n        returns (bool)\n    {\n        User storage user = users[addressToUserIndex[userAddress]];\n        user.superReferrer = newStatus;\n        return true;\n    }\n\n    function setExchangeFeeValues(address userAddress, uint8[2] memory newExchangeFeeValues)\n        public\n        onlyAdmins\n        userExists(userAddress)\n        returns (bool)\n    {\n        User storage user = users[addressToUserIndex[userAddress]];\n        user.exchangeFeeValues = newExchangeFeeValues;\n        return true;\n    }\n\n    function setTransactionFeeValues(address userAddress, uint8[2] memory newTransactionFeeValues)\n        public\n        onlyAdmins\n        userExists(userAddress)\n        returns (bool)\n    {\n        User storage user = users[addressToUserIndex[userAddress]];\n        user.transactionFeeValues = newTransactionFeeValues;\n        return true;\n    }\n\n    function increaseRemainingFreeTransactions(address userAddress, uint16 amount)\n        public\n        onlyAdmins\n        userExists(userAddress)\n        returns (bool)\n    {\n        User storage user = users[addressToUserIndex[userAddress]];\n        user.remainingFreeTransactions += amount;\n        return true;\n    }\n\n    function setRemainingFreeTransactions(address userAddress, uint16 newRemainingFreeTransactions)\n        public\n        onlyAdmins\n        userExists(userAddress)\n        returns (bool)\n    {\n        User storage user = users[addressToUserIndex[userAddress]];\n        user.remainingFreeTransactions = newRemainingFreeTransactions;\n        return true;\n    }\n\n    function setReferrerAddress(address userAddress, address referrerAddress)\n        public\n        onlyAdmins\n        userExists(userAddress)\n        returns (bool)\n    {\n        User storage user = users[addressToUserIndex[userAddress]];\n        user.referrerAddress = referrerAddress;\n        return true;\n    }\n\n    function decrementFreeTransactions(address userAddress)\n        public\n        onlyAssetTokenContracts\n        returns (bool)\n    {\n        User storage user = users[addressToUserIndex[userAddress]];\n\n        if (user.remainingFreeTransactions > 0) {\n            user.remainingFreeTransactions -= 1;\n        }\n\n        return true;\n    }\n}\n",
  "sourcePath": "/Users/andy/coding/digitall-contracts/contracts/Users.sol",
  "compiler": {
    "name": "solc",
    "version": "0.5.0+commit.1d4f565a.Emscripten.clang"
  },
  "schemaVersion": "3.0.19",
  "updatedAt": "2020-06-18T21:27:49.500Z",
  "networkType": "ethereum",
  "devdoc": {
    "methods": {
      "isOwner()": {
        "details": "Returns true if the caller is the current owner."
      },
      "owner()": {
        "details": "Returns the address of the current owner."
      },
      "renounceOwnership()": {
        "details": "Leaves the contract without owner. It will not be possible to call `onlyOwner` functions anymore. Can only be called by the current owner.     * NOTE: Renouncing ownership will leave the contract without an owner, thereby removing any functionality that is only available to the owner."
      },
      "transferOwnership(address)": {
        "details": "Transfers ownership of the contract to a new account (`newOwner`). Can only be called by the current owner."
      }
    }
  },
  "userdoc": {
    "methods": {}
  }
}