{
  "contractName": "Users",
  "abi": [
    {
      "constant": true,
      "inputs": [],
      "name": "InOnePlaceWallet",
      "outputs": [
        {
          "name": "",
          "type": "address"
        }
      ],
      "payable": false,
      "stateMutability": "view",
      "type": "function"
    },
    {
      "constant": true,
      "inputs": [
        {
          "name": "",
          "type": "uint256"
        }
      ],
      "name": "users",
      "outputs": [
        {
          "name": "userAddress",
          "type": "address"
        },
        {
          "name": "active",
          "type": "bool"
        },
        {
          "name": "referrerAddress",
          "type": "address"
        },
        {
          "name": "merchant",
          "type": "bool"
        },
        {
          "name": "remainingFreeTransactions",
          "type": "uint16"
        },
        {
          "name": "superReferrer",
          "type": "bool"
        },
        {
          "name": "superUser",
          "type": "bool"
        }
      ],
      "payable": false,
      "stateMutability": "view",
      "type": "function"
    },
    {
      "constant": true,
      "inputs": [],
      "name": "PrizeDrawWallet",
      "outputs": [
        {
          "name": "",
          "type": "address"
        }
      ],
      "payable": false,
      "stateMutability": "view",
      "type": "function"
    },
    {
      "constant": true,
      "inputs": [
        {
          "name": "",
          "type": "address"
        }
      ],
      "name": "addressToUserIndex",
      "outputs": [
        {
          "name": "",
          "type": "uint256"
        }
      ],
      "payable": false,
      "stateMutability": "view",
      "type": "function"
    },
    {
      "constant": true,
      "inputs": [],
      "name": "usersCount",
      "outputs": [
        {
          "name": "",
          "type": "uint256"
        }
      ],
      "payable": false,
      "stateMutability": "view",
      "type": "function"
    },
    {
      "constant": false,
      "inputs": [],
      "name": "renounceOwnership",
      "outputs": [],
      "payable": false,
      "stateMutability": "nonpayable",
      "type": "function"
    },
    {
      "constant": true,
      "inputs": [],
      "name": "owner",
      "outputs": [
        {
          "name": "",
          "type": "address"
        }
      ],
      "payable": false,
      "stateMutability": "view",
      "type": "function"
    },
    {
      "constant": true,
      "inputs": [],
      "name": "isOwner",
      "outputs": [
        {
          "name": "",
          "type": "bool"
        }
      ],
      "payable": false,
      "stateMutability": "view",
      "type": "function"
    },
    {
      "constant": false,
      "inputs": [
        {
          "name": "newOwner",
          "type": "address"
        }
      ],
      "name": "transferOwnership",
      "outputs": [],
      "payable": false,
      "stateMutability": "nonpayable",
      "type": "function"
    },
    {
      "inputs": [],
      "payable": false,
      "stateMutability": "nonpayable",
      "type": "constructor"
    },
    {
      "anonymous": false,
      "inputs": [
        {
          "indexed": false,
          "name": "userAddress",
          "type": "address"
        }
      ],
      "name": "NewUser",
      "type": "event"
    },
    {
      "anonymous": false,
      "inputs": [
        {
          "indexed": false,
          "name": "value",
          "type": "uint256"
        },
        {
          "indexed": false,
          "name": "symbol",
          "type": "string"
        }
      ],
      "name": "Deposit",
      "type": "event"
    },
    {
      "anonymous": false,
      "inputs": [
        {
          "indexed": false,
          "name": "userAddress",
          "type": "address"
        },
        {
          "indexed": false,
          "name": "referredAddress",
          "type": "address"
        },
        {
          "indexed": false,
          "name": "amount",
          "type": "uint256"
        },
        {
          "indexed": false,
          "name": "symbol",
          "type": "string"
        }
      ],
      "name": "MoneyEarned",
      "type": "event"
    },
    {
      "anonymous": false,
      "inputs": [
        {
          "indexed": false,
          "name": "transactionId",
          "type": "uint256"
        },
        {
          "indexed": false,
          "name": "symbol",
          "type": "string"
        },
        {
          "indexed": false,
          "name": "addressFrom",
          "type": "address"
        },
        {
          "indexed": false,
          "name": "addressTo",
          "type": "address"
        },
        {
          "indexed": false,
          "name": "value",
          "type": "uint256"
        },
        {
          "indexed": false,
          "name": "fee",
          "type": "uint256"
        },
        {
          "indexed": false,
          "name": "txType",
          "type": "string"
        }
      ],
      "name": "CustomTransfer",
      "type": "event"
    },
    {
      "anonymous": false,
      "inputs": [
        {
          "indexed": false,
          "name": "fromAddress",
          "type": "address"
        },
        {
          "indexed": false,
          "name": "toAddress",
          "type": "address"
        },
        {
          "indexed": false,
          "name": "fromAmount",
          "type": "uint256"
        },
        {
          "indexed": false,
          "name": "toAmount",
          "type": "uint256"
        },
        {
          "indexed": false,
          "name": "fee",
          "type": "uint256"
        }
      ],
      "name": "Exchange",
      "type": "event"
    },
    {
      "anonymous": false,
      "inputs": [
        {
          "indexed": false,
          "name": "fromAddress",
          "type": "address"
        },
        {
          "indexed": false,
          "name": "toAddress",
          "type": "address"
        },
        {
          "indexed": false,
          "name": "fromAmount",
          "type": "uint256"
        },
        {
          "indexed": false,
          "name": "toAmount",
          "type": "uint256"
        },
        {
          "indexed": false,
          "name": "fee",
          "type": "uint256"
        },
        {
          "indexed": false,
          "name": "recipient",
          "type": "address"
        }
      ],
      "name": "ExchangeAndTransfer",
      "type": "event"
    },
    {
      "anonymous": false,
      "inputs": [
        {
          "indexed": false,
          "name": "recipient",
          "type": "address"
        },
        {
          "indexed": false,
          "name": "symbol",
          "type": "string"
        },
        {
          "indexed": false,
          "name": "value",
          "type": "uint256"
        },
        {
          "indexed": false,
          "name": "fee",
          "type": "uint256"
        }
      ],
      "name": "CreditCardPurchase",
      "type": "event"
    },
    {
      "anonymous": false,
      "inputs": [
        {
          "indexed": true,
          "name": "previousOwner",
          "type": "address"
        },
        {
          "indexed": true,
          "name": "newOwner",
          "type": "address"
        }
      ],
      "name": "OwnershipTransferred",
      "type": "event"
    },
    {
      "constant": false,
      "inputs": [
        {
          "name": "newContracts",
          "type": "address[]"
        }
      ],
      "name": "addDigitallContracts",
      "outputs": [],
      "payable": false,
      "stateMutability": "nonpayable",
      "type": "function"
    },
    {
      "constant": false,
      "inputs": [
        {
          "name": "newContracts",
          "type": "address[]"
        }
      ],
      "name": "addAssetTokenContracts",
      "outputs": [],
      "payable": false,
      "stateMutability": "nonpayable",
      "type": "function"
    },
    {
      "constant": false,
      "inputs": [
        {
          "name": "newAdmins",
          "type": "address[]"
        }
      ],
      "name": "addAdmins",
      "outputs": [],
      "payable": false,
      "stateMutability": "nonpayable",
      "type": "function"
    },
    {
      "constant": false,
      "inputs": [
        {
          "name": "isMerchant",
          "type": "bool"
        },
        {
          "name": "accountAddress",
          "type": "address"
        }
      ],
      "name": "createUser",
      "outputs": [
        {
          "name": "",
          "type": "uint256"
        }
      ],
      "payable": false,
      "stateMutability": "nonpayable",
      "type": "function"
    },
    {
      "constant": true,
      "inputs": [
        {
          "name": "userAddress",
          "type": "address"
        }
      ],
      "name": "isActive",
      "outputs": [
        {
          "name": "",
          "type": "bool"
        }
      ],
      "payable": false,
      "stateMutability": "view",
      "type": "function"
    },
    {
      "constant": true,
      "inputs": [
        {
          "name": "userAddress",
          "type": "address"
        }
      ],
      "name": "isSuperUser",
      "outputs": [
        {
          "name": "",
          "type": "bool"
        }
      ],
      "payable": false,
      "stateMutability": "view",
      "type": "function"
    },
    {
      "constant": true,
      "inputs": [
        {
          "name": "userAddress",
          "type": "address"
        }
      ],
      "name": "isSuperReferrer",
      "outputs": [
        {
          "name": "",
          "type": "bool"
        }
      ],
      "payable": false,
      "stateMutability": "view",
      "type": "function"
    },
    {
      "constant": true,
      "inputs": [
        {
          "name": "userAddress",
          "type": "address"
        }
      ],
      "name": "isMerchant",
      "outputs": [
        {
          "name": "",
          "type": "bool"
        }
      ],
      "payable": false,
      "stateMutability": "view",
      "type": "function"
    },
    {
      "constant": true,
      "inputs": [
        {
          "name": "_index",
          "type": "uint256"
        }
      ],
      "name": "getUserAddress",
      "outputs": [
        {
          "name": "",
          "type": "address"
        }
      ],
      "payable": false,
      "stateMutability": "view",
      "type": "function"
    },
    {
      "constant": true,
      "inputs": [
        {
          "name": "userAddress",
          "type": "address"
        }
      ],
      "name": "getTransactionFeeValues",
      "outputs": [
        {
          "name": "",
          "type": "uint8[2]"
        }
      ],
      "payable": false,
      "stateMutability": "view",
      "type": "function"
    },
    {
      "constant": true,
      "inputs": [
        {
          "name": "userAddress",
          "type": "address"
        }
      ],
      "name": "getRemainingFreeTransactions",
      "outputs": [
        {
          "name": "",
          "type": "uint16"
        }
      ],
      "payable": false,
      "stateMutability": "view",
      "type": "function"
    },
    {
      "constant": true,
      "inputs": [
        {
          "name": "userAddress",
          "type": "address"
        }
      ],
      "name": "getReferrerAddress",
      "outputs": [
        {
          "name": "",
          "type": "address"
        }
      ],
      "payable": false,
      "stateMutability": "view",
      "type": "function"
    },
    {
      "constant": true,
      "inputs": [
        {
          "name": "userAddress",
          "type": "address"
        }
      ],
      "name": "getExchangeFeeValues",
      "outputs": [
        {
          "name": "",
          "type": "uint8[2]"
        }
      ],
      "payable": false,
      "stateMutability": "view",
      "type": "function"
    },
    {
      "constant": false,
      "inputs": [
        {
          "name": "userAddress",
          "type": "address"
        },
        {
          "name": "newStatus",
          "type": "bool"
        }
      ],
      "name": "setStatus",
      "outputs": [
        {
          "name": "",
          "type": "bool"
        }
      ],
      "payable": false,
      "stateMutability": "nonpayable",
      "type": "function"
    },
    {
      "constant": false,
      "inputs": [
        {
          "name": "userAddress",
          "type": "address"
        },
        {
          "name": "newMerchant",
          "type": "bool"
        }
      ],
      "name": "setMerchant",
      "outputs": [
        {
          "name": "",
          "type": "bool"
        }
      ],
      "payable": false,
      "stateMutability": "nonpayable",
      "type": "function"
    },
    {
      "constant": false,
      "inputs": [
        {
          "name": "userAddress",
          "type": "address"
        },
        {
          "name": "newStatus",
          "type": "bool"
        }
      ],
      "name": "setSuperUser",
      "outputs": [
        {
          "name": "",
          "type": "bool"
        }
      ],
      "payable": false,
      "stateMutability": "nonpayable",
      "type": "function"
    },
    {
      "constant": false,
      "inputs": [
        {
          "name": "userAddress",
          "type": "address"
        },
        {
          "name": "newStatus",
          "type": "bool"
        }
      ],
      "name": "setSuperReferrer",
      "outputs": [
        {
          "name": "",
          "type": "bool"
        }
      ],
      "payable": false,
      "stateMutability": "nonpayable",
      "type": "function"
    },
    {
      "constant": false,
      "inputs": [
        {
          "name": "userAddress",
          "type": "address"
        },
        {
          "name": "newExchangeFeeValues",
          "type": "uint8[2]"
        }
      ],
      "name": "setExchangeFeeValues",
      "outputs": [
        {
          "name": "",
          "type": "bool"
        }
      ],
      "payable": false,
      "stateMutability": "nonpayable",
      "type": "function"
    },
    {
      "constant": false,
      "inputs": [
        {
          "name": "userAddress",
          "type": "address"
        },
        {
          "name": "newTransactionFeeValues",
          "type": "uint8[2]"
        }
      ],
      "name": "setTransactionFeeValues",
      "outputs": [
        {
          "name": "",
          "type": "bool"
        }
      ],
      "payable": false,
      "stateMutability": "nonpayable",
      "type": "function"
    },
    {
      "constant": false,
      "inputs": [
        {
          "name": "userAddress",
          "type": "address"
        },
        {
          "name": "amount",
          "type": "uint16"
        }
      ],
      "name": "increaseRemainingFreeTransactions",
      "outputs": [
        {
          "name": "",
          "type": "bool"
        }
      ],
      "payable": false,
      "stateMutability": "nonpayable",
      "type": "function"
    },
    {
      "constant": false,
      "inputs": [
        {
          "name": "userAddress",
          "type": "address"
        },
        {
          "name": "newRemainingFreeTransactions",
          "type": "uint16"
        }
      ],
      "name": "setRemainingFreeTransactions",
      "outputs": [
        {
          "name": "",
          "type": "bool"
        }
      ],
      "payable": false,
      "stateMutability": "nonpayable",
      "type": "function"
    },
    {
      "constant": false,
      "inputs": [
        {
          "name": "userAddress",
          "type": "address"
        },
        {
          "name": "referrerAddress",
          "type": "address"
        }
      ],
      "name": "setReferrerAddress",
      "outputs": [
        {
          "name": "",
          "type": "bool"
        }
      ],
      "payable": false,
      "stateMutability": "nonpayable",
      "type": "function"
    },
    {
      "constant": false,
      "inputs": [
        {
          "name": "userAddress",
          "type": "address"
        }
      ],
      "name": "decrementFreeTransactions",
      "outputs": [
        {
          "name": "",
          "type": "bool"
        }
      ],
      "payable": false,
      "stateMutability": "nonpayable",
      "type": "function"
    }
  ],
  "bytecode": "0x608060405273ceacce738b5c4e03b45561bfb5b3796b63cfecdd600760006101000a81548173ffffffffffffffffffffffffffffffffffffffff021916908373ffffffffffffffffffffffffffffffffffffffff16021790555073a1c86295e88fcfadef9fb518dc7201c85699d401600860006101000a81548173ffffffffffffffffffffffffffffffffffffffff021916908373ffffffffffffffffffffffffffffffffffffffff160217905550348015620000bb57600080fd5b506000620000d76200042e640100000000026401000000009004565b9050806000806101000a81548173ffffffffffffffffffffffffffffffffffffffff021916908373ffffffffffffffffffffffffffffffffffffffff1602179055508073ffffffffffffffffffffffffffffffffffffffff16600073ffffffffffffffffffffffffffffffffffffffff167f8be0079c531659141344cd1fd0a4f28419497f9722a3daafe3b4186f6b6457e060405160405180910390a3506200017f62000436565b610120604051908101604052803073ffffffffffffffffffffffffffffffffffffffff168152602001600015158152602001600073ffffffffffffffffffffffffffffffffffffffff1681526020016001151581526020016040805190810160405280600060ff168152602001600160ff1681525081526020016040805190810160405280600060ff168152602001600160ff168152508152602001600061ffff16815260200160011515815260200160011515815250905060006001829080600181540180825580915050906001820390600052602060002090600502016000909192909190915060008201518160000160006101000a81548173ffffffffffffffffffffffffffffffffffffffff021916908373ffffffffffffffffffffffffffffffffffffffff16021790555060208201518160000160146101000a81548160ff02191690831515021790555060408201518160010160006101000a81548173ffffffffffffffffffffffffffffffffffffffff021916908373ffffffffffffffffffffffffffffffffffffffff16021790555060608201518160010160146101000a81548160ff0219169083151502179055506080820151816002019060026200034f929190620004cb565b5060a08201518160030190600262000369929190620004cb565b5060c08201518160040160006101000a81548161ffff021916908361ffff16021790555060e08201518160040160026101000a81548160ff0219169083151502179055506101008201518160040160036101000a81548160ff0219169083151502179055505050905060006001820390508160038190555080600260003073ffffffffffffffffffffffffffffffffffffffff1673ffffffffffffffffffffffffffffffffffffffff16815260200190815260200160002081905550505050620005c1565b600033905090565b61016060405190810160405280600073ffffffffffffffffffffffffffffffffffffffff168152602001600015158152602001600073ffffffffffffffffffffffffffffffffffffffff168152602001600015158152602001620004996200056c565b8152602001620004a86200056c565b8152602001600061ffff1681526020016000151581526020016000151581525090565b826002601f01602090048101928215620005595791602002820160005b838211156200052857835183826101000a81548160ff021916908360ff1602179055509260200192600101602081600001049283019260010302620004e8565b8015620005575782816101000a81549060ff021916905560010160208160000104928301926001030262000528565b505b5090506200056891906200058e565b5090565b6040805190810160405280600290602082028038833980820191505090505090565b620005be91905b80821115620005ba57600081816101000a81549060ff02191690555060010162000595565b5090565b90565b613c6780620005d16000396000f3fe608060405260043610610196576000357c0100000000000000000000000000000000000000000000000000000000900463ffffffff16806309f908661461019b5780631a2f7167146102245780632533c95f1461028d57806335a69411146102e4578063365b98b2146103555780633cf269a51461043e5780633d6ac3e9146104cb57806342867a3e1461054257806345655b4e146105b75780635115b66f1461062c578063562fe8d91461068357806361799c22146107105780636a5cce96146107755780636ba13a82146107de578063715018a61461080957806377437dad14610820578063801ae66f1461088d5780638c3098e8146109025780638da5cb5b146109795780638f32d59b146109d057806390073f72146109ff57806390d976e214610ac45780639c54df6414610b3f5780639f8a13d714610c04578063b304f21c14610c6d578063b8d04f4e14610ce2578063c1ca41ed14610d73578063cd784d1b14610e1d578063ce8f305d14610e86578063d5af1cf214610f30578063f2fde38b14610f99578063f5de34d214610fea575b600080fd5b3480156101a757600080fd5b5061020a600480360360408110156101be57600080fd5b81019080803573ffffffffffffffffffffffffffffffffffffffff169060200190929190803573ffffffffffffffffffffffffffffffffffffffff1690602001909291905050506110af565b604051808215151515815260200191505060405180910390f35b34801561023057600080fd5b506102736004803603602081101561024757600080fd5b81019080803573ffffffffffffffffffffffffffffffffffffffff1690602001909291905050506112a0565b604051808215151515815260200191505060405180910390f35b34801561029957600080fd5b506102a26113d5565b604051808273ffffffffffffffffffffffffffffffffffffffff1673ffffffffffffffffffffffffffffffffffffffff16815260200191505060405180910390f35b3480156102f057600080fd5b5061033f6004803603604081101561030757600080fd5b81019080803515159060200190929190803573ffffffffffffffffffffffffffffffffffffffff1690602001909291905050506113fb565b6040518082815260200191505060405180910390f35b34801561036157600080fd5b5061038e6004803603602081101561037857600080fd5b810190808035906020019092919050505061176b565b604051808873ffffffffffffffffffffffffffffffffffffffff1673ffffffffffffffffffffffffffffffffffffffff168152602001871515151581526020018673ffffffffffffffffffffffffffffffffffffffff1673ffffffffffffffffffffffffffffffffffffffff168152602001851515151581526020018461ffff1661ffff168152602001831515151581526020018215151515815260200197505050505050505060405180910390f35b34801561044a57600080fd5b5061048d6004803603602081101561046157600080fd5b81019080803573ffffffffffffffffffffffffffffffffffffffff16906020019092919050505061183e565b6040518082600260200280838360005b838110156104b857808201518184015260208101905061049d565b5050505090500191505060405180910390f35b3480156104d757600080fd5b50610528600480360360408110156104ee57600080fd5b81019080803573ffffffffffffffffffffffffffffffffffffffff169060200190929190803561ffff1690602001909291905050506119cd565b604051808215151515815260200191505060405180910390f35b34801561054e57600080fd5b5061059d6004803603604081101561056557600080fd5b81019080803573ffffffffffffffffffffffffffffffffffffffff169060200190929190803515159060200190929190505050611b9a565b604051808215151515815260200191505060405180910390f35b3480156105c357600080fd5b50610612600480360360408110156105da57600080fd5b81019080803573ffffffffffffffffffffffffffffffffffffffff169060200190929190803515159060200190929190505050611d64565b604051808215151515815260200191505060405180910390f35b34801561063857600080fd5b50610641611f2e565b604051808273ffffffffffffffffffffffffffffffffffffffff1673ffffffffffffffffffffffffffffffffffffffff16815260200191505060405180910390f35b34801561068f57600080fd5b506106d2600480360360208110156106a657600080fd5b81019080803573ffffffffffffffffffffffffffffffffffffffff169060200190929190505050611f54565b6040518082600260200280838360005b838110156106fd5780820151818401526020810190506106e2565b5050505090500191505060405180910390f35b34801561071c57600080fd5b5061075f6004803603602081101561073357600080fd5b81019080803573ffffffffffffffffffffffffffffffffffffffff1690602001909291905050506120e3565b6040518082815260200191505060405180910390f35b34801561078157600080fd5b506107c46004803603602081101561079857600080fd5b81019080803573ffffffffffffffffffffffffffffffffffffffff1690602001909291905050506120fb565b604051808215151515815260200191505060405180910390f35b3480156107ea57600080fd5b506107f3612230565b6040518082815260200191505060405180910390f35b34801561081557600080fd5b5061081e612236565b005b34801561082c57600080fd5b5061086f6004803603602081101561084357600080fd5b81019080803573ffffffffffffffffffffffffffffffffffffffff169060200190929190505050612371565b604051808261ffff1661ffff16815260200191505060405180910390f35b34801561089957600080fd5b506108e8600480360360408110156108b057600080fd5b81019080803573ffffffffffffffffffffffffffffffffffffffff1690602001909291908035151590602001909291905050506124a7565b604051808215151515815260200191505060405180910390f35b34801561090e57600080fd5b5061095f6004803603604081101561092557600080fd5b81019080803573ffffffffffffffffffffffffffffffffffffffff169060200190929190803561ffff169060200190929190505050612671565b604051808215151515815260200191505060405180910390f35b34801561098557600080fd5b5061098e612851565b604051808273ffffffffffffffffffffffffffffffffffffffff1673ffffffffffffffffffffffffffffffffffffffff16815260200191505060405180910390f35b3480156109dc57600080fd5b506109e561287a565b604051808215151515815260200191505060405180910390f35b348015610a0b57600080fd5b50610ac260048036036020811015610a2257600080fd5b8101908080359060200190640100000000811115610a3f57600080fd5b820183602082011115610a5157600080fd5b80359060200191846020830284011164010000000083111715610a7357600080fd5b919080806020026020016040519081016040528093929190818152602001838360200280828437600081840152601f19601f8201169050808301925050505050505091929192905050506128d8565b005b348015610ad057600080fd5b50610afd60048036036020811015610ae757600080fd5b810190808035906020019092919050505061299f565b604051808273ffffffffffffffffffffffffffffffffffffffff1673ffffffffffffffffffffffffffffffffffffffff16815260200191505060405180910390f35b348015610b4b57600080fd5b50610c0260048036036020811015610b6257600080fd5b8101908080359060200190640100000000811115610b7f57600080fd5b820183602082011115610b9157600080fd5b80359060200191846020830284011164010000000083111715610bb357600080fd5b919080806020026020016040519081016040528093929190818152602001838360200280828437600081840152601f19601f8201169050808301925050505050505091929192905050506129ee565b005b348015610c1057600080fd5b50610c5360048036036020811015610c2757600080fd5b81019080803573ffffffffffffffffffffffffffffffffffffffff169060200190929190505050612ab5565b604051808215151515815260200191505060405180910390f35b348015610c7957600080fd5b50610cc860048036036040811015610c9057600080fd5b81019080803573ffffffffffffffffffffffffffffffffffffffff169060200190929190803515159060200190929190505050612bea565b604051808215151515815260200191505060405180910390f35b348015610cee57600080fd5b50610d3160048036036020811015610d0557600080fd5b81019080803573ffffffffffffffffffffffffffffffffffffffff169060200190929190505050612db4565b604051808273ffffffffffffffffffffffffffffffffffffffff1673ffffffffffffffffffffffffffffffffffffffff16815260200191505060405180910390f35b348015610d7f57600080fd5b50610e0360048036036060811015610d9657600080fd5b81019080803573ffffffffffffffffffffffffffffffffffffffff16906020019092919080604001906002806020026040519081016040528092919082600260200280828437600081840152601f19601f8201169050808301925050505050509192919290505050612efc565b604051808215151515815260200191505060405180910390f35b348015610e2957600080fd5b50610e6c60048036036020811015610e4057600080fd5b81019080803573ffffffffffffffffffffffffffffffffffffffff1690602001909291905050506130be565b604051808215151515815260200191505060405180910390f35b348015610e9257600080fd5b50610f1660048036036060811015610ea957600080fd5b81019080803573ffffffffffffffffffffffffffffffffffffffff16906020019092919080604001906002806020026040519081016040528092919082600260200280828437600081840152601f19601f82011690508083019250505050505091929192905050506131f3565b604051808215151515815260200191505060405180910390f35b348015610f3c57600080fd5b50610f7f60048036036020811015610f5357600080fd5b81019080803573ffffffffffffffffffffffffffffffffffffffff1690602001909291905050506133b5565b604051808215151515815260200191505060405180910390f35b348015610fa557600080fd5b50610fe860048036036020811015610fbc57600080fd5b81019080803573ffffffffffffffffffffffffffffffffffffffff169060200190929190505050613522565b005b348015610ff657600080fd5b506110ad6004803603602081101561100d57600080fd5b810190808035906020019064010000000081111561102a57600080fd5b82018360208201111561103c57600080fd5b8035906020019184602083028401116401000000008311171561105e57600080fd5b919080806020026020016040519081016040528093929190818152602001838360200280828437600081840152601f19601f8201169050808301925050505050505091929192905050506135aa565b005b60006110c533600661367190919063ffffffff16565b1515611139576040517f08c379a00000000000000000000000000000000000000000000000000000000081526004018080602001828103825260178152602001807f43616c6c6572206973206e6f7420616e2061646d696e2e00000000000000000081525060200191505060405180910390fd5b826000600260008373ffffffffffffffffffffffffffffffffffffffff1673ffffffffffffffffffffffffffffffffffffffff168152602001908152602001600020541115156111f1576040517f08c379a00000000000000000000000000000000000000000000000000000000081526004018080602001828103825260148152602001807f5573657220646f6573206e6f742065786973742e00000000000000000000000081525060200191505060405180910390fd5b60006001600260008773ffffffffffffffffffffffffffffffffffffffff1673ffffffffffffffffffffffffffffffffffffffff1681526020019081526020016000205481548110151561124157fe5b90600052602060002090600502019050838160010160006101000a81548173ffffffffffffffffffffffffffffffffffffffff021916908373ffffffffffffffffffffffffffffffffffffffff16021790555060019250505092915050565b6000816000600260008373ffffffffffffffffffffffffffffffffffffffff1673ffffffffffffffffffffffffffffffffffffffff1681526020019081526020016000205411151561135a576040517f08c379a00000000000000000000000000000000000000000000000000000000081526004018080602001828103825260148152602001807f5573657220646f6573206e6f742065786973742e00000000000000000000000081525060200191505060405180910390fd5b60006001600260008673ffffffffffffffffffffffffffffffffffffffff1673ffffffffffffffffffffffffffffffffffffffff168152602001908152602001600020548154811015156113aa57fe5b906000526020600020906005020190508060010160149054906101000a900460ff1692505050919050565b600760009054906101000a900473ffffffffffffffffffffffffffffffffffffffff1681565b6000816000600260008373ffffffffffffffffffffffffffffffffffffffff1673ffffffffffffffffffffffffffffffffffffffff168152602001908152602001600020541415156114b5576040517f08c379a00000000000000000000000000000000000000000000000000000000081526004018080602001828103825260148152602001807f5573657220616c7265616479206578697374732e00000000000000000000000081525060200191505060405180910390fd5b6114bd613a02565b610120604051908101604052808573ffffffffffffffffffffffffffffffffffffffff168152602001600115158152602001600073ffffffffffffffffffffffffffffffffffffffff16815260200186151581526020016040805190810160405280600160ff168152602001601960ff1681525081526020016040805190810160405280600360ff16815260200160c860ff168152508152602001600a61ffff16815260200160001515815260200160001515815250905060006001829080600181540180825580915050906001820390600052602060002090600502016000909192909190915060008201518160000160006101000a81548173ffffffffffffffffffffffffffffffffffffffff021916908373ffffffffffffffffffffffffffffffffffffffff16021790555060208201518160000160146101000a81548160ff02191690831515021790555060408201518160010160006101000a81548173ffffffffffffffffffffffffffffffffffffffff021916908373ffffffffffffffffffffffffffffffffffffffff16021790555060608201518160010160146101000a81548160ff02191690831515021790555060808201518160020190600261168a929190613a93565b5060a0820151816003019060026116a2929190613a93565b5060c08201518160040160006101000a81548161ffff021916908361ffff16021790555060e08201518160040160026101000a81548160ff0219169083151502179055506101008201518160040160036101000a81548160ff0219169083151502179055505050905060006001820390508160038190555080600260008873ffffffffffffffffffffffffffffffffffffffff1673ffffffffffffffffffffffffffffffffffffffff168152602001908152602001600020819055508094505050505092915050565b60018181548110151561177a57fe5b90600052602060002090600502016000915090508060000160009054906101000a900473ffffffffffffffffffffffffffffffffffffffff16908060000160149054906101000a900460ff16908060010160009054906101000a900473ffffffffffffffffffffffffffffffffffffffff16908060010160149054906101000a900460ff16908060040160009054906101000a900461ffff16908060040160029054906101000a900460ff16908060040160039054906101000a900460ff16905087565b611846613b2d565b816000600260008373ffffffffffffffffffffffffffffffffffffffff1673ffffffffffffffffffffffffffffffffffffffff168152602001908152602001600020541115156118fe576040517f08c379a00000000000000000000000000000000000000000000000000000000081526004018080602001828103825260148152602001807f5573657220646f6573206e6f742065786973742e00000000000000000000000081525060200191505060405180910390fd5b60006001600260008673ffffffffffffffffffffffffffffffffffffffff1673ffffffffffffffffffffffffffffffffffffffff1681526020019081526020016000205481548110151561194e57fe5b90600052602060002090600502019050806003016002806020026040519081016040528092919082600280156119bf576020028201916000905b82829054906101000a900460ff1660ff16815260200190600101906020826000010492830192600103820291508084116119885790505b505050505092505050919050565b60006119e333600661367190919063ffffffff16565b1515611a57576040517f08c379a00000000000000000000000000000000000000000000000000000000081526004018080602001828103825260178152602001807f43616c6c6572206973206e6f7420616e2061646d696e2e00000000000000000081525060200191505060405180910390fd5b826000600260008373ffffffffffffffffffffffffffffffffffffffff1673ffffffffffffffffffffffffffffffffffffffff16815260200190815260200160002054111515611b0f576040517f08c379a00000000000000000000000000000000000000000000000000000000081526004018080602001828103825260148152602001807f5573657220646f6573206e6f742065786973742e00000000000000000000000081525060200191505060405180910390fd5b60006001600260008773ffffffffffffffffffffffffffffffffffffffff1673ffffffffffffffffffffffffffffffffffffffff16815260200190815260200160002054815481101515611b5f57fe5b90600052602060002090600502019050838160040160006101000a81548161ffff021916908361ffff16021790555060019250505092915050565b6000611bb033600661367190919063ffffffff16565b1515611c24576040517f08c379a00000000000000000000000000000000000000000000000000000000081526004018080602001828103825260178152602001807f43616c6c6572206973206e6f7420616e2061646d696e2e00000000000000000081525060200191505060405180910390fd5b826000600260008373ffffffffffffffffffffffffffffffffffffffff1673ffffffffffffffffffffffffffffffffffffffff16815260200190815260200160002054111515611cdc576040517f08c379a00000000000000000000000000000000000000000000000000000000081526004018080602001828103825260148152602001807f5573657220646f6573206e6f742065786973742e00000000000000000000000081525060200191505060405180910390fd5b60006001600260008773ffffffffffffffffffffffffffffffffffffffff1673ffffffffffffffffffffffffffffffffffffffff16815260200190815260200160002054815481101515611d2c57fe5b90600052602060002090600502019050838160040160026101000a81548160ff02191690831515021790555060019250505092915050565b6000611d7a33600661367190919063ffffffff16565b1515611dee576040517f08c379a00000000000000000000000000000000000000000000000000000000081526004018080602001828103825260178152602001807f43616c6c6572206973206e6f7420616e2061646d696e2e00000000000000000081525060200191505060405180910390fd5b826000600260008373ffffffffffffffffffffffffffffffffffffffff1673ffffffffffffffffffffffffffffffffffffffff16815260200190815260200160002054111515611ea6576040517f08c379a00000000000000000000000000000000000000000000000000000000081526004018080602001828103825260148152602001807f5573657220646f6573206e6f742065786973742e00000000000000000000000081525060200191505060405180910390fd5b60006001600260008773ffffffffffffffffffffffffffffffffffffffff1673ffffffffffffffffffffffffffffffffffffffff16815260200190815260200160002054815481101515611ef657fe5b90600052602060002090600502019050838160040160036101000a81548160ff02191690831515021790555060019250505092915050565b600860009054906101000a900473ffffffffffffffffffffffffffffffffffffffff1681565b611f5c613b2d565b816000600260008373ffffffffffffffffffffffffffffffffffffffff1673ffffffffffffffffffffffffffffffffffffffff16815260200190815260200160002054111515612014576040517f08c379a00000000000000000000000000000000000000000000000000000000081526004018080602001828103825260148152602001807f5573657220646f6573206e6f742065786973742e00000000000000000000000081525060200191505060405180910390fd5b60006001600260008673ffffffffffffffffffffffffffffffffffffffff1673ffffffffffffffffffffffffffffffffffffffff1681526020019081526020016000205481548110151561206457fe5b90600052602060002090600502019050806002016002806020026040519081016040528092919082600280156120d5576020028201916000905b82829054906101000a900460ff1660ff168152602001906001019060208260000104928301926001038202915080841161209e5790505b505050505092505050919050565b60026020528060005260406000206000915090505481565b6000816000600260008373ffffffffffffffffffffffffffffffffffffffff1673ffffffffffffffffffffffffffffffffffffffff168152602001908152602001600020541115156121b5576040517f08c379a00000000000000000000000000000000000000000000000000000000081526004018080602001828103825260148152602001807f5573657220646f6573206e6f742065786973742e00000000000000000000000081525060200191505060405180910390fd5b60006001600260008673ffffffffffffffffffffffffffffffffffffffff1673ffffffffffffffffffffffffffffffffffffffff1681526020019081526020016000205481548110151561220557fe5b906000526020600020906005020190508060040160029054906101000a900460ff1692505050919050565b60035481565b61223e61287a565b15156122b2576040517f08c379a00000000000000000000000000000000000000000000000000000000081526004018080602001828103825260208152602001807f4f776e61626c653a2063616c6c6572206973206e6f7420746865206f776e657281525060200191505060405180910390fd5b600073ffffffffffffffffffffffffffffffffffffffff166000809054906101000a900473ffffffffffffffffffffffffffffffffffffffff1673ffffffffffffffffffffffffffffffffffffffff167f8be0079c531659141344cd1fd0a4f28419497f9722a3daafe3b4186f6b6457e060405160405180910390a360008060006101000a81548173ffffffffffffffffffffffffffffffffffffffff021916908373ffffffffffffffffffffffffffffffffffffffff160217905550565b6000816000600260008373ffffffffffffffffffffffffffffffffffffffff1673ffffffffffffffffffffffffffffffffffffffff1681526020019081526020016000205411151561242b576040517f08c379a00000000000000000000000000000000000000000000000000000000081526004018080602001828103825260148152602001807f5573657220646f6573206e6f742065786973742e00000000000000000000000081525060200191505060405180910390fd5b60006001600260008673ffffffffffffffffffffffffffffffffffffffff1673ffffffffffffffffffffffffffffffffffffffff1681526020019081526020016000205481548110151561247b57fe5b906000526020600020906005020190508060040160009054906101000a900461ffff1692505050919050565b60006124bd33600661367190919063ffffffff16565b1515612531576040517f08c379a00000000000000000000000000000000000000000000000000000000081526004018080602001828103825260178152602001807f43616c6c6572206973206e6f7420616e2061646d696e2e00000000000000000081525060200191505060405180910390fd5b826000600260008373ffffffffffffffffffffffffffffffffffffffff1673ffffffffffffffffffffffffffffffffffffffff168152602001908152602001600020541115156125e9576040517f08c379a00000000000000000000000000000000000000000000000000000000081526004018080602001828103825260148152602001807f5573657220646f6573206e6f742065786973742e00000000000000000000000081525060200191505060405180910390fd5b60006001600260008773ffffffffffffffffffffffffffffffffffffffff1673ffffffffffffffffffffffffffffffffffffffff1681526020019081526020016000205481548110151561263957fe5b90600052602060002090600502019050838160010160146101000a81548160ff02191690831515021790555060019250505092915050565b600061268733600661367190919063ffffffff16565b15156126fb576040517f08c379a00000000000000000000000000000000000000000000000000000000081526004018080602001828103825260178152602001807f43616c6c6572206973206e6f7420616e2061646d696e2e00000000000000000081525060200191505060405180910390fd5b826000600260008373ffffffffffffffffffffffffffffffffffffffff1673ffffffffffffffffffffffffffffffffffffffff168152602001908152602001600020541115156127b3576040517f08c379a00000000000000000000000000000000000000000000000000000000081526004018080602001828103825260148152602001807f5573657220646f6573206e6f742065786973742e00000000000000000000000081525060200191505060405180910390fd5b60006001600260008773ffffffffffffffffffffffffffffffffffffffff1673ffffffffffffffffffffffffffffffffffffffff1681526020019081526020016000205481548110151561280357fe5b90600052602060002090600502019050838160040160008282829054906101000a900461ffff160192506101000a81548161ffff021916908361ffff16021790555060019250505092915050565b60008060009054906101000a900473ffffffffffffffffffffffffffffffffffffffff16905090565b60008060009054906101000a900473ffffffffffffffffffffffffffffffffffffffff1673ffffffffffffffffffffffffffffffffffffffff166128bc613794565b73ffffffffffffffffffffffffffffffffffffffff1614905090565b6128e061287a565b1515612954576040517f08c379a00000000000000000000000000000000000000000000000000000000081526004018080602001828103825260208152602001807f4f776e61626c653a2063616c6c6572206973206e6f7420746865206f776e657281525060200191505060405180910390fd5b60008090505b815181101561299b5761298e828281518110151561297457fe5b90602001906020020151600561379c90919063ffffffff16565b808060010191505061295a565b5050565b6000806001838154811015156129b157fe5b906000526020600020906005020190508060000160009054906101000a900473ffffffffffffffffffffffffffffffffffffffff16915050919050565b6129f661287a565b1515612a6a576040517f08c379a00000000000000000000000000000000000000000000000000000000081526004018080602001828103825260208152602001807f4f776e61626c653a2063616c6c6572206973206e6f7420746865206f776e657281525060200191505060405180910390fd5b60008090505b8151811015612ab157612aa48282815181101515612a8a57fe5b90602001906020020151600661379c90919063ffffffff16565b8080600101915050612a70565b5050565b6000816000600260008373ffffffffffffffffffffffffffffffffffffffff1673ffffffffffffffffffffffffffffffffffffffff16815260200190815260200160002054111515612b6f576040517f08c379a00000000000000000000000000000000000000000000000000000000081526004018080602001828103825260148152602001807f5573657220646f6573206e6f742065786973742e00000000000000000000000081525060200191505060405180910390fd5b60006001600260008673ffffffffffffffffffffffffffffffffffffffff1673ffffffffffffffffffffffffffffffffffffffff16815260200190815260200160002054815481101515612bbf57fe5b906000526020600020906005020190508060000160149054906101000a900460ff1692505050919050565b6000612c0033600661367190919063ffffffff16565b1515612c74576040517f08c379a00000000000000000000000000000000000000000000000000000000081526004018080602001828103825260178152602001807f43616c6c6572206973206e6f7420616e2061646d696e2e00000000000000000081525060200191505060405180910390fd5b826000600260008373ffffffffffffffffffffffffffffffffffffffff1673ffffffffffffffffffffffffffffffffffffffff16815260200190815260200160002054111515612d2c576040517f08c379a00000000000000000000000000000000000000000000000000000000081526004018080602001828103825260148152602001807f5573657220646f6573206e6f742065786973742e00000000000000000000000081525060200191505060405180910390fd5b60006001600260008773ffffffffffffffffffffffffffffffffffffffff1673ffffffffffffffffffffffffffffffffffffffff16815260200190815260200160002054815481101515612d7c57fe5b90600052602060002090600502019050838160000160146101000a81548160ff02191690831515021790555060019250505092915050565b6000816000600260008373ffffffffffffffffffffffffffffffffffffffff1673ffffffffffffffffffffffffffffffffffffffff16815260200190815260200160002054111515612e6e576040517f08c379a00000000000000000000000000000000000000000000000000000000081526004018080602001828103825260148152602001807f5573657220646f6573206e6f742065786973742e00000000000000000000000081525060200191505060405180910390fd5b60006001600260008673ffffffffffffffffffffffffffffffffffffffff1673ffffffffffffffffffffffffffffffffffffffff16815260200190815260200160002054815481101515612ebe57fe5b906000526020600020906005020190508060010160009054906101000a900473ffffffffffffffffffffffffffffffffffffffff1692505050919050565b6000612f1233600661367190919063ffffffff16565b1515612f86576040517f08c379a00000000000000000000000000000000000000000000000000000000081526004018080602001828103825260178152602001807f43616c6c6572206973206e6f7420616e2061646d696e2e00000000000000000081525060200191505060405180910390fd5b826000600260008373ffffffffffffffffffffffffffffffffffffffff1673ffffffffffffffffffffffffffffffffffffffff1681526020019081526020016000205411151561303e576040517f08c379a00000000000000000000000000000000000000000000000000000000081526004018080602001828103825260148152602001807f5573657220646f6573206e6f742065786973742e00000000000000000000000081525060200191505060405180910390fd5b60006001600260008773ffffffffffffffffffffffffffffffffffffffff1673ffffffffffffffffffffffffffffffffffffffff1681526020019081526020016000205481548110151561308e57fe5b9060005260206000209060050201905083816002019060026130b1929190613b4f565b5060019250505092915050565b6000816000600260008373ffffffffffffffffffffffffffffffffffffffff1673ffffffffffffffffffffffffffffffffffffffff16815260200190815260200160002054111515613178576040517f08c379a00000000000000000000000000000000000000000000000000000000081526004018080602001828103825260148152602001807f5573657220646f6573206e6f742065786973742e00000000000000000000000081525060200191505060405180910390fd5b60006001600260008673ffffffffffffffffffffffffffffffffffffffff1673ffffffffffffffffffffffffffffffffffffffff168152602001908152602001600020548154811015156131c857fe5b906000526020600020906005020190508060040160039054906101000a900460ff1692505050919050565b600061320933600661367190919063ffffffff16565b151561327d576040517f08c379a00000000000000000000000000000000000000000000000000000000081526004018080602001828103825260178152602001807f43616c6c6572206973206e6f7420616e2061646d696e2e00000000000000000081525060200191505060405180910390fd5b826000600260008373ffffffffffffffffffffffffffffffffffffffff1673ffffffffffffffffffffffffffffffffffffffff16815260200190815260200160002054111515613335576040517f08c379a00000000000000000000000000000000000000000000000000000000081526004018080602001828103825260148152602001807f5573657220646f6573206e6f742065786973742e00000000000000000000000081525060200191505060405180910390fd5b60006001600260008773ffffffffffffffffffffffffffffffffffffffff1673ffffffffffffffffffffffffffffffffffffffff1681526020019081526020016000205481548110151561338557fe5b9060005260206000209060050201905083816003019060026133a8929190613b4f565b5060019250505092915050565b60006133cb33600461367190919063ffffffff16565b1515613465576040517f08c379a00000000000000000000000000000000000000000000000000000000081526004018080602001828103825260268152602001807f43616c6c6572206973206e6f7420616e20617373657420746f6b656e20636f6e81526020017f74726163742e000000000000000000000000000000000000000000000000000081525060400191505060405180910390fd5b60006001600260008573ffffffffffffffffffffffffffffffffffffffff1673ffffffffffffffffffffffffffffffffffffffff168152602001908152602001600020548154811015156134b557fe5b9060005260206000209060050201905060008160040160009054906101000a900461ffff1661ffff1611156135185760018160040160008282829054906101000a900461ffff160392506101000a81548161ffff021916908361ffff1602179055505b6001915050919050565b61352a61287a565b151561359e576040517f08c379a00000000000000000000000000000000000000000000000000000000081526004018080602001828103825260208152602001807f4f776e61626c653a2063616c6c6572206973206e6f7420746865206f776e657281525060200191505060405180910390fd5b6135a781613879565b50565b6135b261287a565b1515613626576040517f08c379a00000000000000000000000000000000000000000000000000000000081526004018080602001828103825260208152602001807f4f776e61626c653a2063616c6c6572206973206e6f7420746865206f776e657281525060200191505060405180910390fd5b60008090505b815181101561366d57613660828281518110151561364657fe5b90602001906020020151600461379c90919063ffffffff16565b808060010191505061362c565b5050565b60008073ffffffffffffffffffffffffffffffffffffffff168273ffffffffffffffffffffffffffffffffffffffff161415151561373d576040517f08c379a00000000000000000000000000000000000000000000000000000000081526004018080602001828103825260228152602001807f526f6c65733a206163636f756e7420697320746865207a65726f20616464726581526020017f737300000000000000000000000000000000000000000000000000000000000081525060400191505060405180910390fd5b8260000160008373ffffffffffffffffffffffffffffffffffffffff1673ffffffffffffffffffffffffffffffffffffffff16815260200190815260200160002060009054906101000a900460ff16905092915050565b600033905090565b6137a68282613671565b15151561381b576040517f08c379a000000000000000000000000000000000000000000000000000000000815260040180806020018281038252601f8152602001807f526f6c65733a206163636f756e7420616c72656164792068617320726f6c650081525060200191505060405180910390fd5b60018260000160008373ffffffffffffffffffffffffffffffffffffffff1673ffffffffffffffffffffffffffffffffffffffff16815260200190815260200160002060006101000a81548160ff0219169083151502179055505050565b600073ffffffffffffffffffffffffffffffffffffffff168173ffffffffffffffffffffffffffffffffffffffff1614151515613944576040517f08c379a00000000000000000000000000000000000000000000000000000000081526004018080602001828103825260268152602001807f4f776e61626c653a206e6577206f776e657220697320746865207a65726f206181526020017f646472657373000000000000000000000000000000000000000000000000000081525060400191505060405180910390fd5b8073ffffffffffffffffffffffffffffffffffffffff166000809054906101000a900473ffffffffffffffffffffffffffffffffffffffff1673ffffffffffffffffffffffffffffffffffffffff167f8be0079c531659141344cd1fd0a4f28419497f9722a3daafe3b4186f6b6457e060405160405180910390a3806000806101000a81548173ffffffffffffffffffffffffffffffffffffffff021916908373ffffffffffffffffffffffffffffffffffffffff16021790555050565b61016060405190810160405280600073ffffffffffffffffffffffffffffffffffffffff168152602001600015158152602001600073ffffffffffffffffffffffffffffffffffffffff168152602001600015158152602001613a63613be9565b8152602001613a70613be9565b8152602001600061ffff1681526020016000151581526020016000151581525090565b826002601f01602090048101928215613b1c5791602002820160005b83821115613aed57835183826101000a81548160ff021916908360ff1602179055509260200192600101602081600001049283019260010302613aaf565b8015613b1a5782816101000a81549060ff0219169055600101602081600001049283019260010302613aed565b505b509050613b299190613c0b565b5090565b6040805190810160405280600290602082028038833980820191505090505090565b826002601f01602090048101928215613bd85791602002820160005b83821115613ba957835183826101000a81548160ff021916908360ff1602179055509260200192600101602081600001049283019260010302613b6b565b8015613bd65782816101000a81549060ff0219169055600101602081600001049283019260010302613ba9565b505b509050613be59190613c0b565b5090565b6040805190810160405280600290602082028038833980820191505090505090565b613c3891905b80821115613c3457600081816101000a81549060ff021916905550600101613c11565b5090565b9056fea165627a7a72305820eb0cb91f8db1af064d7db1dfae865c88dc533f546572d0371c53d6af411818350029",
  "source": "pragma solidity ^0.5.0;\r\n\r\nimport \"@openzeppelin/contracts/access/Roles.sol\";\r\nimport \"@openzeppelin/contracts/ownership/Ownable.sol\";\r\nimport \"./Events.sol\";\r\n\r\ncontract Users is Ownable, Events {\r\n    using Roles for Roles.Role;\r\n\r\n    struct User {\r\n        address userAddress;\r\n        bool active;\r\n        address referrerAddress;\r\n        bool merchant;\r\n        uint8[2] transactionFeeValues;\r\n        uint8[2] exchangeFeeValues;\r\n        uint16 remainingFreeTransactions;\r\n        bool superReferrer;\r\n        bool superUser;\r\n    }\r\n\r\n    User[] public users;\r\n    mapping(address => uint256) public addressToUserIndex;\r\n    uint256 public usersCount;\r\n\r\n    Roles.Role assetTokenContracts;\r\n    Roles.Role digitallContracts;\r\n    Roles.Role admins;\r\n\r\n    address public InOnePlaceWallet =\r\n        0xceaCCe738B5c4e03b45561bFB5b3796B63cFeCDD;\r\n    address public PrizeDrawWallet = 0xa1c86295E88fCfaDEf9FB518dC7201C85699D401;\r\n\r\n    constructor() public {\r\n        User memory user = User({\r\n            userAddress: address(this),\r\n            active: false,\r\n            referrerAddress: address(0),\r\n            merchant: true,\r\n            transactionFeeValues: [0, 1],\r\n            exchangeFeeValues: [0, 1],\r\n            remainingFreeTransactions: 0,\r\n            superReferrer: true,\r\n            superUser: true\r\n        });\r\n        uint256 newUsersCount = users.push(user);\r\n        uint256 newUserId = newUsersCount - 1;\r\n        usersCount = newUsersCount;\r\n        addressToUserIndex[address(this)] = newUserId;\r\n    }\r\n\r\n    modifier onlyAssetTokenContracts() {\r\n        require(\r\n            assetTokenContracts.has(msg.sender),\r\n            \"Caller is not an asset token contract.\"\r\n        );\r\n        _;\r\n    }\r\n\r\n    modifier onlyAdmins() {\r\n        require(admins.has(msg.sender), \"Caller is not an admin.\");\r\n        _;\r\n    }\r\n\r\n    modifier userExists(address userAddress) {\r\n        require(addressToUserIndex[userAddress] > 0, \"User does not exist.\");\r\n        _;\r\n    }\r\n\r\n    modifier userDoesNotExist(address userAddress) {\r\n        require(addressToUserIndex[userAddress] == 0, \"User already exists.\");\r\n        _;\r\n    }\r\n\r\n    modifier onlyDigitallContracts() {\r\n        require(\r\n            digitallContracts.has(msg.sender),\r\n            \"Caller is Digitall contract.\"\r\n        );\r\n        _;\r\n    }\r\n\r\n    function addDigitallContracts(address[] memory newContracts)\r\n        public\r\n        onlyOwner\r\n    {\r\n        for (uint256 i = 0; i < newContracts.length; i++) {\r\n            digitallContracts.add(newContracts[i]);\r\n        }\r\n    }\r\n\r\n    function addAssetTokenContracts(address[] memory newContracts)\r\n        public\r\n        onlyOwner\r\n    {\r\n        for (uint256 i = 0; i < newContracts.length; i++) {\r\n            assetTokenContracts.add(newContracts[i]);\r\n        }\r\n    }\r\n\r\n    function addAdmins(address[] memory newAdmins) public onlyOwner {\r\n        for (uint256 i = 0; i < newAdmins.length; i++) {\r\n            admins.add(newAdmins[i]);\r\n        }\r\n    }\r\n\r\n    function createUser(bool isMerchant,address accountAddress)\r\n        public\r\n        userDoesNotExist(accountAddress)\r\n        returns (uint256)\r\n    {\r\n        User memory user = User({\r\n            // userAddress: msg.sender,\r\n            userAddress: accountAddress,\r\n            active: true,\r\n            referrerAddress: address(0),\r\n            merchant: isMerchant,\r\n            transactionFeeValues: [1, 25],\r\n            exchangeFeeValues: [3, 200],\r\n            remainingFreeTransactions: 10,\r\n            superReferrer: false,\r\n            superUser: false\r\n        });\r\n        uint256 newUsersCount = users.push(user);\r\n        uint256 newUserId = newUsersCount - 1;\r\n        usersCount = newUsersCount;\r\n        addressToUserIndex[accountAddress] = newUserId;\r\n        // addressToUserIndex[msg.sender] = newUserId;\r\n        return newUserId;\r\n    }\r\n\r\n    function isActive(address userAddress)\r\n        public\r\n        view\r\n        userExists(userAddress)\r\n        returns (bool)\r\n    {\r\n        User storage user = users[addressToUserIndex[userAddress]];\r\n        return user.active;\r\n    }\r\n\r\n    function isSuperUser(address userAddress)\r\n        public\r\n        view\r\n        userExists(userAddress)\r\n        returns (bool)\r\n    {\r\n        User storage user = users[addressToUserIndex[userAddress]];\r\n        return user.superUser;\r\n    }\r\n\r\n    function isSuperReferrer(address userAddress)\r\n        public\r\n        view\r\n        userExists(userAddress)\r\n        returns (bool)\r\n    {\r\n        User storage user = users[addressToUserIndex[userAddress]];\r\n        return user.superReferrer;\r\n    }\r\n\r\n    function isMerchant(address userAddress)\r\n        public\r\n        view\r\n        userExists(userAddress)\r\n        returns (bool)\r\n    {\r\n        User storage user = users[addressToUserIndex[userAddress]];\r\n        return user.merchant;\r\n    }\r\n\r\n    function getUserAddress(uint256 _index) public view returns (address) {\r\n        User storage user = users[_index];\r\n        return user.userAddress;\r\n    }\r\n\r\n    function getTransactionFeeValues(address userAddress)\r\n        public\r\n        view\r\n        userExists(userAddress)\r\n        returns (uint8[2] memory)\r\n    {\r\n        User storage user = users[addressToUserIndex[userAddress]];\r\n        return user.transactionFeeValues;\r\n    }\r\n\r\n    function getRemainingFreeTransactions(address userAddress)\r\n        public\r\n        view\r\n        userExists(userAddress)\r\n        returns (uint16)\r\n    {\r\n        User storage user = users[addressToUserIndex[userAddress]];\r\n        return user.remainingFreeTransactions;\r\n    }\r\n\r\n    function getReferrerAddress(address userAddress)\r\n        public\r\n        view\r\n        userExists(userAddress)\r\n        returns (address)\r\n    {\r\n        User storage user = users[addressToUserIndex[userAddress]];\r\n        return user.referrerAddress;\r\n    }\r\n\r\n    function getExchangeFeeValues(address userAddress)\r\n        public\r\n        view\r\n        userExists(userAddress)\r\n        returns (uint8[2] memory)\r\n    {\r\n        User storage user = users[addressToUserIndex[userAddress]];\r\n        return user.exchangeFeeValues;\r\n    }\r\n\r\n    function setStatus(address userAddress, bool newStatus)\r\n        public\r\n        onlyAdmins\r\n        userExists(userAddress)\r\n        returns (bool)\r\n    {\r\n        User storage user = users[addressToUserIndex[userAddress]];\r\n        user.active = newStatus;\r\n        return true;\r\n    }\r\n\r\n    function setMerchant(address userAddress, bool newMerchant)\r\n        public\r\n        onlyAdmins\r\n        userExists(userAddress)\r\n        returns (bool)\r\n    {\r\n        User storage user = users[addressToUserIndex[userAddress]];\r\n        user.merchant = newMerchant;\r\n        return true;\r\n    }\r\n\r\n    function setSuperUser(address userAddress, bool newStatus)\r\n        public\r\n        onlyAdmins\r\n        userExists(userAddress)\r\n        returns (bool)\r\n    {\r\n        User storage user = users[addressToUserIndex[userAddress]];\r\n        user.superUser = newStatus;\r\n        return true;\r\n    }\r\n\r\n    function setSuperReferrer(address userAddress, bool newStatus)\r\n        public\r\n        onlyAdmins\r\n        userExists(userAddress)\r\n        returns (bool)\r\n    {\r\n        User storage user = users[addressToUserIndex[userAddress]];\r\n        user.superReferrer = newStatus;\r\n        return true;\r\n    }\r\n\r\n    function setExchangeFeeValues(\r\n        address userAddress,\r\n        uint8[2] memory newExchangeFeeValues\r\n    ) public onlyAdmins userExists(userAddress) returns (bool) {\r\n        User storage user = users[addressToUserIndex[userAddress]];\r\n        user.exchangeFeeValues = newExchangeFeeValues;\r\n        return true;\r\n    }\r\n\r\n    function setTransactionFeeValues(\r\n        address userAddress,\r\n        uint8[2] memory newTransactionFeeValues\r\n    ) public onlyAdmins userExists(userAddress) returns (bool) {\r\n        User storage user = users[addressToUserIndex[userAddress]];\r\n        user.transactionFeeValues = newTransactionFeeValues;\r\n        return true;\r\n    }\r\n\r\n    function increaseRemainingFreeTransactions(\r\n        address userAddress,\r\n        uint16 amount\r\n    ) public onlyAdmins userExists(userAddress) returns (bool) {\r\n        User storage user = users[addressToUserIndex[userAddress]];\r\n        user.remainingFreeTransactions += amount;\r\n        return true;\r\n    }\r\n\r\n    function setRemainingFreeTransactions(\r\n        address userAddress,\r\n        uint16 newRemainingFreeTransactions\r\n    ) public onlyAdmins userExists(userAddress) returns (bool) {\r\n        User storage user = users[addressToUserIndex[userAddress]];\r\n        user.remainingFreeTransactions = newRemainingFreeTransactions;\r\n        return true;\r\n    }\r\n\r\n    function setReferrerAddress(address userAddress, address referrerAddress)\r\n        public\r\n        onlyAdmins\r\n        userExists(userAddress)\r\n        returns (bool)\r\n    {\r\n        User storage user = users[addressToUserIndex[userAddress]];\r\n        user.referrerAddress = referrerAddress;\r\n        return true;\r\n    }\r\n\r\n    function decrementFreeTransactions(address userAddress)\r\n        public\r\n        onlyAssetTokenContracts\r\n        returns (bool)\r\n    {\r\n        User storage user = users[addressToUserIndex[userAddress]];\r\n\r\n        if (user.remainingFreeTransactions > 0) {\r\n            user.remainingFreeTransactions -= 1;\r\n        }\r\n\r\n        return true;\r\n    }\r\n}\r\n",
  "sourcePath": "D:\\Digimark\\digital-app\\digitall-contracts\\contracts\\Users.sol",
  "compiler": {
    "name": "solc",
    "version": "0.5.0+commit.1d4f565a.Emscripten.clang"
  },
  "schemaVersion": "3.4.3",
  "updatedAt": "2021-10-18T14:33:49.647Z",
  "networkType": "ethereum",
  "devdoc": {
    "methods": {
      "isOwner()": {
        "details": "Returns true if the caller is the current owner."
      },
      "owner()": {
        "details": "Returns the address of the current owner."
      },
      "renounceOwnership()": {
        "details": "Leaves the contract without owner. It will not be possible to call `onlyOwner` functions anymore. Can only be called by the current owner.     * NOTE: Renouncing ownership will leave the contract without an owner, thereby removing any functionality that is only available to the owner."
      },
      "transferOwnership(address)": {
        "details": "Transfers ownership of the contract to a new account (`newOwner`). Can only be called by the current owner."
      }
    }
  },
  "userdoc": {
    "methods": {}
  }
}